:020000040800F2
:1000000000040020C1010008412B0008412B00081A
:1000100051280008412B0008412B0008412B000803
:10002000412B0008412B0008412B0008614C0008BF
:10003000412B0008412B0008412B000811AE00089D
:10004000412B0008017E0008917F0008E17F000835
:10005000412B0008412B0008417B0008917B0008E0
:10006000E17B0008317C0008817C00088170000879
:10007000D17000082171000871710008C171000879
:100080001172000861720008B179000881810008CE
:10009000F1810008A182000851830008D17C00088A
:1000A000412B0008412B000831A90008412B000812
:1000B00091AA0008D1AA000811AB0008119100080C
:1000C00051920008412B0008412B0008412B0008E9
:1000D000412B0008412B0008412B0008D1AE00083D
:1000E000617D0008517E0008A17E000871A900080A
:1000F000412B0008412B0008412B0008B172000879
:10010000412B0008E184000851AB0008412B000896
:10011000412B0008412B0008F1A80008412B0008E2
:100120000173000851730008A1730008F1730008FF
:1001300041740008412B0008F17E0008412B0008A3
:10014000412B0008412B0008412B000831A5000875
:1001500091740008E174000831750008412B000813
:10016000412B0008412B0008412B0008412B0008BF
:10017000417F0008412B000811170008412B00089F
:10018000412B0008412B0008412B0008412B00089F
:10019000412B0008412B0008412B0008412B00088F
:1001A000412B0008412B0008412B0008412B00087F
:1001B000412B0008412B0008412B0008412B00086F
:1001C00072B62E4880F3098840F20000CCF200009D
:1001D0004EF63471CEF20001086040F20000C0F229
:1001E000F0004EF68851CEF2000108604FF000009A
:1001F000E1EE100A4EF63C71CEF2000108600620D6
:1002000080F31488BFF36F8F0AF0AAFF4FF05530C8
:100210001B491C4A91423CBF41F8040BFAE71A49BA
:10022000164A91423CBF41F8040BFAE71749184AB5
:10023000184B9A423EBF51F8040B42F8040BF8E702
:1002400000201549154A91423CBF41F8040BFAE7DA
:1002500002F05EFC124C134DAC4203DA54F8041B5E
:100260008847F9E700F0D4FF0F4C104DAC4203DA99
:1002700054F8041B8847F9E702F05ABC0008002034
:1002800000000020000400200004002068FB00089B
:1002900000080020FC11002000120020183000206F
:1002A000C0010008C0010008C0010008C00100082A
:1002B0002DE9F04F2DED108AC1F80CD0D0F80CD0FC
:1002C000BDEC108ABDE8F08F02F07AFD03F068FD06
:1002D000002383F311882846A047002003F000FB89
:1002E00003F046FD02F04CFD03F06AF902F068FDF0
:1002F00003F056FD00DFFEE70000000000000000F4
:1003000081F0004102E000BF83F0004330B54FEAC6
:1003100041044FEA430594EA050F08BF90EA020F33
:100320001FBF54EA000C55EA020C7FEA645C7FEAC6
:10033000655C00F0E2804FEA5454D4EB5555B8BFE9
:100340006D420CDD2C4480EA020281EA030382EA5A
:10035000000083EA010180EA020281EA0303362DEC
:1003600088BF30BD11F0004F4FEA01314FF4801CBF
:100370004CEA113102D0404261EB410113F0004FD1
:100380004FEA03334CEA133302D0524263EB430388
:1003900094EA050F00F0A780A4F10104D5F1200E26
:1003A0000DDB02FA0EFC22FA05F2801841F1000181
:1003B00003FA0EF2801843FA05F359410EE0A5F155
:1003C00020050EF1200E012A03FA0EFC28BF4CF086
:1003D000020C43FA05F3C01851EBE37101F000453C
:1003E00007D54FF0000EDCF1000C7EEB00006EEB49
:1003F0000101B1F5801F1BD3B1F5001F0CD34908D3
:100400005FEA30004FEA3C0C04F101044FEA445229
:1004100012F5800F80F09A80BCF1004F08BF5FEAB0
:10042000500C50F1000041EB045141EA050130BD90
:100430005FEA4C0C404141EB010111F4801FA4F133
:100440000104E9D191F0000F04BF01460020B1FA88
:1004500081F308BF2033A3F10B03B3F120020CDAC0
:100460000C3208DD02F1140CC2F10C0201FA0CF09E
:1004700021FA02F10CE002F11402D8BFC2F1200C03
:1004800001FA02F120FA0CFCDCBF41EA0C019040B9
:10049000E41AA2BF01EB0451294330BD6FEA040402
:1004A0001F3C1CDA0C340EDC04F11404C4F12002ED
:1004B00020FA04F001FA02F340EA030021FA04F3FF
:1004C00045EA030130BDC4F10C04C4F1200220FA56
:1004D00002F001FA04F340EA0300294630BD21FA94
:1004E00004F0294630BD94F0000F83F4801306BF5A
:1004F00081F480110134013D4EE77FEA645C18BF4E
:100500007FEA655C29D094EA050F08BF90EA020FE4
:1005100005D054EA000C04BF1946104630BD91EADC
:10052000030F1EBF0021002030BD5FEA545C05D1DF
:100530004000494128BF41F0004130BD14F580041E
:100540003CBF01F5801130BD01F0004545F0FE4192
:1005500041F470014FF0000030BD7FEA645C1ABFC7
:10056000194610467FEA655C1CBF0B46024650EAFE
:10057000013406BF52EA033591EA030F41F400212A
:1005800030BD00BF90F0000F04BF0021704730B5B0
:100590004FF4806404F132044FF000054FF0000185
:1005A00050E700BF90F0000F04BF0021704730B546
:1005B0004FF4806404F1320410F0004548BF40421B
:1005C0004FF000013EE700BF42004FEAE2014FEA70
:1005D00031014FEA02701FBF12F07F4393F07F4F4B
:1005E00081F06051704732F07F4208BF704793F04E
:1005F0007F4F04BF41F40021704730B54FF4607461
:1006000001F0004521F000411CE700BF50EA010263
:1006100008BF704730B54FF000050AE050EA01020C
:1006200008BF704730B511F0004502D5404261EB7C
:1006300041014FF4806404F132045FEA915C3FF4BD
:10064000D8AE4FF003025FEADC0C18BF03325FEA5A
:10065000DC0C18BF033202EBDC02C2F1200300FA0B
:1006600003FC20FA02F001FA03FE40EA0E0021FA30
:1006700002F11444BDE600BF0000000000000000CD
:1006800070B54FF0FF0C4CF4E06C1CEA11541DBF28
:100690001CEA135594EA0C0F95EA0C0F00F0DEF8F3
:1006A0002C4481EA030621EA4C5123EA4C5350EAD8
:1006B000013518BF52EA033541F4801143F4801329
:1006C00038D0A0FB02CE4FF00005E1FB02E506F0BA
:1006D0000042E0FB03E54FF00006E1FB03569CF00F
:1006E000000F18BF4EF0010EA4F1FF04B6F5007F15
:1006F00064F5407404D25FEA4E0E6D4146EB060687
:1007000042EAC62141EA55514FEAC52040EA5E500F
:100710004FEACE2EB4F1FD0C88BFBCF5E06F1ED8B9
:10072000BEF1004F08BF5FEA500E50F1000041EBF0
:10073000045170BD06F0004646EA010140EA02009D
:1007400081EA0301B4EB5C04C2BFD4EB0C0541EABF
:10075000045170BD41F480114FF0000E013C00F3D4
:10076000AB8014F1360FDEBF002001F0004170BDF8
:10077000C4F10004203C35DA0C341BDC04F1140411
:10078000C4F1200500FA05F320FA04F001FA05F29D
:1007900040EA020001F0004221F0004110EBD3706A
:1007A00021FA04F642EB06015EEA430E08BF20EA96
:1007B000D37070BDC4F10C04C4F1200500FA04F339
:1007C00020FA05F001FA04F240EA020001F00041CB
:1007D00010EBD37041F100015EEA430E08BF20EA3E
:1007E000D37070BDC4F1200500FA05F24EEA020E86
:1007F00020FA04F301FA05F243EA020321FA04F0B5
:1008000001F0004121FA04F220EA020000EBD3706B
:100810005EEA430E08BF20EAD37070BD94F0000F6B
:100820000FD101F00046400041EB010111F4801F9F
:1008300008BF013CF7D041EA060195F0000F18BF50
:10084000704703F00046520043EB030313F4801F8C
:1008500008BF013DF7D043EA0603704794EA0C0F46
:100860000CEA135518BF95EA0C0F0CD050EA41065C
:1008700018BF52EA4306D1D181EA030101F00041D9
:100880004FF0000070BD50EA410606BF1046194601
:1008900052EA430619D094EA0C0F02D150EA01360D
:1008A00013D195EA0C0F05D152EA03361CBF10464E
:1008B00019460AD181EA030101F0004141F0FE41ED
:1008C00041F470014FF0000070BD41F0FE4141F471
:1008D000780170BD70B54FF0FF0C4CF4E06C1CEA71
:1008E00011541DBF1CEA135594EA0C0F95EA0C0F26
:1008F00000F0A7F8A4EB050481EA030E52EA0335E1
:100900004FEA013100F088804FEA03334FF0805501
:1009100045EA131343EA12634FEA022245EA11152E
:1009200045EA10654FEA00260EF000419D4208BFDF
:10093000964244F1FD0404F5407402D25B084FEA8C
:100940003202B61A65EB03055B084FEA32024FF438
:1009500080104FF4002CB6EB020E75EB030E22BF95
:10096000B61A754640EA0C005B084FEA3202B6EB55
:10097000020E75EB030E22BFB61A754640EA5C0004
:100980005B084FEA3202B6EB020E75EB030E22BF94
:10099000B61A754640EA9C005B084FEA3202B6EB95
:1009A000020E75EB030E22BFB61A754640EADC0054
:1009B00055EA060E18D04FEA051545EA16754FEAB6
:1009C00006164FEAC30343EA52734FEAC2025FEAD4
:1009D0001C1CC0D111F4801F0BD141EA00014FF063
:1009E00000004FF0004CB6E711F4801F04BF014334
:1009F0000020B4F1FD0C88BFBCF5E06F3FF6AFAE50
:100A0000B5EB030C04BFB6EB020C5FEA500C50F1DF
:100A1000000041EB045170BD0EF0004E4EEA113162
:100A200014EB5C04C2BFD4EB0C0541EA045170BD69
:100A300041F480114FF0000E013C90E645EA060EAD
:100A40008DE60CEA135594EA0C0F08BF95EA0C0FDB
:100A50003FF43BAF94EA0C0F0AD150EA01347FF423
:100A600034AF95EA0C0F7FF425AF104619462CE7FA
:100A700095EA0C0F06D152EA03353FF4FDAE10465D
:100A8000194622E750EA410618BF52EA43067FF4AE
:100A9000C5AE50EA41047FF40DAF52EA43057FF43E
:100AA000EBAE12E7000000000000000000000000B4
:100AB0004FEA410212F5001215D211D56FF4787386
:100AC000B3EB625212D94FEAC12343F0004343EA29
:100AD000505311F0004F23FA02F018BF4042704704
:100AE0004FF00000704750EA013005D111F000408E
:100AF00008BF6FF0004070474FF00000704700BF24
:100B000053B94AB9002908BF00281CBF4FF0FF3174
:100B10004FF0FF3000F074B9ADF1080C6DE904CE70
:100B200000F006F8DDF804E0DDE9022304B07047C8
:100B30002DE9F047089E04468846002B4BD18A4297
:100B4000154667D9B2FA82F24AB1C2F1200701FA1A
:100B500002F320FA07F7954047EA030894404FEA6A
:100B6000154E230CB8FBFEF71FFA85FC0EFB178809
:100B700043EA084307FB0CF1994209D9EB1807F146
:100B8000FF3080F01B81994240F21881023F2B44D4
:100B90005B1AA4B2B3FBFEF00EFB103344EA03442D
:100BA00000FB0CFCA44509D92C1900F1FF3380F09F
:100BB0000781A44540F2048102382C4440EA0740F2
:100BC000A4EB0C0400271EB1D4400023C6E9004367
:100BD0003946BDE8F0878B4209D9002E00F0EB8042
:100BE0000027C6E9000138463946BDE8F087B3FA68
:100BF00083F7002F47D18B4202D3824200F2FA8062
:100C0000841A61EB030301209846002EE0D0C6E968
:100C10000048DDE702B9FFDEB2FA82F2002A40F0B6
:100C20008F80491B4FEA154E1FFA85F80127B1FB4B
:100C3000FEFC230C0EFB1C1143EA014308FB0CF1E4
:100C4000994207D9EB180CF1FF3002D2994200F219
:100C5000CD808446591AA3B2B1FBFEF00EFB1014EE
:100C600043EA044408FB00F8A04507D92C1900F119
:100C7000FF3302D2A04500F2B6801846A4EB080468
:100C800040EA0C409FE7C7F1200CBB4022FA0CFE63
:100C90004EEA030E01FA07F420FA0CF521FA0CF3E0
:100CA0004FEA1E482543B3FBF8F92C0C08FB193317
:100CB0001FFA8EFA44EA034309FB0AF49C4202FA43
:100CC00007F200FA07F10BD91EEB030309F1FF301D
:100CD00080F087809C4240F28480A9F1020973442D
:100CE0001B1BADB2B3FBF8F008FB103345EA03441D
:100CF00000FB0AFAA24508D91EEB040400F1FF33F9
:100D00006BD2A24569D90238744440EA0940A0FB7D
:100D10000289A4EB0A044C45C2464B4654D351D039
:100D2000002E69D0B1EB0A0564EB030404FA0CFC55
:100D3000FD40FC404CEA0505C6E90054002747E7A2
:100D4000C2F1200320FA03F7954001FA02F021FADC
:100D500003F34FEA154E3843010CB3FBFEF71FFABD
:100D600085F80EFB173341EA034107FB08F38B427A
:100D700004FA02F407D9691807F1FF3C2FD28B421D
:100D80002DD9023F2944CB1A81B2B3FBFEF00EFBF2
:100D9000103341EA034100FB08F38B4207D969187D
:100DA00000F1FF3C17D28B4215D902382944C91AE9
:100DB00040EA07473BE73746304609E70746E7E69C
:100DC0001846FBE64145ABD2B8EB020A69EB0E02CE
:100DD00001381346A4E76046E9E7184695E76746F9
:100DE000D1E781467CE702382C4447E7ACF1020C9E
:100DF0002B442FE7384608E73746E9E600000000B5
:100E0000704700BF0000000000000000000000006C
:100E1000844641EA000313F003036DD1403A41D305
:100E200051F8043B40F8043B51F8043B40F8043BC4
:100E300051F8043B40F8043B51F8043B40F8043BB4
:100E400051F8043B40F8043B51F8043B40F8043BA4
:100E500051F8043B40F8043B51F8043B40F8043B94
:100E600051F8043B40F8043B51F8043B40F8043B84
:100E700051F8043B40F8043B51F8043B40F8043B74
:100E800051F8043B40F8043B51F8043B40F8043B64
:100E900051F8043B40F8043B51F8043B40F8043B54
:100EA000403ABDD2303211D351F8043B40F8043BF4
:100EB00051F8043B40F8043B51F8043B40F8043B34
:100EC00051F8043B40F8043B103AEDD20C3205D304
:100ED00051F8043B40F8043B043AF9D2043208D0FC
:100EE000D2071CBF11F8013B00F8013B01D30B886E
:100EF00003806046704700BF082A13D38B078DD04C
:100F000010F003038AD0C3F10403D21ADB071CBF1D
:100F100011F8013B00F8013B80D331F8023B20F887
:100F2000023B7BE7043AD9D3013A11F8013B00F8C0
:100F3000013BF9D20B7803704B7843708B78837048
:100F40006046704700000000000000000000000044
:100F500090F800F06DE9024520F007016FF0000CF9
:100F600010F0070491F820F040F049804FF00004A1
:100F70006FF00700D1E9002391F840F000F108007C
:100F800082FA4CF2A4FA8CF283FA4CF3A2FA8CF3B4
:100F90004BBBD1E9022382FA4CF200F10800A4FA1B
:100FA0008CF283FA4CF3A2FA8CF3E3B9D1E904236F
:100FB00082FA4CF200F10800A4FA8CF283FA4CF3A6
:100FC000A2FA8CF37BB9D1E9062301F1200182FA60
:100FD0004CF200F10800A4FA8CF283FA4CF3A2FA66
:100FE0008CF3002BC6D0002A04BF04301A4612BA74
:100FF000B2FA82F2FDE8024500EBD2007047D1E977
:10100000002304F00305C4F100004FEAC50514F005
:10101000040F91F840F00CFA05F562EA05021CBFD6
:1010200063EA050362464FF00004A9E700000000F0
:1010300001F0FF01102A2BDB10F0070F08D010F889
:10104000013B013A8B422DD010F0070F42B3F6D18D
:10105000F0B441EA012141EA014122F007047FF0A6
:1010600000070023F0E80256083C85EA010586EAFD
:10107000010685FA47F5A3FA87F586FA47F6A5FA39
:1010800087F68EB9EED1F0BC01F0FF0102F0070245
:1010900032B110F8013B013A83EA010313B1F8D1F0
:1010A0000020704701387047002D06BF35460338D1
:1010B000073815F0010F07D1013015F4807F02BF0A
:1010C000013015F4C03F0130F0BC0138704700BF5B
:1010D0004FF0FF3C06E000BF4FF0010C02E000BF04
:1010E0004FF0010C4DF804CD4FEA410C7FEA6C5CE7
:1010F0004FEA430C18BF7FEA6C5C1BD001B050EA8A
:10110000410C0CBF52EA430C91EA030F02BF90EA74
:10111000020F0020704710F1000F91EA030F58BF33
:10112000994208BF90422CBFD8176FEAE37040F095
:10113000010070474FEA410C7FEA6C5C02D150EA33
:10114000013C07D14FEA430C7FEA6C5CD6D152EAEE
:10115000033CD3D05DF8040B704700BF84461046B3
:1011600062468C461946634600E000BF01B5FFF7B2
:10117000B7FF002848BF10F1000F01BD4DF808ED82
:10118000FFF7F4FF0CBF012000205DF808FB00BF53
:101190004DF808EDFFF7EAFF34BF012000205DF8AD
:1011A00008FB00BF4DF808EDFFF7E0FF94BF0120FA
:1011B00000205DF808FB00BF4DF808EDFFF7CEFFFB
:1011C00094BF012000205DF808FB00BF4DF808ED3A
:1011D000FFF7C4FF34BF012000205DF808FB00BF0B
:1011E0004FEA410C7FEA6C5C02D150EA013C0AD123
:1011F0004FEA430C7FEA6C5C02D152EA033C02D115
:101200004FF0000070474FF00100704700000000F1
:1012100000B50D4B83B01B68019303F081FD01F015
:10122000A7FC01F0BDFA0949094804F079FE01F074
:10123000D7FB00F08DFD01F063F900F0B1F86420F8
:1012400002F0D6FAFBE700BF0008002004080020E7
:101250006C2F0020000000000000000000000000D3
:1012600000B5084B83B01A680192019A1B689A4234
:1012700005D1054803B05DF804EB01F0E1BCFFF7D0
:10128000EFFF00BF0008002050EB00080000000046
:1012900080B5234C234AA36923491668996186B017
:1012A000022320250A220021009305964FF4207383
:1012B000CDE9015530201D4E1D4F00F0C9FE00F054
:1012C000CFFD002000F004FEB04600F069FD13E001
:1012D00002F04EF901F074FD02F062FD2368A342B2
:1012E00007D0A2699B6892689A4202D2384601F000
:1012F000A7FC002383F3118800F02AFE00F090FD84
:1013000085F3118802F034FD01F03AFD01F008FE8A
:10131000B368002BDCDC404602F002FED8E700BFD9
:10132000382100200008002080EB00081008002071
:10133000A0EB00080000000000000000000000001A
:1013400070B5124C124D23682A6884B00646ADF879
:1013500006101B680F490392204605229847236810
:1013600002221B680DF10601204698472368BDF84C
:1013700006201B68314620469847039A2B689A42FC
:1013800001D104B070BDFFF76BFF00BF6C2F0020D0
:101390000008002070EB00080000000000000000C2
:1013A00030B50E4C0E4B22680E4885B000250392D6
:1013B00040F678114022009502F0C2F90A4B0095E0
:1013C00040220A484FF41E7102F0BAF9039A2368CA
:1013D0009A4201D105B030BDFFF742FF000800205E
:1013E000A1140008781400209112000800120020B7
:1013F00000B5D0ED005A90ED056A90ED0A5AD0ED97
:10140000016A90ED067AD0ED084A90ED043AD0EDED
:10141000093A90ED024A1E4B65EE867A26EE872A3F
:1014200067EE857A63EE232AFDEEE77A26EE046AFC
:10143000F8EEE77A66EE836AE2EE247A83B01A6801
:101440000192FDEEE77A019A1B68F8EEE77A27EE43
:10145000237AE2EE847A9A42FDEEE77AF8EEE77AB2
:10146000E4EEC67AFDEEE77AF8EEE77AE5EE667A24
:10147000FDEEE77AF8EEE77AE5EEC77A06D1FDEE03
:10148000E77A17EE900A03B05DF804FBFFF7E8FE79
:101490000008002000000000000000000000000024
:1014A00030B52DED048B5A4A5A4B92695A499161D5
:1014B000ADF5317D1B689FED598AAF934FF42072D3
:1014C00000210FA80AF074F95548564B5649574A5F
:1014D0000390B7EE009A049303A8554B8DED068A4E
:1014E0008DED0A8A8DED0B8A8DED0C8A8DED0D9AAE
:1014F0008DED0E9A0591099207930893FFF778FFF7
:10150000F0EE488AF0EE499AB0EE498AB0EE689A59
:1015100098B9F4EE698AF1EE10FAFAD0DDED0D7AA1
:10152000F4EE487AF1EE10FA61D103A88DED0D9A30
:101530008DED0C8AFFF75CFFEAE73E4C9FED3E9A8B
:10154000DFED3E8A9FED3E8ADFED3E9A0DF2BB2530
:10155000204602F0ADFC00F0D3FC0DF13B01013060
:1015600010E0B4EEE97AF1EE10FA3EDCFCEEC77A58
:10157000CDED017A9DF8043001F8013F8D4200F174
:1015800002002CD010F8012C037803EB02239BB24D
:10159000C3F3451207EE902ADA0A5200F8EEE77A12
:1015A00007EE102A67EE897AB8EEC77A03F01F03B8
:1015B000E7EE287A5B00B0EE677A07EE903AF8EE35
:1015C000E77AA7EE887AB5EEC07AF1EE10FAC8D5C0
:1015D000002301F8013F8D4200F10200D2D14FF407
:1015E00020710FA8FFF7ACFEB2E7FF23C4E7DDEDE3
:1015F0000C7AF4EE487AF1EE10FA8AD103A88DED58
:101600000C9A8DED0B8AF7EE008AFFF7F1FE7FE76B
:10161000382100200008002090EB000800000000A6
:1016200000004842000070410000884100009041E5
:101630000000A04110080020BD9471C0EE9ABE4089
:10164000CD241BC000007F4300000000000000000C
:1016500030B5104D81682B680F4A83B001930B6839
:1016600023F001030B608168946A03E0936A1B1BFB
:10167000C72B09D8086810F00100F7D1019A2B6830
:101680009A4204D103B030BD4FF0FF30F6E7FFF7C8
:10169000E7FD00BF00080020382100200000000006
:1016A00030B5184D83B02B68019311F00C0F044630
:1016B0000AD00378032B13D00622636822709A683D
:1016C0001AB100212046904763685B688BB101998D
:1016D0002A68914213D1204603B0BDE83040184734
:1016E000FFF7B6FF0622636822709A68002AE8D1E5
:1016F000EBE7019A2B689A4201D103B030BDFFF7A6
:10170000AFFD00BF00080020000000000000000046
:10171000F0B5284D83B02B68019302F0F1FA01F087
:10172000AFFB254B1E69F20715D55A69234C42F0D1
:1017300001025A612778BB1F012B2AD90522636851
:1017400022701B680BB120469847042F27D0022F28
:1017500025D003232370B30710D5174A174C5369BC
:1017600043F0020353612378032B1DD063689B6809
:101770000622227013B101211048984701F0A8FBFE
:10178000019A2B689A4213D103B0BDE8F04003F0F0
:1017900087BA019A2B689A420AD103B0F0BD02239E
:1017A0002370B307EAD5D8E72046FFF751FFDDE7FE
:1017B000FFF756FD0008002000000550F01D002036
:1017C00030B50B4D0B4C2B6883B02046019300F0D5
:1017D0002FF9019A2B680848084D094921619A425E
:1017E000C4E9025001D103B030BDFFF739FD00BF9D
:1017F00000080020F01D0020DCF500080000055066
:101800001655020200000000000000000000000069
:101810002DE9F0412F4C0578266882B0012D019604
:1018200006D0019A23689A4252D102B0BDE8F081F5
:10183000294DA842F5D10E4690461F46274AE86832
:101840002B460C2105F0D4FE002839D1D5E902320F
:10185000126828339360EB681A68042151611B6891
:10186000C3F80C80EB681A6817611B68B6085E60E5
:101870002B694FB343F480232B61E968184A096848
:101880000B60EB6819680B6843F001030B60536B46
:1018900043F0010353630B214E2005F089FBD5E98A
:1018A0000113DA6842F00102DA60DA6842F00202FB
:1018B000DA60CA6822F4804222F001021A60B0E7BE
:1018C000084801F0BDF9C1E723F480232B61D4E778
:1018D000FFF7C6FC00080020F01D0020A11600083C
:1018E00000380240B0EB00080000000000000000DB
:1018F00030B5184C0378226883B0022B019205D0D2
:10190000019A23689A4223D103B030BD124B98420A
:101910000546F5D18168114A0B6823F4804323F012
:1019200001030B608168CB6823F00F03CB60536B1E
:1019300023F0010353634E2005F062FB019A2368F4
:101940009A4205D1E86803B0BDE8304005F0B8BE62
:10195000FFF786FC00080020F01D00200038024040
:1019600000B50F4B0278196883B0022A01910ED19D
:1019700081680A6842F002020A6081680A6842F4DB
:1019800080420A6081680A6842F001020A60019A96
:101990001B689A4202D103B05DF804FBFFF760FCBC
:1019A000000800200000000000000000000000000F
:1019B00000B50F4B0278196883B0022A01910ED14D
:1019C00081680A6822F002020A6081680A6842F4AB
:1019D00080420A6081680A6842F001020A60019A46
:1019E0001B689A4202D103B05DF804FBFFF738FC94
:1019F00000080020000000000000000000000000BF
:101A000000B5074B83B01A680192019A1B689A428D
:101A100004D103B05DF804EBFFF7D2BEFFF720FC62
:101A2000000800200000000000000000000000008E
:101A300000B5084B83B01A68019201220270019A26
:101A40001B6800219A42416002D103B05DF804FB9B
:101A5000FFF706FC00080020000000000000000066
:101A60002DE9F043254D83B02C680194DDF82890D2
:101A70000F4616469846044618B111B1204B9A42BB
:101A80002FD9204801F0DCF8202383F3118802F0DD
:101A90006FF901F075F92378012B02D0194801F094
:101AA000CFF84246314620464B466760FFF7B0FE0E
:101AB0000223237001F084F902F072F9124B1A68C4
:101AC0009A4204D0996993688A689A420FD3002396
:101AD00083F31188019A2B689A420CD103B0BDE8B8
:101AE000F0839307CDD1B8F1000FCDD1C9E70748F6
:101AF00001F0A6F8EBE7FFF7B3FB00BF00080020FA
:101B0000FCFF0300E0EB000838210020D0EB0008C8
:101B100030B51C4D83B02B680193044658B3202385
:101B200083F3118802F024F901F02AF92378022BBB
:101B300002D0154801F084F82046FFF7D9FE0123B2
:101B4000237001F03DF902F02BF9104B1A689A420C
:101B500004D0996993688A689A4208D3002383F372
:101B60001188019A2B689A4209D103B030BD084808
:101B700001F066F8F2E7044801F062F8CFE7FFF7FA
:101B80006FFB00BF00080020F0EB000838210020A8
:101B9000D0EB000800000000000000000000000082
:101BA00030B51C4D83B02B680193044658B32023F5
:101BB00083F3118802F0DCF801F0E2F82378022BBD
:101BC00002D0154801F03CF82046FFF7C9FE042377
:101BD000237001F0F5F802F0E3F8104B1A689A420E
:101BE00004D0996993688A689A4208D3002383F3E2
:101BF0001188019A2B689A4209D103B030BD084878
:101C000001F01EF8F2E7044801F01AF8CFE7FFF7F9
:101C100027FB00BF0008002000EC0008382100204E
:101C2000D0EB0008000000000000000000000000F1
:101C300030B51C4D83B02B680193044658B3202364
:101C400083F3118802F094F801F09AF82378022BBC
:101C500002D0154800F0F4FF2046FFF7A9FE032349
:101C6000237001F0ADF802F09BF8104B1A689A420D
:101C700004D0996993688A689A4208D3002383F351
:101C80001188019A2B689A4209D103B030BD0848E7
:101C900000F0D6FFF2E7044800F0D2FFCFE7FFF7ED
:101CA000DFFA00BF0008002020EC000838210020E7
:101CB000D0EB000800000000000000000000000061
:101CC00000B5064B83B01A680192019A1B689A42CC
:101CD00002D103B05DF804FBFFF7C2FA0008002050
:101CE00000B5064B83B01A680192019A1B689A42AC
:101CF00002D103B05DF804FBFFF7B2FA0008002040
:101D000010B5104C104B226882B0019201221A705B
:101D1000202383F3118802F05BF801F071F80B487F
:101D200002F05EFB01F08CF802F06AF8002383F306
:101D30001188019A23689A4201D102B010BDFFF7C1
:101D40008FFA00BF00080020101E00201C08002091
:101D500030B50E4D0E4C2B6883B00193FFF750FE4B
:101D6000206808B109F05CFA4FF4964009F050FA87
:101D700001992A682060B0FA80F35B099142C3F1AF
:101D8000000001D103B030BDFFF76AFA000800205F
:101D9000081E0020000000000000000000000000FD
:101DA00030B5174D174C2B78226885B0012B039264
:101DB00020D000F0D5FB144B1B78ABB9B0F5964F93
:101DC00015D8124A124B12681B681249009202463B
:101DD0001148FFF745FE01232B700020039A23686A
:101DE0009A420BD105B030BDB0F5165FE9D94FF07E
:101DF000FF30F3E70848FFF78BFEDAE7FFF730FA2A
:101E0000051E002000080020061E00200C1E0020D9
:101E1000081E002030EC0008F01D0020000000002B
:101E200010B50B4C0B48236882B0019302F0A0F967
:101E3000094802F045FB019A23689A4205D10548FA
:101E400002B0BDE8104002F0CBB9FFF709FA00BFBD
:101E500000080020240800201C08002000000000CA
:101E600030B5154D154C164B2268286883B0019289
:101E700001221A7008B109F0D3F94FF4165009F095
:101E8000C7F9286098B10F4D286808B109F0C8F962
:101E90004FF4165009F0BCF9B0FA80F35B092860E2
:101EA0005842019A23689A4204D103B030BD4FF0E2
:101EB000FF30F6E7FFF7D4F9081E002000080020E5
:101EC000061E00200C1E0020000000000000000084
:101ED00000B5074B07491A68087083B00192019A50
:101EE0001B689A4202D103B05DF804FBFFF7B8F912
:101EF00000080020041E0020000000000000000078
:101F000000B50D4A0D4B1278196883B0019142B1AA
:101F10000B4AD26812681268120302D4094A106888
:101F200001E0094A1068019A1B689A4202D103B085
:101F30005DF804FBFFF794F9061E0020000800205E
:101F4000F01D00200C1E0020081E002000000000D4
:101F500000B50E4A0E4B1278196883B001914AB150
:101F6000019A1B689A420FD10A4803B05DF804EB4E
:101F7000FFF75EBE019A1B689A4205D1054803B07F
:101F80005DF804EBFFF70CBEFFF76AF9041E0020B2
:101F900000080020F01D00200000000000000000EC
:101FA00070B5274D82B02B680193064601220321AC
:101FB0006E2000F04DFB044630B1019A2B689A4226
:101FC00020463AD102B070BD32464E216E2000F05C
:101FD0003FFB04460028F0D1442E07D00246B7212B
:101FE0006E2000F035FBB8B10446E6E70122B721C8
:101FF0006E2000F02DFB0028F6D1224603216E2032
:1020000000F026FB0028EFD1032211216E2000F002
:102010001FFB78B10446D0E7224603216E2000F072
:1020200017FB0028E0D10A2211216E2000F010FBDE
:102030000028D9D1034B1E71BFE7FFF711F900BF8C
:1020400000080020141E0020000000000000000016
:102050002DE9F04F8FB0DFF80084DDF860C0D8F8CC
:1020600000400D940CF1FF355C1EB3F5207F9DF808
:1020700064909DF868B00C44154400F21282BCF5DF
:10208000F07F00F20E82B1F5207F0E4600F2128240
:10209000B2F5F07F174600F21082A14280F0048270
:1020A000B4F5207F00F20082AA4280F00082B5F5EC
:1020B000F07F00F2FC81B9F1400F824600F0B08160
:1020C000B9F1800F23D0B9F1200F00F09C810023DB
:1020D000CDE90033BBF1400F2FD0BBF1800F00F0F2
:1020E000CB81BBF1200F00F0B9810023CDE9023391
:1020F000002203216E2000F0ABFAA0B30D9AD8F8AD
:1021000000309A4240F0E2810FB0BDE8F08F9A07AC
:1021100040F0D681CC4A8C085900661CA2FB010114
:10212000A2FB030204EB930406EBD2030093BBF182
:10213000400F06EBD1030193CFD11CF0010F40F00B
:10214000C281C14B7D084FEA4C026F1CA3FB0212F7
:10215000A3FB0C1307EB9303029307EB920305EB2E
:102160005C050393C4E702465B216E2000F070FA21
:102170000028C3D15046FFF713FF0028BED1024606
:1021800003216E2000F064FA0028B7D1C6F30723BC
:102190001A4608216E20049300F05AFA0028ADD1A7
:1021A000F3B21A4609216E20059300F051FA002877
:1021B000A4D1C7F307231A460A216E20069300F024
:1021C00047FA00289AD1FBB21A460B216E200793DA
:1021D00000F03EFA002891D1C4F307231A460C21DF
:1021E0006E20089300F034FA002887D1E3B21A4633
:1021F0000D216E20099300F02BFA00287FF47EAFAA
:10220000C5F307231A460E216E200A9300F020FA28
:1022100000287FF473AFEBB21A460F216E200B93A8
:1022200000F016FA00287FF469AF049A35216E2079
:1022300000F00EFA00287FF461AF059A36216E2077
:1022400000F006FA00287FF459AF089A37216E2073
:1022500000F0FEF900287FF451AF099A38216E2072
:1022600000F0F6F900287FF449AF069A39216E2074
:1022700000F0EEF900287FF441AF079A3A216E2072
:1022800000F0E6F900287FF439AF0A9A3B216E206E
:1022900000F0DEF900287FF431AF0B9A3C216E206C
:1022A00000F0D6F900287FF429AF009B3D21C3F34D
:1022B00007226E2000F0CCF900287FF41FAF9DF8B4
:1022C00000203E216E2000F0C3F900287FF416AFF5
:1022D000019B3F21C3F307226E2000F0B9F90028CB
:1022E0007FF40CAF9DF8042040216E2000F0B0F97F
:1022F00000287FF403AF029B4121C3F307226E2025
:1023000000F0A6F900287FF4F9AE9DF808204221DC
:102310006E2000F09DF900287FF4F0AE039B43216E
:10232000C3F307226E2000F093F900287FF4E6AE95
:102330009DF80C2044216E2000F08AF900287FF4DB
:10234000DDAE012203216E2000F082F900287FF427
:10235000D5AE4A4693216E2000F07AF900287FF42A
:10236000CDAE5A4694216E2000F072F900287FF419
:10237000C5AE012203216E2000F06AF900287FF427
:10238000BDAE0134A31B07EE103ADFED307AB8EE94
:10239000477ABAF1440F77EEC77A00F09980B0EE31
:1023A000006AF2EE006AE7EE066A77EEA77AB0EE10
:1023B000667A67EE877ADFED266A87EEA67AFCEE0C
:1023C000C77ACDED007A009B9521C3F307226E20DA
:1023D00000F03EF900287FF491AE9DF80020962190
:1023E0006E2000F035F900287FF488AE194B0135D6
:1023F000EF1BA41B5F801C8083F804A083F805906A
:1024000083F806B07AE610495A00A1FB030306EBF5
:102410005303A1FB0212009306EB5203019359E60A
:10242000D9074DD4084A74085900661CA2FB010163
:10243000A2FB030204EB530406EB9203009306EBAA
:102440009103019346E600BFABAAAAAA000022446A
:102450000000A344141E002000080020244A4FEA74
:102460004C03A2FB0C1CA2FB032307EB530307EB5B
:102470005C02029203933BE61CF0030F23D11C4B3A
:10248000BD084FEA4C026F1CA3FB0212A3FB0C1306
:1024900007EBD303029307EBD20305EB9C050393F1
:1024A00026E66FF0070029E66FF0030026E66FF0DE
:1024B000040023E66FF0010020E66FF002001DE645
:1024C0006FF005001AE66FF0060017E6FEF7C8FE8B
:1024D000F2EE006A37EE267ADFED066A67EE277ABB
:1024E00087EEA67AFCEEC77ACDED007A6BE700BFE7
:1024F000ABAAAAAA000024440000000000000000CB
:1025000010B5114C86B02368059300F081F80F498F
:102510000F4802F0DDFF012200210D4803F028F8EA
:1025200020237822CDE901330092A023B422F021A8
:102530000220FFF78DFD059A23689A4201D106B06B
:1025400010BDFEF78DFE00BF0008002040EC000823
:10255000502F0020000000000000000000000000DC
:1025600010B50A4B0A4A1988146858881B7982B03A
:10257000442B019400FB01F00199136818BF40003F
:10258000994201D102B010BDFEF76AFE141E002070
:102590000008002000000000000000000000000013
:1025A00070B5164E16483368154D82B005224FF4AB
:1025B0008071019306F0CCFC20246B6983F4807356
:1025C0006B61012001F014F9631E13F0FF04F4D1D4
:1025D0004FF4807140F206222983094806F0B8FCC6
:1025E000019A33689A4206D10649074802B0BDE80D
:1025F000704002F0B5BDFEF733FE00BF00080020BA
:102600000004024080EC0008B82B0020000000000D
:1026100000B50C4A0C4B1278196883B0012A01915D
:10262000019A1B6804D09A4209D103B05DF804FBFB
:102630009A4204D103B05DF804EBFFF7B1BFFEF797
:102640000FFE00BFB82B0020000800200000000093
:10265000F0B5214C214E89B0336807930746002519
:1026600020468DF818108DF819208DF8145002F0BE
:102670008FFE2378012B0CD0042205AB019502922A
:1026800000933946022306AA204602F011FE0546B1
:1026900048B9114802F09CFE0020079A33689A421C
:1026A00017D109B0F0BD204602F0EAFD23780C4AAC
:1026B000052B106004D0084802F08AFE68B2ECE7EF
:1026C000204602F095FD2378012BF4D1FFF768FF37
:1026D000F1E7FEF7C5FD00BFB82B00200008002081
:1026E0001C1E002000000000000000000000000090
:1026F0002DE9F043254E83B034680194042A9DF8F7
:102700002890144605460F46984639D9B9F1000F6E
:1027100014BF00224FF08052640002EB0863013CBA
:102720001C4405F00F0527F01F07202383F31188B1
:1027300001F01EFB3D4300F023FB154B1035DD601F
:102740001C6100F03DFB01F02BFB124B1A689A4212
:1027500004D0996993688A689A420DD3002383F361
:102760001188BFF36F8FBFF34F8F019A33689A427E
:102770000AD103B0BDE8F083074800F061FAEDE745
:10278000064800F05DFAC1E7FEF76AFD0008002088
:1027900090ED00E03821002010ED0008F0EC00087A
:1027A00030B5224D224C2B68224A85B003936368D2
:1027B00043F004036360536A43F48033536220237D
:1027C00083F3118801F0D4FA00F0DAFA17221A4BD9
:1027D000E260236100F0F4FA01F0E2FA174B1A68A4
:1027E0009A4204D0996993688A689A4218D3002063
:1027F00080F31188BFF36F8FBFF34F8F03231D2228
:1028000000904FF00051FFF773FF094A536843F0FF
:1028100001035360039A2B689A4205D105B030BD7D
:10282000074800F00DFAE2E7FEF71AFD0008002065
:1028300090ED00E000ED00E00900001038210020DC
:1028400010ED000800000000000000000000000083
:1028500070B51A4D1A4C1B4E0FCD0FC49EB02A688E
:10286000336822801D93EFF30981682203A8FEF7E5
:10287000CFFA154B9D6AAA0714D4EB0708D5124B63
:1028800008995B6B114A00910D48802108F0E0FF28
:102890001D9A33689A420FD109481EB0BDE87040B6
:1028A00000F0CEB9099A5B6B0092A4F11000084ABF
:1028B000802108F0CDFFE0E7FEF7D2FCD4EC000861
:1028C000201E00200008002000ED00E0B0EC000811
:1028D00090EC000800000000000000000000000074
:1028E0000A490B4B09680B4A82B020200191402114
:1028F00058834FF4806559834FF400644FF480404F
:1029000004215D835C8358835183FEE70008002027
:10291000000C024000040240000000000000000023
:1029200000B50F4B83B01868019002290CD0032921
:102930000CD001290B4818BF0020019A1B689A424D
:102940000BD103B05DF804FB0748F6E7032A96BFF6
:102950000648002000EBC200EFE7FEF781FC00BF55
:102960000008002000EE0008A0ED0008B0EE00080E
:1029700070B5154C82B02368019302291CD10D4615
:102980000646202383F3118801F022FA00F038FA7A
:1029900030460E4A012103F063FF29460C4A3046B7
:1029A00003F05EFF0B4803F05BFD00F049FA01F015
:1029B00027FA002383F31188019A23689A4201D1F0
:1029C00002B070BDFEF74CFC0008002020ED0008AE
:1029D00050ED0008A01E00200000000000000000D4
:1029E00030B5134D134C2B68134883B0019303F09B
:1029F000AFFC1249104803F0DBFC226D936B23F40B
:102A0000002393634FF47A7000F0F2FE20460C49E5
:102A100003F0D6FE226D936B43F400239363019A77
:102A20002B689A4201D103B030BDFEF719FC00BFFC
:102A300000080020F82B0020A01E002080ED0008D8
:102A400090ED000800000000000000000000000001
:102A500000B5084B83B01A680192019A1B689A422C
:102A600005D1054803B05DF804EB01F081BBFEF72A
:102A7000F7FB00BF0008002038080020000000001D
:102A800000B5084B83B01A680192019A1B689A42FC
:102A900005D1054803B05DF804EB01F0A1BBFEF7DA
:102AA000DFFB00BF00080020380800200000000005
:102AB00070B50D4C82B0236801930D1E06460DDDE6
:102AC000284602F065F818B90C2333604FF0FF3048
:102AD000019A23689A4205D102B070BD034800F004
:102AE000AFF8EDE7FEF7BCFB00080020D0EE0008D1
:102AF00000B5064B83B01A680192019A1B689A428E
:102B000002D103B05DF804FBFEF7AAFB0008002029
:102B100000B5064B83B01A680192019A1B689A426D
:102B200002D103B05DF804FBFEF79AFB0008002019
:102B3000024B82B01B680193FEE700BF0008002033
:102B400000B5044B04481B6883B0019300F078F88B
:102B5000FEE700BF00080020E0EE000800000000D3
:102B6000024B82B01B680193FEE700BF0008002003
:102B7000F0B5294E294B3268294885B000240392CC
:102B80009C60D968274A4FF6FF0529400A43DA605E
:102B9000C2682549254D42F08072C2600A6842F041
:102BA00001020A6010202022D87783F8222000F04A
:102BB000DFFA00F045FA01F02BF801F0C1FF02F056
:102BC0002FF801F07DF800F0FBF9402105F5886051
:102BD00000F01EFD0127164BC36180F82070A8612C
:102BE00000F0A6F884F3118862B6AB69114A9A61C5
:102BF0004FF4C4713A46104B009405F59D6000F007
:102C00009FFD039A33680D4981619A4201D105B055
:102C1000F0BDFEF725FB00BF0008002000ED00E03E
:102C2000F0ED00E00003FA05001000E0382100207C
:102C30000004002080F00008612B000800EF00086D
:102C400000B5054B83B01B680193044672B6FFF7CD
:102C500047FE024BDC62FEE700080020382100201E
:102C60002DE9F047DFF890A0224DDAF8003082B06D
:102C7000019300F055F9AB6993F8232012B1013AA2
:102C800083F823205A6ADFF8748001325A6200F018
:102C900047F9AB6AEA6901334245AB6220D09368D9
:102CA000013B9360EC69A668D6B94FF02009236810
:102CB000E768E660C3F804802368EB6100F0C0F8C1
:102CC00001F09EF886F311882069B84789F31188CE
:102CD00001F07EF800F094F8EC69A368002BE6D0D0
:102CE000019ADAF800309A4202D102B0BDE8F087CA
:102CF000FEF7B6FA382100200008002054210020F9
:102D000010B5094C094A236882B001935168536891
:102D10005B1A9842FBD8019A23689A4201D102B00B
:102D200010BDFEF79DFA00BF00080020001000E073
:102D300000B50E4A0E4B116B186883B0019009B9AB
:102D4000526B4AB1019A1B689A420CD1094803B0F0
:102D50005DF804EBFFF774BF019A1B689A4202D139
:102D600003B05DF804FBFEF77BFA00BF38210020BA
:102D70000008002010EF0008000000000000000024
:102D800030B50B4C0B4D236B2A6883B001920BB905
:102D9000636B13B10848FFF753FF019A2B680121B9
:102DA0009A42616301D103B030BDFEF759FA00BF0A
:102DB000382100200008002040EF0008000000003B
:102DC00030B50C4C0C4D236B2A6883B0019253B97B
:102DD000636B002B07DD019A2B6800219A42616327
:102DE00005D103B030BD0548FFF72AFFF3E7FEF732
:102DF00037FA00BF382100200008002060EF0008EB
:102E000030B50B4C0B4D236B2A6883B0002B01921D
:102E100001DD636B13B10848FFF712FF019A2B68BD
:102E200001219A42616301D103B030BDFEF718FA67
:102E3000382100200008002050EF000800000000AA
:102E400030B50C4C0C4D236B2A6883B0002B0192DB
:102E50000ADD636B002B07DD019A2B6800219A4283
:102E6000616305D103B030BD0448FFF7E9FEF3E725
:102E7000FEF7F6F9382100200008002070EF000866
:102E800030B50F4D83B02B680193202383F3118855
:102E90000C4C236B002B01DB626B1AB10A48FFF765
:102EA000CFFE236B01332363002383F31188019A40
:102EB0002B689A4201D103B030BDFEF7D1F900BFB3
:102EC000000800203821002020EF0008000000004A
:102ED00030B50F4D83B02B680193202383F3118805
:102EE0000C4C236B002B01DD626B1AB10A48FFF713
:102EF000A7FE236B013B2363002383F31188019A10
:102F00002B689A4201D103B030BDFEF7A9F900BF8A
:102F1000000800203821002030EF000800000000E9
:102F200000B50F4A0F4B116B186883B00029019050
:102F300009DB526B002A06DD019A1B689A420CD10C
:102F400003B05DF804FB019A1B689A4205D106485C
:102F500003B05DF804EBFFF773BEFEF781F900BF25
:102F6000382100200008002080EF00080000000049
:102F700000B50E4A0E4B116B186883B0019049B929
:102F8000526B002A06DD019A1B689A420CD103B0ED
:102F90005DF804FB019A1B689A4205D1054803B00D
:102FA0005DF804EBFFF74CBEFEF75AF9382100201C
:102FB0000008002090EF0008000000000000000062
:102FC00010B5084A084B116882B04024019101995C
:102FD000126818199142C3E90E4001D102B010BD28
:102FE000FEF73EF900080020382100200000000014
:102FF00010B51149114B0A6882B00192DA6B9C6AD4
:103000001460DA6B9C695460DA6B846A9460DA6BE2
:1030100090F820001073DA6B03F58860103282425A
:1030200028BF03F14002DA63019A0B689A4201D18A
:1030300002B010BDFEF714F900080020382100206E
:1030400010B50B4A0B4B116882B04FF0FF34019161
:1030500000219962019811685C6203F11C028842A8
:10306000C3E9072201D102B010BDFEF7F9F800BF95
:1030700000080020382100200000000000000000AF
:103080002DE9F041184E82B00546306801900C469B
:1030900017469846FFF744FF05B3FFB1F4B1C5E901
:1030A00003781248C3699A68944204D91B68A41A29
:1030B0009A68A242FAD32B605A686A6015605D6014
:1030C000AC609968019D3268091B95424FF0FF344E
:1030D0009960446206D102B0BDE8F0810448FFF770
:1030E000AFFDDCE7FEF7BCF8000800203821002027
:1030F000A0EF000800000000000000000000000039
:1031000030B5164D83B004462B680193FFF708FFD6
:10311000ECB1E368BBB12268A068936801990344ED
:103120009360D4E900231A6020682B680C4A656814
:10313000456099424FF000054FF0FF30E560506266
:1031400009D103B030BD0748FFF77AFDE3E7054832
:10315000FFF776FDDDE7FEF783F800BF00080020EB
:1031600038210020B0EF000800000000000000003F
:1031700000B50A4A0A4B11681B6083B00020019118
:10318000019912685B609142C3E90433986002D1EF
:1031900003B05DF804FBFEF763F800BF00080020F1
:1031A00038210020000000000000000000000000A6
:1031B00030B5164D83B004462B680193FFF7B0FE7F
:1031C000ECB194F82030B3B10F2B14D00022A168D9
:1031D0000F4B84F820201B689A688A42FBD2236038
:1031E0005A686260146001992A685C6091422046C6
:1031F00009D103B030BD0748FFF722FDE6E70548D7
:10320000FFF71EFDDDE7FEF72BF800BF00080020EA
:1032100038210020C0EF000800000000000000007E
:1032200070B5204D82B02B6801930446202383F3B0
:10323000118800F0CDFDFFF7E3FD94F82030072B57
:1032400011D8DFE803F0161010230A04100AA66A4A
:10325000FFF766FEB3680133B360D4E900231A6058
:10326000D4E900325A604FF0FF33A3622046FFF7E3
:103270009FFFFFF7E5FD00F0C3FD002383F31188F6
:10328000019A2B689A420BD102B070BDA36A00224A
:103290001A604FF0FF33A3622046FFF789FFE8E78B
:1032A000FDF7DEFF00080020000000000000000025
:1032B000F0B5194E194C336883B007460193FFF7F8
:1032C00057FEA569236885F82070142285F823200D
:1032D0001A68226001215460284683F82010A361F7
:1032E000FFF786FE2946A06900F022FDEFF309836F
:1032F000EA69643B9A4202D90948FFF7A1FC019AA6
:1033000033689A4206D1A069294603B0BDE8F0406F
:10331000FCF7CEBFFDF7A4FF0008002038210020F5
:10332000D0EF0008000000000000000000000000D6
:10333000F0B5154C87B0236805930E460746FFF796
:1033400017FE731C18D0114D114AAB6931466846FF
:10335000FFF796FE3846FFF7ABFFFFF7E1FD039B53
:1033600013B16846FFF7CCFE059A2368A9699A4213
:10337000886A06D107B0F0BD3846FFF799FF034DC4
:10338000F2E7FDF76DFF00BF0008002038210020A4
:1033900021320008000000000000000000000000D2
:1033A000F0B51E4D1E4E2B6883B0044601930F46A8
:1033B000FFF7DEFDB069A7628368A2689A421DD953
:1033C000FFF7F6FE0123074684F82030B461FFF7CB
:1033D0000FFE3946204600F0ABFCEFF30983FA6993
:1033E000643B9A4214D8019A2B689A4214D1394608
:1033F000204603B0BDE8F040FCF75ABF019A2B68A5
:103400009A4209D1204603B0BDE8F040FFF7D0BE94
:103410000448FFF715FCE6E7FDF722FF000800204F
:1034200038210020D0EF000800000000000000005C
:1034300010B50E490E4B8A69086892F823101C6873
:103440008068926882B0019449B9904234BF0020EC
:103450000120019A1B689A4206D102B010BD904229
:1034600094BF00200120F4E7FDF7FAFE3821002088
:103470000008002000000000000000000000000024
:1034800070B5184C184E2368A5691A6822605460FC
:10349000012283F8202082B01422316885F823208D
:1034A0002846A3610191FFF783FE2846FFF7A0FDA0
:1034B0002946A06900F03CFCEFF30983EA69643B0C
:1034C0009A4202D90948FFF7BBFB019A33689A4236
:1034D00006D1A069294602B0BDE87040FCF7E8BEFD
:1034E000FDF7BEFE3821002000080020D0EF0008C4
:1034F00070B51C4D1C4E2A68AC6913682B60012105
:1035000082B05D60002082F82010AA613268A16854
:1035100084F82000019200E01B689A688A42FBD878
:1035200023605A686260204614605C60FFF760FDAB
:103530002146A86900F0FCFBEFF30983E269643BD4
:103540009A4202D90948FFF77BFB019A33689A42F5
:1035500006D1A869214602B0BDE87040FCF7A8BEBC
:10356000FDF77EFE3821002000080020D0EF000883
:1035700010B50F4C82B023680193FFF7F9FCFFF7F9
:10358000CFFC0C4B1A689B6992689B689A42019A1F
:10359000236803D89A4208D102B010BD9A4204D1E0
:1035A00002B0BDE81040FFF7A3BFFDF759FE00BF12
:1035B000000800203821002000000000000000006A
:1035C00000B50E4A0E4B9269196892F8232083B019
:1035D000019142B1019A1B689A420DD103B05DF886
:1035E00004EBFFF785BF019A1B689A4204D103B030
:1035F0005DF804EBFFF744BFFDF732FE38210020F1
:103600000008002000000000000000000000000092
:10361000F0B51A4A1A4D02610446816083B0142342
:1036200050692E68616484F8233002270023012149
:10363000278484F82210C4E90F3304F16801A361E0
:10364000019604F12C07636204F1500604F1300383
:1036500060610461C4E90C33E1613046E7625461A2
:1036600000F06EFA304600F08BFA019A2B689A420D
:1036700002D1204603B0F0BDFDF7F2FD3821002055
:103680000008002000000000000000000000000012
:1036900010B5094B82B01C680194884203D200F82F
:1036A000012B8142FBD1019A1B689A4201D102B0E1
:1036B00010BDFDF7D5FD00BF000800200000000090
:1036C0002DE9F043184E83B0346801940546DDF8C7
:1036D00028900C4617469846FFF722FC15B1B4F522
:1036E000BC7F19D21148FFF7ABFAA4F16401294459
:1036F000E960C1F84080EB68019AC3F844903368F0
:10370000E9680B4808669A420CD13946284603B04E
:10371000BDE8F043FFF77CBF7F2FE3D8B8F1000F7F
:10372000E3D1DFE7FDF79CFD0008002020F0000852
:10373000C9020008000000000000000000000000B6
:103740002DE9F04FDFF8A48087B0D8F80040DDF80D
:103750004090059407468A46934600F16806044661
:10376000FF2504F8015BA642FBD107EB0A05A54241
:1037700004D9552604F8016BA542FBD103932022FE
:1037800082F3118800F0F4FAFFF7FAFA039BCDF800
:1037900000905A4651463846FFF792FF00210446F2
:1037A000FFF7FEFDFFF70CFB00F0FAFA0D4B1A686D
:1037B0009A4204D0996993688A689A420BD300238D
:1037C00083F31188059AD8F800309A42204606D132
:1037D00007B0BDE8F08F0448FFF732FAEFE7FDF7D6
:1037E0003FFD00BF38210020E0EF00080008002066
:1037F00030B5184C83B0236801930546202383F32A
:10380000118800F0B5FAFFF7BBFA15B91248FFF7B7
:1038100017FA29460820FFF78BFDFFF7D1FA00F0D1
:10382000BFFA0E4B1A689A4204D0996993688A6865
:103830009A4208D3002383F31188019A23689A429D
:1038400005D103B030BD0648FFF7FAF9F2E7FDF7FE
:1038500007FD00BF00080020F0EF0008382100201D
:10386000E0EF000800000000000000000000000081
:1038700070B5164B164E9C693268E36AA06282B03E
:1038800004F12C05AB42019207D01A68E262184697
:10389000FFF78EFCE36AAB42F7D194F821309B0727
:1038A00005D1D4E904231A61D4E904325A610F2006
:1038B000FFF7FEFC019A33689A4205D1054802B031
:1038C000BDE87040FFF7BCB9FDF7CAFC3821002005
:1038D0000008002030F00008000000000000000098
:1038E00030B50C4C83B0236801930546202383F345
:1038F000118800F03DFAFFF743FA019A23689A42D3
:1039000005D1284603B0BDE83040FFF7B1BFFDF751
:10391000A7FC00BF0008002000000000000000001D
:10392000F0B50D4D0D4E03682A68B76983B00446A3
:10393000019213B10A48FFF783F927600320BC62A4
:10394000FFF7B6FC019A2B68B1699A42886A01D1E7
:1039500003B0F0BDFDF784FC0008002038210020F2
:1039600040F000080000000000000000000000001F
:10397000F0B5124D0368124A83B0044628680190DE
:103980000E46976913B10F48FFF75AF966B12760E1
:10399000019A2B68BC629A420ED13146032003B0D3
:1039A000BDE8F040FFF7C4BC019A2B689A424FF083
:1039B000FF3001D103B0F0BDFDF752FC000800203C
:1039C0003821002050F00008000000000000000036
:1039D000F0B5124D04682B6883B00193B4B194F82C
:1039E0002030032B06460F460CD100233360019A8A
:1039F0002B68A7629A420FD1204603B0BDE8F04081
:103A0000FFF7D6BB0648FFF71BF9EEE7019A2B68D4
:103A10009A4201D103B0F0BDFDF722FC000800205E
:103A200070F000080000000000000000000000002E
:103A300030B5104A83B01368019381B10E4B019DDC
:103A40009B69186044685C6023601268436095421B
:103A50000DD1042003B0BDE83040FFF769BC0199E7
:103A6000136899424FF0FF3001D103B030BDFDF72C
:103A7000F7FB00BF000800203821002000000000F4
:103A800070B5124D04682B6882B0A042019315D026
:103A900023680360586094F82030042B0E4602D04F
:103AA0000B48FFF7CDF8019A2B68A6629A420BD11A
:103AB000204602B0BDE87040FFF77ABB019A2B6840
:103AC0009A4201D102B070BDFDF7CAFB0008002088
:103AD00000F00008000000000000000000000000EE
:103AE0002DE9F041DFF850800468D8F8003082B04A
:103AF000A042019313D00F4F05460E4623682B605A
:103B00005D6094F82030042B02D03846FFF798F817
:103B1000A6622046FFF74CFB2C68A542EED1019A25
:103B2000D8F800309A4202D102B0BDE8F081FDF72A
:103B300097FB00BF00F00008000800200000000014
:103B400030B50B4B83B01A6801924FF0FF32026020
:103B500001991A680024002300259142C0E9044518
:103B6000C0E90133C36001D103B030BDFDF778FB7C
:103B7000000800200000000000000000000000001D
:103B800000B5084B084A196883B001915168019A41
:103B90001B6881609A4202D103B05DF804FBFDF717
:103BA0005FFB00BF00080020001000E000000000E4
:103BB000F0B51449144B0A68846883B00192134A23
:103BC0005B68D2F8A864C2681B1BD0E904450132C7
:103BD0009B1BC26042688360E61845F10007934270
:103BE000C0E9046709D80268934238BF0360019AAC
:103BF0000B689A4203D103B0F0BD4360F7E7FDF7CD
:103C00002FFB00BF00080020001000E0382100203A
:103C100030B5114D114C2B6889B04FF0FF3107932F
:103C2000002300226846C4F8A834CDE90133039389
:103C30000023CDE904230091FFF7A2FF6846FFF7B8
:103C4000B7FF079A2B680299C4F8A8149A4201D1C9
:103C500009B030BDFDF704FB00080020382100202A
:103C60002DE97048134E144B326883B001925B68A3
:103C70008B60D0E902411B1BD0E90445426814EB7C
:103C8000030B45F1000C01319342C0E90231C0E958
:103C900004BC0AD80268934238BF0360019A3368B3
:103CA0009A4204D103B0BDE870884360F6E7FDF79F
:103CB000D7FA00BF00080020001000E0000000005C
:103CC00030B50D4D0D4C2B6883B004F59760019312
:103CD0000023C4F8B034C4F8B434FFF731FF019ABC
:103CE0002B689A4206D104F59A6003B0BDE83040D3
:103CF000FFF726BFFDF7B4FA0008002038210020A6
:103D000000B50949094A0B6883B001930198D2F8BC
:103D1000B034096801338842C2F8B03402D103B02C
:103D20005DF804FBFDF79CFA000800203821002014
:103D300070B50D4C0D4A236882B00193019DD2F8F5
:103D4000B43424680133A542C2F8B43409D10E4614
:103D500000F1500106F1500002B0BDE87040FFF7DD
:103D60007FBFFDF77DFA00BF00080020382100204A
:103D700000B5084B83B01A680192019A1B689A42F9
:103D800005D1054803B05DF804EBFFF7F9BEFDF778
:103D900067FA00BF00080020F025002000000000A6
:103DA00000B5084B83B01A680192019A1B689A42C9
:103DB00005D1054803B05DF804EBFFF7F9BEFDF748
:103DC0004FFA00BF00080020F0250020000000008E
:103DD00000B5084B83B01A680192019A1B689A4299
:103DE00005D1054803B05DF804EBFFF7C9BEFDF748
:103DF00037FA00BF0008002008260020000000005D
:103E000000B5084B83B01A680192019A1B689A4268
:103E100005D1054803B05DF804EBFFF7C9BEFDF717
:103E20001FFA00BF00080020082600200000000044
:103E300070B51B4D82B004462B680193FFF798F8CC
:103E400044B3A3682268002B10DBA24203D01548BC
:103E5000FEF7F6FEA368013B002BA3600CDB0020FD
:103E6000019A2B689A4219D102B070BDA242EED0DD
:103E7000013B002BA360F2DA0B4EB3699C621C601D
:103E800062685A60052013606360FFF711FAB36936
:103E9000986AE5E70348FEF7D3FED2E7FDF7E0F9BD
:103EA00000080020B0F000083821002000000000C9
:103EB00030B5164C83B0236801930546202383F365
:103EC0001188FFF755FFFEF75BFF2846FFF7B0FFAD
:103ED0000546FEF775FFFFF763FF0D4B1A689A4220
:103EE00004D0996993688A689A4209D3002383F3BE
:103EF0001188019A23689A42284605D103B030BD43
:103F00000448FEF79DFEF1E7FDF7AAF9000800203E
:103F100038210020A0F00008000000000000000090
:103F200030B51C4D83B004462B680193FEF7F8FFB3
:103F30004CB3A3682268002B0FDBA24203D01648C3
:103F4000FEF77EFEA3680133002BA3600BDD019A10
:103F50002B689A421BD103B030BDA242EFD001338F
:103F6000002BA360F3DC20680199036823602A68B2
:103F70005C6091424FF00003836208D103B0BDE85A
:103F80003040FFF715B90448FEF75AFED1E7FDF7B8
:103F900067F900BF00080020C0F000080000000022
:103FA00030B50B4D83B02B680193044650B12460AB
:103FB00001992A68646000239142A360236105D1BE
:103FC00003B030BD0348FEF73BFEF0E7FDF748F9CC
:103FD00000080020E0F000080000000000000000E1
:103FE000F0B55D4E5D4B32689D6983B00446019229
:103FF000FEF7BEFF002C00F08480A0682369002833
:1040000043D0002B40F39780854276D0AA6883681E
:104010009A4208D990F820308260062B40D0072BB6
:1040200073D0002B5DD02746234603E09968AA6829
:10403000914233D31B689C42F8D12F607B686B6040
:1040400006201D607D60AC62FFF732F9A368AB42C9
:1040500002D04348FEF7F4FD2B6CA34202D0404847
:10406000FEF7EEFD2369012B05D1019A33689A42D0
:104070006FD103B0F0BD019A33689A4269D13848D4
:1040800003B0BDE8F040FEF7DBBD002B58D1013393
:10409000A56023612B6CE3602C64E6E71F46CCE748
:1040A000D0E900231A60D0E900325A60876A3B46A3
:1040B00003E099688268914247D31B689F42F8D118
:1040C00007607B68436018607860836AAA689868B4
:1040D00083689342A7D290F820308260062B9ED14D
:1040E000DEE7D0E90023012180F820101A60D0E932
:1040F00000325A60FFF75CF895E7236901332361CA
:10410000B3E71748FEF79CFD77E7D0E900231A6074
:10411000D0E900325A60876A3B4603E099688268BA
:10412000914214D31B689F42F8D107607B684360BB
:104130001860786077E70A48FEF782FDA06863E7B9
:104140000748FEF77DFD2369A1E71F46B8E71F4634
:10415000EBE7FDF785F800BF0008002038210020BC
:10416000F0F0000800000000000000000000000067
:1041700030B5154C83B0236801930546202383F3A3
:104180001188FFF7F5FDFEF7FBFD2846FFF728FF36
:10419000FEF716FEFFF704FE0C4B1A689A4204D095
:1041A000996993688A689A4208D3002383F3118837
:1041B000019A23689A4205D103B030BD0448FEF746
:1041C0003FFDF2E7FDF74CF8000800203821002001
:1041D000D0F0000800000000000000000000000017
:1041E0002DE9F043DFF800813C4FD8F80030BE697C
:1041F00083B005460193002864D0202383F31188FF
:10420000FFF7B6FDFEF7BCFD336C002B5ED09B685C
:10421000B34202D03248FEF713FD2B69002B49DD73
:10422000013B2B615BBB336CAB4202D02C48FEF7E9
:1042300007FDEB683364FEF79BFE2B689D423ED082
:10424000D6E910495CB1FEF793FE23689C4203D087
:104250009B68994538BF9946E468002CF3D1C6F8AD
:1042600008902B6801222A611A682A605560AB60A9
:104270001A6CEA6018461D640021FFF791F8FEF7FA
:104280009FFDFFF78DFD3B68BB4204D0BA699B6878
:1042900092689A420AD3002383F31188019AD8F8CE
:1042A00000309A4217D103B0BDE8F0830D48FEF705
:1042B000C7FCF0E70A48FEF7C3FC2B69B0E7002310
:1042C000AB60DCE70648FEF7BBFC96E70448FEF768
:1042D000B7FC336C9BE7FCF7C3FF00BF382100201D
:1042E00000F10008D0F000080008002000000000E5
:1042F0002DE9F041DFF8D880334BD8F800209E69D3
:1043000082B005460192FEF733FE002D4FD0336C8C
:10431000002B52D09B68B34202D02C48FEF790FC91
:104320002B69002B3EDD013B2B61002B32D1336C1E
:10433000AB4202D02548FEF783FCEB683364FEF7FE
:1043400017FE2B689D4223D0D6E910475CB1FEF7DB
:104350000FFE23689C4203D09B689F4238BF1F46D4
:10436000E468002CF3D1B7602868019901232B6120
:1043700003682B60D8F800205D60A860036CEB60D8
:10438000914205641ED102B0BDE8F041FEF710BFB6
:104390000023AB60019AD8F800309A4212D102B0E3
:1043A000BDE8F0810948FEF74BFC2B69BBE70748E5
:1043B000FEF746FC336C002BACD10448FEF740FC02
:1043C000336CA7E7FCF74CFF3821002010F1000800
:1043D00000080020000000000000000000000000B5
:1043E00070B5114E82B0044633680193FEF798FD14
:1043F0009CB12068A0420AD06FF0010503682360D9
:104400005C60FEF7D5FE85622068A042F6D1019A75
:1044100033689A4205D102B070BD0448FEF710FC23
:10442000E7E7FCF71DFF00BF0008002030F100089F
:104430002DE9F0411E4F1F4E3B68B46982B005461E
:104440000193FEF795FD65B3236C33B3B369D3F8DD
:1044500040804046FFF74CFF2E46A5622B4603E006
:104460009968A268914216D31B689D42F8D12660D4
:104470007368636007201C607460FEF719FF404694
:10448000A46AFFF7ADFD019A3B689A4220460CD121
:1044900002B0BDE8F0811E46E9E70748FEF7D0FB11
:1044A000D4E70548FEF7CCFBCEE7FCF7D9FE00BF0A
:1044B000000800203821002050F100080000000012
:1044C00030B5164C83B0236801930546202383F34F
:1044D0001188FFF74DFCFEF753FC2846FFF7A8FFB5
:1044E0000546FEF76DFCFFF75BFC0D4B1A689A4220
:1044F00004D0996993688A689A4209D3002383F3A8
:104500001188019A23689A42284605D103B030BD2C
:104510000448FEF795FBF1E7FCF7A2FE0008002037
:104520003821002020F100080000000000000000F9
:1045300070B5184E82B00446336801930D46FEF7FD
:10454000EFFC0CB3E16B94F8203029430A2BE163B4
:1045500016D00B2B05D0019A33689A4218D102B0BD
:1045600070BDA36A8B43F6D1019A336800219A4249
:10457000A1620DD1204602B0BDE87040FEF718BE22
:10458000A36A1942F0D1E6E70348FEF759FBD9E7E1
:10459000FCF766FE0008002080F100080000000023
:1045A000F0B5134F83B006463B6801930D46FEF706
:1045B000B7FCB6B13468A6420DD0E3682B43E36084
:1045C00015B12269134203D0D4E90101FFF7B0FF0E
:1045D0002468A642F1D1019A3B689A4205D103B002
:1045E000F0BD0448FEF72CFBE4E7FCF739FE00BF02
:1045F0000008002060F1000800000000000000003A
:1046000070B50C4CC16082B0266801960A44006007
:10461000019E02612268069D4060C0E90511964234
:104620004FF00001C3618160056201D102B070BD2D
:10463000FCF716FE0008002000000000000000004B
:1046400030B50D4D83B02B6801930446FEF768FC2E
:1046500001992A68E368A36100209142A060636128
:1046600007D120466FF0010103B0BDE83040FFF7ED
:1046700037BAFCF7F5FD00BF00080020000000007D
:1046800070B5164D82B004462B6801930E46FEF7B6
:1046900047FCFEF745FCD4E905239A42A36816D0EF
:1046A0000133511CA36061611670D4E904329A424F
:1046B0000AD220460021FFF7E3F90020019A2B6877
:1046C0009A4209D102B070BDE3686361F1E7002B43
:1046D000E6D06FF00300F1E7FCF7C2FD0008002010
:1046E000F0B5234F83B03B68019304460E46202368
:1046F00083F31188FFF73CFBFEF742FBE36943B10C
:104700002046984705E031462046FFF791F9051EFF
:1047100010DBFEF705FCA368002BF4D0A16920692B
:104720004A1C013B8242A360A26128BFE3680D7866
:1047300028BFA361FEF744FBFFF732FB0D4B1A685D
:104740009A4204D0996993688A689A4209D30023EF
:1047500083F31188019A3B689A42284605D103B039
:10476000F0BD0548FEF76CFAF1E7FCF779FD00BFF4
:10477000000800203821002090F10008000000000F
:104780002DE9F04FDFF8F490044685B0D9F8000029
:1047900003908A461D46D4F81C809346002A60D0B8
:1047A000202383F311880193FFF7E2FAFEF7E8FA7A
:1047B0002F4E0027B8F1000F07D02046C04704E075
:1047C00029462046FFF734F960BBFEF7A9FBA36832
:1047D000002BF5D0A269013B511CA161A3601378A5
:1047E0000AF8013B2369A2699A4224BFE368A361E6
:1047F000FEF7E6FAFFF7D4FA3368B34204D0B269A1
:104800009B6892689A4228D3002383F3118801376A
:10481000BB4519D0019B83F31188FFF7A9FAFEF776
:10482000AFFAC7E7FEF7CCFAFFF7BAFA3368B3423C
:1048300007D0B2699B6892689A4202D20D48FEF78F
:10484000FFF9002383F31188039AD9F800309A42C4
:1048500038460AD105B0BDE8F08F0648FEF7F0F9FA
:10486000D2E70548FEF7ECF99AE7FCF7F9FC00BF40
:104870003821002090F10008A0F100080008002075
:1048800070B50B4D82602E68C16082B0C0E9000037
:1048900001960A44019E02612A68069C9642C0E97C
:1048A0000511C0E9073401D102B070BDFCF7D8FC96
:1048B00000080020000000000000000000000000D0
:1048C00030B50D4D83B004462B680193FEF728FBED
:1048D000D4E9032301982968A2619B1A8842626186
:1048E000A36007D120466FF0010103B0BDE830405E
:1048F000FFF7F6B8FCF7B4FC000800200000000049
:104900002DE9F0412E4F82B03B6801930446884662
:104910001646202383F31188FFF72AFAFEF730FAB0
:1049200005E031462046FFF783F8051E2DDBFEF734
:10493000F7FAA368002BF4D06269013B511C616156
:10494000A36082F80080D4E904329A4224BFE3686D
:104950006361E3690BB120469847FEF731FAFFF730
:104960001FFA184B1A689A4204D0996993688A68AA
:104970009A421ED3002585F31188019A3B689A421A
:1049800028461AD102B0BDE8F081FEF719FAFFF708
:1049900007FA0C4B1A689A4207D0996993688A689B
:1049A0009A4202D20848FEF74BF9002383F311889C
:1049B000E3E70548FEF744F9DCE7FCF751FC00BFEC
:1049C000000800203821002090F1000800000000BD
:1049D00070B5154E82B0044633680193FEF7A0FA15
:1049E000FEF79EFAD4E905329342A36815D02069F8
:1049F000511C0133A360A161814215780AD220467F
:104A00000021FFF73DF82846019A33689A4209D100
:104A100002B070BDE368A361F1E7002BE7D06FF04F
:104A20000200F1E7FCF71CFC000800200000000079
:104A30002DE9F04F04463B48D4F81C90006885B03F
:104A40000D46039001931646002A61D04FF0200ACC
:104A50008AF31188FFF78CF9FEF792F94FF00008FE
:104A6000314FC346FEF75CFAA368002B32D062696F
:104A7000013B511C6161A3602B781370D4E90432AF
:104A80009A4224BFE36863610135B9F1000F01D098
:104A90002046C847FEF794F9FFF782F93B68BB420E
:104AA00007D0BA699B6892689A4202D21F48FEF703
:104AB000C7F88BF31188013E08F101081FD08AF373
:104AC0001188FFF755F9FEF75BF9FEF729FAA3689D
:104AD000002BCCD101992046FEF7AAFF0028C1D0B7
:104AE000FEF76EF9FFF75CF93B68BB4204D0BA6988
:104AF0009B6892689A420FD3002383F31188094B75
:104B0000039A1B689A4240460AD105B0BDE8F08F6F
:104B10000748FEF795F899E70448FEF791F8EBE7A8
:104B2000FCF79EFB000800203821002090F10008CF
:104B3000B0F10008000000000000000000000000CC
:104B400030B50B490B4A0B680B4D0C4C83B022F06F
:104B50000702019301980A4B09682A6023F00703B2
:104B60008842236001D103B030BDFCF779FB00BF60
:104B7000000800201F300020AC270020A8270020BC
:104B80000000022000000000000000000000000003
:104B900070B51C4E82B0336801930446202383F322
:104BA0001188FFF7E5F8FEF7EBF8FEF7B9F9164ABA
:104BB000164B15681B68E01D20F007005B1B984230
:104BC0009ABF401910600025FEF7FAF8FFF7E8F8E1
:104BD0000F4B1A689A4204D0996993688A689A427E
:104BE00009D3002383F31188019A33689A42284637
:104BF00005D102B070BD0748FEF722F8F1E7FCF7D7
:104C00002FFB00BF00080020AC270020A8270020B1
:104C100038210020D0F10008000000000000000052
:104C200000B50B4B0B481A6883B0019201991A68C2
:104C3000094B036091424FF00003C0E9023305D1F4
:104C4000103003B05DF804EBFFF7AAB9FCF708FBDE
:104C500000080020B0270020914B00080000000051
:104C600080B50D4A0D4982B000AF13687B604B6878
:104C700023F001034B60EFF30983683383F3098862
:104C8000002383F3118879681368994202D10837A9
:104C9000BD4680BDFCF7E4FA0008002030EF00E0DC
:104CA000B0B5194C82B000AF23687B60202383F33A
:104CB0001188164B5B6813F4006308D183F31188E5
:104CC0007A6823689A421DD10837BD46B0BDF1EE1F
:104CD000103AEFF309854FF080720D4B45F84C2CDC
:104CE000DB6845F8083CA5F1680383F30988FEF703
:104CF0009FFB18B1074B45F8503CE1E7064B45F8E0
:104D0000503CDDE7FCF7ACFA0008002000ED00E0C5
:104D100030EF00E0E1020008F402000800000000AB
:104D200010B5184C82B02368019302F009FD1648B3
:104D300004F026F800F0D4F800F00AF900F050F979
:104D400000F07EF900F0ACF900F0DAF900F060FB59
:104D500000F08EFB01F09CF800F0A2FF01F0B0FC27
:104D600001F0F6FC01F0E4FA06F042FA019A236839
:104D70009A4204D102B0BDE8104001F0D1BCFCF76A
:104D80006FFA00BF00080020B0F700080000000024
:104D9000F0B51A4D83B02B68019391420E4614462C
:104DA000074619D38B1A1F2B16D806F01F03581C61
:104DB0006209012376098340B24203F1FF3304F014
:104DC0001F0457F822000BD31840E040019A2B68CB
:104DD0009A4210D103B0F0BD0948FDF731FFE4E776
:104DE00057F82610C4F120020B4020FA04F403FA0D
:104DF00002F02043EAE7FCF733FA00BF0008002086
:104E0000E0F10008000000000000000000000000C9
:104E1000F0B51D4E83B033680193054670B37E2212
:104E20007F212846FFF7B4FF80B1012806D000207B
:104E3000019A33689A4225D103B0F0BD284630224A
:104E40004521FFF7A5FF01308002F1E73E2249210D
:104E50002846FFF79DFF2F22044631212846FFF701
:104E600097FF5022074653212846FFF791FF013450
:104E700002370938BC4004FA00F0D9E70348FDF7CF
:104E8000DFFECCE7FCF7ECF90008002000F2000898
:104E9000F0B5104D83B02B680193044698B194F897
:104EA000D63094F8D770019994F8D4602A6894F8B1
:104EB000D5001B0403EB07633344914203EB00204E
:104EC00005D103B0F0BD0448FDF7BAFEE7E7FCF7F3
:104ED000C7F900BF0008002020F200080000000011
:104EE00000B5074B83B01A680192019A1B689A4279
:104EF00004D103B05DF804EB02F0E2BCFCF7B0F9BA
:104F00000008002000000000000000000000000079
:104F100000B50C4B83B01A6801920122027001990E
:104F20001A6800239142C0E90133C0E903334361A9
:104F300005D1183003B05DF804EBFFF731B8FCF78A
:104F40008FF900BF000800200000000000000000F2
:104F500000B5074B83B01A680192019A1B689A4208
:104F600004D103B05DF804EB03F052BAFCF778F912
:104F70000008002000000000000000000000000009
:104F800030B5134B83B01A68019201220270019C64
:104F90001968002200F1180300F11C0542608361CA
:104FA00000F1200200F12403C561026200F128052E
:104FB00000F1080243628C4200F110038562C0E9EF
:104FC0000222C0E9043301D103B030BDFCF748F937
:104FD00000080020000000000000000000000000A9
:104FE00000B5074B83B01A680192019A1B689A4278
:104FF00004D103B05DF804EB03F0A2BEFCF730F976
:105000000008002000000000000000000000000078
:1050100000B50A4B83B01A6801920122027001990F
:105020001A6800239142C0E9043305D1183003B057
:105030005DF804EBFEF7B4BFFCF712F9000800209E
:1050400000B5074B83B01A680192019A1B689A4217
:1050500004D103B05DF804EB03F0FAB9FCF700F9F2
:105060000008002000000000000000000000000018
:1050700000B5084B83B01A68019201220270019AB0
:105080001B6800219A42416002D103B05DF804FB25
:10509000FCF7E6F800080020000000000000000017
:1050A00000B5074B83B01A680192019A1B689A42B7
:1050B00004D103B05DF804EB05F07ABCFCF7D0F83E
:1050C00000080020000000000000000000000000B8
:1050D00000B5084B83B01A68019201220270019A50
:1050E0001B6800219A42416002D103B05DF804FBC5
:1050F000FCF7B6F8000800200000000000000000E7
:1051000000B5074B83B01A680192019A1B689A4256
:1051100004D103B05DF804EB04F02AB9FCF7A0F861
:105120000008002000000000000000000000000057
:1051300000B50A4B83B01A68019201220270019AED
:105140001B6800219A42416005D10C3003B05DF824
:1051500004EBFEF725BFFCF783F800BF0008002032
:1051600070B51F4D82B02B6801930E46044680B384
:1051700079B323785A1E012A04D9052B02D0194885
:10518000FDF75EFD202383F31188FEF7F1FDFDF7A7
:10519000F7FD2046666004F013F902232370FDF743
:1051A0000FFEFEF7FDFD104B1A689A4204D0996974
:1051B00093688A689A4208D3002383F31188019A7E
:1051C0002B689A4209D102B070BD0848FDF738FD3E
:1051D000F2E70448FDF734FDCBE7FCF741F800BFE8
:1051E0000008002050F200083821002040F200089A
:1051F00030B51D4D83B02B680193044670B32378FE
:105200005A1E012A04D9052B02D01848FDF718FDB3
:10521000202383F31188FEF7ABFDFDF7B1FD204697
:1052200004F00EFA01232370FDF7CAFDFEF7B8FD66
:105230000F4B1A689A4204D0996993688A689A4217
:1052400008D3002383F31188019A2B689A4209D16D
:1052500003B030BD0748FDF7F3FCF2E70348FDF764
:10526000EFFCCCE7FBF7FCFF0008002060F2000831
:105270003821002040F2000800000000000000007B
:1052800030B5094D83B02B680193044630B1019AC3
:105290002B68A0689A4205D103B030BD0348FDF7E2
:1052A000CFFCF4E7FBF7DCFF0008002070F20008F9
:1052B0002DE9F04F304E87B034680594DDF840B0EA
:1052C0000D4690461F46DDE9119A044608B10029B3
:1052D0003DD12A48FDF7B4FC2378022B02D02748A1
:1052E000FDF7AEFC202383F31188FEF741FDFDF7A7
:1052F00047FD4FF0000C0320C4F808C04246294681
:1053000020703B462046CDE9019ACDF800B004F06C
:10531000EFF9431C0CBF0523022323700546FDF75C
:105320004FFDFEF73DFD164B1A689A4204D099696D
:1053300093688A689A4218D3002383F31188059AE8
:1053400033689A42284614D107B0BDE8F08F002B8D
:10535000BFD0002ABDD0B9F1000F02D0BBF1000FC1
:10536000B7D0BAF1000FB7D1B3E70648FDF768FC34
:10537000E2E7FBF775FF00BF0008002080F200089D
:105380003821002040F2000800000000000000006A
:1053900030B50B4C83B023680193054650B1019A98
:1053A00023689A420AD105F10C0003B0BDE83040F1
:1053B000FEF7DEBE0348FDF743FCF0E7FBF750FFC6
:1053C00000080020A0F2000800000000000000001B
:1053D00030B50B4C83B023680193054650B1019A58
:1053E00023689A420AD105F10C0003B0BDE83040B1
:1053F000FEF7F6BE0348FDF723FCF0E7FBF730FFAE
:1054000000080020B0F200080000000000000000CA
:1054100000B5074B83B01A680192019A1B689A4243
:1054200004D103B05DF804EB05F0E2B9FBF718FF17
:105430000008002000000000000000000000000044
:1054400000B5084B83B01A68019201220270019ADC
:105450001B6800219A42416002D103B05DF804FB51
:10546000FBF7FEFE00080020000000000000000026
:1054700000B5074B83B01A680192019A1B689A42E3
:1054800004D103B05DF804EB05F082BBFBF7E8FE46
:1054900000080020000000000000000000000000E4
:1054A00000B5094B83B01A6801920122027001997C
:1054B0001A68002391424360C360037402D103B0B1
:1054C0005DF804FBFBF7CCFE0008002000000000A4
:1054D00070B5214E82B0336801930D460446002812
:1054E00033D0002931D0202383F31188FEF740FC0C
:1054F000FDF746FC2378013B012B02D91748FDF745
:105500009FFB65606B68A360204605F081FB00226D
:105510000223E2602370FDF753FCFEF741FC104BC1
:105520001A689A4204D0996993688A689A4208D3A3
:10553000002383F31188019A33689A4209D102B09B
:1055400070BD0848FDF77CFBF2E70448FDF778FBE7
:10555000C9E7FBF785FE00BF00080020D0F2000875
:1055600038210020C0F20008000000000000000008
:10557000F0B5214E83B0336801930D4617460446BB
:1055800078B3037C8B422CD9202383F31188FEF758
:10559000EFFBFDF7F5FB2378022B02D01748FDF750
:1055A0004FFBE3680122AA401343E3603A462946D1
:1055B000204605F015FCFDF703FCFEF7F1FB104B50
:1055C0001A689A4204D0996993688A689A420CD3FF
:1055D000002383F31188019A33689A4209D103B0FA
:1055E000F0BD0648FDF72CFBCEE70648FDF728FB8B
:1055F000EEE7FBF735FE00BF00080020E0F20008F0
:1056000038210020C0F20008000000000000000067
:1056100070B5104D82B02B6801930E46044650B110
:1056200049B12379052B0CD00120019A2B689A42AD
:105630000ED102B070BD0848FDF702FB2379052B9F
:10564000F2D1A36A73604FF4007333600020ECE77B
:10565000FBF706FE0008002070F3000800000000C1
:105660002DE9F047DFF89C8386B002AFD8F8003010
:10567000FB600446002800F019812379022B01D039
:10568000052B2BD103232371204602F079FF002242
:105690001146204602F0ECFF07F108034FF4D572E3
:1056A0000821204603F02CF8E0B9BB680122C3F3BF
:1056B00003239342226300F0FD80204602F098FF0E
:1056C000022323710125FA68D8F800309A4228464F
:1056D00040F046811037BD46BDE8F087C048FDF771
:1056E000AFFACFE707F1080300223721204603F085
:1056F00007F8002840F0BE80BB68BA4A1A40002A6A
:1057000040F0B88022631146204602F0B1FF266BBC
:1057100006F00F03022B00F0AF80B34EB34ADFF860
:10572000C492012B18BF1646642504E0013DC4D085
:105730000A20FEF75DF807F1080300223721204612
:1057400002F0DEFF0028B8D1BB6813EA090FB4D11C
:1057500007F1080332462921204602F0A9FF00285C
:10576000ABD1BB68002BE1DA5B0003D5236B43F0C0
:105770001003236304F1080300220221204603F0F2
:10578000B7F8002899D1024604F1380303212046D6
:1057900002F0B6FF002890D104F118052B46A26B49
:1057A0000921204603F0A4F8002886D13B1DA26BF6
:1057B0000721204602F0A4FF824600287FF47DAF37
:1057C000236B03F00F03022B00F097806E467E22BE
:1057D00090B07F212846FFF7DBFA0DF10809002879
:1057E00079D10146B546204602F0EAFE236B03F06C
:1057F0000F03022B00F096802846FFF709FBA062FA
:105800003B1D4FF400721021204602F079FF05463F
:1058100000287FF452AF7B68724E33427FF44DAF65
:10582000236B03F00F03012B40F2B280022B7FF4B5
:1058300044AFE36A1A79012A00F0A88017D3022A3C
:1058400040F0E2806A4E1979204602F0E9FE07F145
:10585000080332460621204602F052FF00287FF45A
:105860002CAFBA685F4B1340002B7FF426AF0523A3
:10587000237128E7022323635E4E642505E0013D82
:105880003FF41BAF0A20FDF7B3FF07F108033246D0
:105890000121204602F00CFF00287FF40EAFBB6808
:1058A000002BECDA5B007FF565AF5FE74C48FDF756
:1058B000C7F9E2E6024607F108033721204602F065
:1058C0001FFF00287FF4F9AEBA68464B1340002B47
:1058D0007FF4F3AE1BE7CDF800A006234022494633
:1058E000204603F035F800284ED199F80D3013F01A
:1058F000020337D11946B54675E7E36A1B687BB1E9
:1059000007F108033C4A0621204602F0F9FE38B9A7
:10591000BB6834491940B1FA81F1490963E7B546DA
:10592000002160E77E227F212846FFF731FA012817
:105930007FF662AFE36A1D68002D3FF4BEAE002320
:1059400000934FF4007208232946204603F000F824
:1059500000287FF4B2AE2846FFF79AFAA0624FE71C
:10596000FBF77EFC254B0093402206234946204648
:1059700002F0EEFF40B999F8103003F00F030F2B3F
:10598000CDD0B54601212EE7B54696E61C4E5AE726
:10599000E36A197900293FF46AAF01297FF48DAEDB
:1059A000204602F03DFE07F10803A26B3721204696
:1059B00002F0A6FE00287FF480AEBB6833427FF47D
:1059C0007CAE07F1080302220621204602F098FE71
:1059D00000287FF472AEBB6833423FF448AF6CE6F8
:1059E00020F3000808E0FFFD000010C00000108058
:1059F0000002B7030080FFC00001B903F1FFFF8080
:105A00000001B703000800200248034EFDF718F913
:105A1000E36A18E700F300080000B7030000000085
:105A20002DE9F041194D82B02C6801940F46904643
:105A30001E460446C0B1BAB1B3B12379052B02D0DA
:105A40001348FDF7FDF8781EA36A304498420FD939
:105A5000636B43F0800363630120019A2B689A42D1
:105A600011D102B0BDE8F0810948FDF7E9F8E4E79B
:105A700006203346207142463946204603F0C8F8D6
:105A800005232371E9E7FBF7EBFB00BF00080020CB
:105A900040F30008000000000000000000000000CB
:105AA0002DE9F041194D82B02C6801940F469046C3
:105AB0001E460446C0B1BAB1B3B12379052B02D05A
:105AC0001348FDF7BDF8781EA36A304498420FD9F9
:105AD000636B43F0800363630120019A2B689A4251
