:020000040800F2
:1000000000040020C1010008511F0008511F000812
:1000100071180008511F0008511F0008511F0008E7
:10002000511F0008511F0008511F0008913B000894
:10003000511F0008511F0008511F000801850008CA
:10004000511F0008B1620008416400089164000873
:10005000511F0008511F0008F15F000841600008AF
:1000600091600008E16000083161000881560008D5
:10007000D15600082157000871570008C1570008E1
:100080001158000861580008615E000831660008D8
:10009000A166000851670008016800088161000836
:1000A000511F0008511F0008B17F0008511F0008B0
:1000B000C180000801810008418100080174000826
:1000C00041750008511F0008511F0008511F00080A
:1000D000511F0008511F0008511F0008C18500086A
:1000E000116200080163000851630008511F0008F5
:1000F000511F0008511F0008511F0008B158000887
:10010000511F00089169000881810008511F0008F3
:10011000511F0008511F0008717F0008511F00087F
:100120000159000851590008A1590008F159000867
:10013000415A0008511F0008A1630008511F000820
:10014000511F0008511F0008511F0008B17B000813
:10015000915A0008E15A0008315B0008511F00085D
:10016000511F0008511F0008511F0008511F0008AF
:10017000F1630008511F000861160008511F0008B4
:10018000511F0008511F0008511F0008511F00088F
:10019000511F0008511F0008511F0008511F00087F
:1001A000511F0008511F0008511F0008511F00086F
:1001B000511F0008511F0008511F0008511F00085F
:1001C00072B62E4880F3098840F20000CCF200009D
:1001D0004EF63471CEF20001086040F20000C0F229
:1001E000F0004EF68851CEF2000108604FF000009A
:1001F000E1EE100A4EF63C71CEF2000108600620D6
:1002000080F31488BFF36F8F08F0CAFA4FF05530AF
:100210001B491C4A91423CBF41F8040BFAE71A49BA
:10022000164A91423CBF41F8040BFAE71749184AB5
:10023000184B9A423EBF51F8040B42F8040BF8E702
:1002400000201549154A91423CBF41F8040BFAE7DA
:1002500001F066FE124C134DAC4203DA54F8041B55
:100260008847F9E701F024F80F4C104DAC4203DA4F
:1002700054F8041B8847F9E701F062BE000800202B
:1002800000000020000400200004002078D50008B1
:1002900000080020C4110020C8110020882100207F
:1002A000C0010008C0010008C0010008C00100082A
:1002B0002DE9F04F2DED108AC1F80CD0D0F80CD0FC
:1002C000BDEC108ABDE8F08F01F082FF02F018FF4C
:1002D000002383F311882846A047002002F0E0FCA9
:1002E00002F0F6FE01F054FF02F04AFB01F070FF4D
:1002F00002F006FF00DFFEE7000000000000000043
:1003000081F0004102E000BF83F0004330B54FEAC6
:1003100041044FEA430594EA050F08BF90EA020F33
:100320001FBF54EA000C55EA020C7FEA645C7FEAC6
:10033000655C00F0E2804FEA5454D4EB5555B8BFE9
:100340006D420CDD2C4480EA020281EA030382EA5A
:10035000000083EA010180EA020281EA0303362DEC
:1003600088BF30BD11F0004F4FEA01314FF4801CBF
:100370004CEA113102D0404261EB410113F0004FD1
:100380004FEA03334CEA133302D0524263EB430388
:1003900094EA050F00F0A780A4F10104D5F1200E26
:1003A0000DDB02FA0EFC22FA05F2801841F1000181
:1003B00003FA0EF2801843FA05F359410EE0A5F155
:1003C00020050EF1200E012A03FA0EFC28BF4CF086
:1003D000020C43FA05F3C01851EBE37101F000453C
:1003E00007D54FF0000EDCF1000C7EEB00006EEB49
:1003F0000101B1F5801F1BD3B1F5001F0CD34908D3
:100400005FEA30004FEA3C0C04F101044FEA445229
:1004100012F5800F80F09A80BCF1004F08BF5FEAB0
:10042000500C50F1000041EB045141EA050130BD90
:100430005FEA4C0C404141EB010111F4801FA4F133
:100440000104E9D191F0000F04BF01460020B1FA88
:1004500081F308BF2033A3F10B03B3F120020CDAC0
:100460000C3208DD02F1140CC2F10C0201FA0CF09E
:1004700021FA02F10CE002F11402D8BFC2F1200C03
:1004800001FA02F120FA0CFCDCBF41EA0C019040B9
:10049000E41AA2BF01EB0451294330BD6FEA040402
:1004A0001F3C1CDA0C340EDC04F11404C4F12002ED
:1004B00020FA04F001FA02F340EA030021FA04F3FF
:1004C00045EA030130BDC4F10C04C4F1200220FA56
:1004D00002F001FA04F340EA0300294630BD21FA94
:1004E00004F0294630BD94F0000F83F4801306BF5A
:1004F00081F480110134013D4EE77FEA645C18BF4E
:100500007FEA655C29D094EA050F08BF90EA020FE4
:1005100005D054EA000C04BF1946104630BD91EADC
:10052000030F1EBF0021002030BD5FEA545C05D1DF
:100530004000494128BF41F0004130BD14F580041E
:100540003CBF01F5801130BD01F0004545F0FE4192
:1005500041F470014FF0000030BD7FEA645C1ABFC7
:10056000194610467FEA655C1CBF0B46024650EAFE
:10057000013406BF52EA033591EA030F41F400212A
:1005800030BD00BF90F0000F04BF0021704730B5B0
:100590004FF4806404F132044FF000054FF0000185
:1005A00050E700BF90F0000F04BF0021704730B546
:1005B0004FF4806404F1320410F0004548BF40421B
:1005C0004FF000013EE700BF42004FEAE2014FEA70
:1005D00031014FEA02701FBF12F07F4393F07F4F4B
:1005E00081F06051704732F07F4208BF704793F04E
:1005F0007F4F04BF41F40021704730B54FF4607461
:1006000001F0004521F000411CE700BF50EA010263
:1006100008BF704730B54FF000050AE050EA01020C
:1006200008BF704730B511F0004502D5404261EB7C
:1006300041014FF4806404F132045FEA915C3FF4BD
:10064000D8AE4FF003025FEADC0C18BF03325FEA5A
:10065000DC0C18BF033202EBDC02C2F1200300FA0B
:1006600003FC20FA02F001FA03FE40EA0E0021FA30
:1006700002F11444BDE600BF0000000000000000CD
:1006800070B54FF0FF0C4CF4E06C1CEA11541DBF28
:100690001CEA135594EA0C0F95EA0C0F00F0DEF8F3
:1006A0002C4481EA030621EA4C5123EA4C5350EAD8
:1006B000013518BF52EA033541F4801143F4801329
:1006C00038D0A0FB02CE4FF00005E1FB02E506F0BA
:1006D0000042E0FB03E54FF00006E1FB03569CF00F
:1006E000000F18BF4EF0010EA4F1FF04B6F5007F15
:1006F00064F5407404D25FEA4E0E6D4146EB060687
:1007000042EAC62141EA55514FEAC52040EA5E500F
:100710004FEACE2EB4F1FD0C88BFBCF5E06F1ED8B9
:10072000BEF1004F08BF5FEA500E50F1000041EBF0
:10073000045170BD06F0004646EA010140EA02009D
:1007400081EA0301B4EB5C04C2BFD4EB0C0541EABF
:10075000045170BD41F480114FF0000E013C00F3D4
:10076000AB8014F1360FDEBF002001F0004170BDF8
:10077000C4F10004203C35DA0C341BDC04F1140411
:10078000C4F1200500FA05F320FA04F001FA05F29D
:1007900040EA020001F0004221F0004110EBD3706A
:1007A00021FA04F642EB06015EEA430E08BF20EA96
:1007B000D37070BDC4F10C04C4F1200500FA04F339
:1007C00020FA05F001FA04F240EA020001F00041CB
:1007D00010EBD37041F100015EEA430E08BF20EA3E
:1007E000D37070BDC4F1200500FA05F24EEA020E86
:1007F00020FA04F301FA05F243EA020321FA04F0B5
:1008000001F0004121FA04F220EA020000EBD3706B
:100810005EEA430E08BF20EAD37070BD94F0000F6B
:100820000FD101F00046400041EB010111F4801F9F
:1008300008BF013CF7D041EA060195F0000F18BF50
:10084000704703F00046520043EB030313F4801F8C
:1008500008BF013DF7D043EA0603704794EA0C0F46
:100860000CEA135518BF95EA0C0F0CD050EA41065C
:1008700018BF52EA4306D1D181EA030101F00041D9
:100880004FF0000070BD50EA410606BF1046194601
:1008900052EA430619D094EA0C0F02D150EA01360D
:1008A00013D195EA0C0F05D152EA03361CBF10464E
:1008B00019460AD181EA030101F0004141F0FE41ED
:1008C00041F470014FF0000070BD41F0FE4141F471
:1008D000780170BD70B54FF0FF0C4CF4E06C1CEA71
:1008E00011541DBF1CEA135594EA0C0F95EA0C0F26
:1008F00000F0A7F8A4EB050481EA030E52EA0335E1
:100900004FEA013100F088804FEA03334FF0805501
:1009100045EA131343EA12634FEA022245EA11152E
:1009200045EA10654FEA00260EF000419D4208BFDF
:10093000964244F1FD0404F5407402D25B084FEA8C
:100940003202B61A65EB03055B084FEA32024FF438
:1009500080104FF4002CB6EB020E75EB030E22BF95
:10096000B61A754640EA0C005B084FEA3202B6EB55
:10097000020E75EB030E22BFB61A754640EA5C0004
:100980005B084FEA3202B6EB020E75EB030E22BF94
:10099000B61A754640EA9C005B084FEA3202B6EB95
:1009A000020E75EB030E22BFB61A754640EADC0054
:1009B00055EA060E18D04FEA051545EA16754FEAB6
:1009C00006164FEAC30343EA52734FEAC2025FEAD4
:1009D0001C1CC0D111F4801F0BD141EA00014FF063
:1009E00000004FF0004CB6E711F4801F04BF014334
:1009F0000020B4F1FD0C88BFBCF5E06F3FF6AFAE50
:100A0000B5EB030C04BFB6EB020C5FEA500C50F1DF
:100A1000000041EB045170BD0EF0004E4EEA113162
:100A200014EB5C04C2BFD4EB0C0541EA045170BD69
:100A300041F480114FF0000E013C90E645EA060EAD
:100A40008DE60CEA135594EA0C0F08BF95EA0C0FDB
:100A50003FF43BAF94EA0C0F0AD150EA01347FF423
:100A600034AF95EA0C0F7FF425AF104619462CE7FA
:100A700095EA0C0F06D152EA03353FF4FDAE10465D
:100A8000194622E750EA410618BF52EA43067FF4AE
:100A9000C5AE50EA41047FF40DAF52EA43057FF43E
:100AA000EBAE12E7000000000000000000000000B4
:100AB0004FF0FF3C06E000BF4FF0010C02E000BF2A
:100AC0004FF0010C4DF804CD4FEA410C7FEA6C5C0D
:100AD0004FEA430C18BF7FEA6C5C1BD001B050EAB0
:100AE000410C0CBF52EA430C91EA030F02BF90EA9B
:100AF000020F0020704710F1000F91EA030F58BF5A
:100B0000994208BF90422CBFD8176FEAE37040F0BB
:100B1000010070474FEA410C7FEA6C5C02D150EA59
:100B2000013C07D14FEA430C7FEA6C5CD6D152EA14
:100B3000033CD3D05DF8040B704700BF84461046D9
:100B400062468C461946634600E000BF01B5FFF7D8
:100B5000B7FF002848BF10F1000F01BD4DF808EDA8
:100B6000FFF7F4FF0CBF012000205DF808FB00BF79
:100B70004DF808EDFFF7EAFF34BF012000205DF8D3
:100B800008FB00BF4DF808EDFFF7E0FF94BF012020
:100B900000205DF808FB00BF4DF808EDFFF7CEFF21
:100BA00094BF012000205DF808FB00BF4DF808ED60
:100BB000FFF7C4FF34BF012000205DF808FB00BF31
:100BC0004FEA410C7FEA6C5C02D150EA013C0AD149
:100BD0004FEA430C7FEA6C5C02D152EA033C02D13B
:100BE0004FF0000070474FF0010070470000000018
:100BF0004FEA410212F5001215D211D56FF4787345
:100C0000B3EB625212D94FEAC12343F0004343EAE7
:100C1000505311F0004F23FA02F018BF40427047C2
:100C20004FF00000704750EA013005D111F000404C
:100C300008BF6FF0004070474FF00000704700BFE2
:100C40004FEA4102B2F1E04324BFB3F5001CDCF1EE
:100C5000FE5C0DD901F0004C4FEAC0024CEA507026
:100C6000B2F1004F40EB830008BF20F00100704755
:100C700011F0804F21D113F13872BCBF01F0004058
:100C8000704741F480114FEA5252C2F11802C2F18A
:100C9000200C10FA0CF320FA02F018BF40F001000B
:100CA0004FEAC1234FEAD32303FA0CFC40EA0C00BD
:100CB00023FA02F34FEA4303CCE77FEA625307D1FA
:100CC00050EA01331EBF4FF0FE4040F44000704731
:100CD00001F0004040F0FE4040F40000704700BFCB
:100CE00053B94AB9002908BF00281CBF4FF0FF3193
:100CF0004FF0FF3000F074B9ADF1080C6DE904CE8F
:100D000000F006F8DDF804E0DDE9022304B07047E6
:100D10002DE9F047089E04468846002B4BD18A42B5
:100D2000154667D9B2FA82F24AB1C2F1200701FA38
:100D300002F320FA07F7954047EA030894404FEA88
:100D4000154E230CB8FBFEF71FFA85FC0EFB178827
:100D500043EA084307FB0CF1994209D9EB1807F164
:100D6000FF3080F01B81994240F21881023F2B44F2
:100D70005B1AA4B2B3FBFEF00EFB103344EA03444B
:100D800000FB0CFCA44509D92C1900F1FF3380F0BD
:100D90000781A44540F2048102382C4440EA074010
:100DA000A4EB0C0400271EB1D4400023C6E9004385
:100DB0003946BDE8F0878B4209D9002E00F0EB8060
:100DC0000027C6E9000138463946BDE8F087B3FA86
:100DD00083F7002F47D18B4202D3824200F2FA8080
:100DE000841A61EB030301209846002EE0D0C6E987
:100DF0000048DDE702B9FFDEB2FA82F2002A40F0D5
:100E00008F80491B4FEA154E1FFA85F80127B1FB69
:100E1000FEFC230C0EFB1C1143EA014308FB0CF102
:100E2000994207D9EB180CF1FF3002D2994200F237
:100E3000CD808446591AA3B2B1FBFEF00EFB10140C
:100E400043EA044408FB00F8A04507D92C1900F137
:100E5000FF3302D2A04500F2B6801846A4EB080486
:100E600040EA0C409FE7C7F1200CBB4022FA0CFE81
:100E70004EEA030E01FA07F420FA0CF521FA0CF3FE
:100E80004FEA1E482543B3FBF8F92C0C08FB193335
:100E90001FFA8EFA44EA034309FB0AF49C4202FA61
:100EA00007F200FA07F10BD91EEB030309F1FF303B
:100EB00080F087809C4240F28480A9F1020973444B
:100EC0001B1BADB2B3FBF8F008FB103345EA03443B
:100ED00000FB0AFAA24508D91EEB040400F1FF3317
:100EE0006BD2A24569D90238744440EA0940A0FB9C
:100EF0000289A4EB0A044C45C2464B4654D351D058
:100F0000002E69D0B1EB0A0564EB030404FA0CFC73
:100F1000FD40FC404CEA0505C6E90054002747E7C0
:100F2000C2F1200320FA03F7954001FA02F021FAFA
:100F300003F34FEA154E3843010CB3FBFEF71FFADB
:100F400085F80EFB173341EA034107FB08F38B4298
:100F500004FA02F407D9691807F1FF3C2FD28B423B
:100F60002DD9023F2944CB1A81B2B3FBFEF00EFB10
:100F7000103341EA034100FB08F38B4207D969189B
:100F800000F1FF3C17D28B4215D902382944C91A07
:100F900040EA07473BE73746304609E70746E7E6BA
:100FA0001846FBE64145ABD2B8EB020A69EB0E02EC
:100FB00001381346A4E76046E9E7184695E7674617
:100FC000D1E781467CE702382C4447E7ACF1020CBC
:100FD0002B442FE7384608E73746E9E600000000D3
:100FE000704700BF0000000000000000000000008B
:100FF000844641EA000313F003036DD1403A41D324
:1010000051F8043B40F8043B51F8043B40F8043BE2
:1010100051F8043B40F8043B51F8043B40F8043BD2
:1010200051F8043B40F8043B51F8043B40F8043BC2
:1010300051F8043B40F8043B51F8043B40F8043BB2
:1010400051F8043B40F8043B51F8043B40F8043BA2
:1010500051F8043B40F8043B51F8043B40F8043B92
:1010600051F8043B40F8043B51F8043B40F8043B82
:1010700051F8043B40F8043B51F8043B40F8043B72
:10108000403ABDD2303211D351F8043B40F8043B12
:1010900051F8043B40F8043B51F8043B40F8043B52
:1010A00051F8043B40F8043B103AEDD20C3205D322
:1010B00051F8043B40F8043B043AF9D2043208D01A
:1010C000D2071CBF11F8013B00F8013B01D30B888C
:1010D00003806046704700BF082A13D38B078DD06A
:1010E00010F003038AD0C3F10403D21ADB071CBF3C
:1010F00011F8013B00F8013B80D331F8023B20F8A6
:10110000023B7BE7043AD9D3013A11F8013B00F8DE
:10111000013BF9D20B7803704B7843708B78837066
:101120006046704700000000000000000000000062
:1011300090F800F06DE9024520F007016FF0000C17
:1011400010F0070491F820F040F049804FF00004BF
:101150006FF00700D1E9002391F840F000F108009A
:1011600082FA4CF2A4FA8CF283FA4CF3A2FA8CF3D2
:101170004BBBD1E9022382FA4CF200F10800A4FA39
:101180008CF283FA4CF3A2FA8CF3E3B9D1E904238D
:1011900082FA4CF200F10800A4FA8CF283FA4CF3C4
:1011A000A2FA8CF37BB9D1E9062301F1200182FA7E
:1011B0004CF200F10800A4FA8CF283FA4CF3A2FA84
:1011C0008CF3002BC6D0002A04BF04301A4612BA92
:1011D000B2FA82F2FDE8024500EBD2007047D1E995
:1011E000002304F00305C4F100004FEAC50514F024
:1011F000040F91F840F00CFA05F562EA05021CBFF5
:1012000063EA050362464FF00004A9E7000000000E
:1012100001F0FF01102A2BDB10F0070F08D010F8A7
:10122000013B013A8B422DD010F0070F42B3F6D1AB
:10123000F0B441EA012141EA014122F007047FF0C4
:1012400000070023F0E80256083C85EA010586EA1B
:10125000010685FA47F5A3FA87F586FA47F6A5FA57
:1012600087F68EB9EED1F0BC01F0FF0102F0070263
:1012700032B110F8013B013A83EA010313B1F8D10E
:101280000020704701387047002D06BF35460338EF
:10129000073815F0010F07D1013015F4807F02BF28
:1012A000013015F4C03F0130F0BC0138704700BF79
:1012B00000B5094B83B01B68019302F0C9FC00F034
:1012C0005FFE00F07DFA00F053FD00F091F84FF45E
:1012D0007A7001F06DFCFAE70008002000000000C1
:1012E00000B5084B83B01A680192019A1B689A42B4
:1012F00005D1054803B05DF804EB00F0A9BEFFF787
:10130000EFFF00BF0008002050C9000800000000E7
:10131000D0B52DED068B72EE417A304C84B0236847
:10132000039317EE900AB0EE62AAB0EE618AF0EE77
:10133000418AF0EE409AB0EE609AFFF745F97AEEF6
:10134000487ACDE9000117EE900AFFF73DF99DEDCF
:10135000001B41EC100B07F07BFA78EEE97A57ECB2
:10136000106B17EE900AFFF72FF978EE497ACDE966
:10137000000117EE900AFFF727F99DED001B41ECE5
:10138000100B07F065FA304653EC102B3946FEF788
:10139000BBFFFFF755FCDFED127A039A236800EEDE
:1013A000100AB4EEE70AF1EE10FAC4BFDFED0D7AD1
:1013B00030EE670ADFED0C7AB4EEE70AF1EE10FAD0
:1013C00044BFDFED087A30EE270A9A4203D104B019
:1013D000BDEC068BD0BDFFF783FF00BF00080020E7
:1013E000DB0F4940DB0FC940DB0F49C000000000A4
:1013F0002DE9F0412DED048B7D4F7E4B9FED7E6AF4
:101400003A6883ED026A82B0FAEE045A01927B4A8E
:1014100083ED076AB0EE468AF0EE466AF0EE467A51
:101420001D46B0EE657A83ED086A83ED096AA3F183
:1014300018081E461C461A605A60DA605A61C3EDED
:10144000045AC3ED065A77EEE67A38EE477A67EE2D
:10145000A77A083CE7EE077A17EE900AFFF7B4F890
:1014600041EC100B07F0FCF951EC100BFFF7E8FB17
:10147000D4ED0B2AD4ED091A94ED081AD4ED070A1D
:1014800094ED060AA062B0EE482AFFF741FF84ED12
:101490000B0A444508D094ED067AD4ED097AD4EDD0
:1014A000076A94ED088ACEE7D6ED039A96ED028A94
:1014B00069EEA97AE8EE087A17EE900AFFF784F849
:1014C00041EC100B07F0CCF951EC100BFFF7B8FB17
:1014D000D6ED008A96ED019ADFED470AB060B0EED6
:1014E000482AF0EE692AB0EE681AF0EE491AB0EE1A
:1014F000600AFFF70DFF69EE097A86ED030AE8EE50
:10150000A87A17EE900AFFF75FF841EC100B07F08E
:10151000A7F951EC100BFFF793FBDFED371A3060A2
:10152000F0EE492AB0EE682AB0EE611AB0EE610A18
:10153000FFEE000A08EE100AFFF7EAFE304ADFED80
:10154000316A9FED317A86ED010AA2F12003D3EDD5
:10155000017A28EE268A67EE877A9A4283ED008A1E
:10156000C3ED017A03D0083393ED008AEFE7274CEF
:10157000D5ED017AF1EE677AFDEEE77A17EE900A83
:1015800000F0C6FBD5ED017AFDEEE77A17EE900A82
:1015900000F0D6FB4FF4FA6001F00AFBD5ED007ABB
:1015A000FDEEE77A17EE900A00F0B2FB2B46D3ED82
:1015B000007AFDEEE77A083517EE900A00F0C0FBDE
:1015C0004FF4FA6001F0F4FAAC42D1D1002000F0FF
:1015D0009FFB019A3B689A4207D1002002B0BDEC04
:1015E000048BBDE8F04100F0ABBBFFF779FE00BF14
:1015F00000080020C8110020000000000000204169
:10160000E811002000009842ECC44D43F011002086
:1016100030B5104D81682B680F4A83B001930B6879
:1016200023F001030B608168946A03E0936A1B1B3B
:10163000C72B09D8086810F00100F7D1019A2B6870
:101640009A4204D103B030BD4FF0FF30F6E7FFF708
:1016500047FE00BF00080020B81200200000000074
:10166000F0B5284D83B02B68019301F0F9FC00F030
:101670000FFE254B1E69F20715D55A69234C42F01F
:1016800001025A612778BB1F012B2AD90522636802
:1016900022701B680BB120469847042F27D0022FD9
:1016A00025D003232370B30710D5174A174C53696D
:1016B00043F0020353612378032B1DD063689B68BA
:1016C0000622227013B101211048984700F008FE4D
:1016D000019A2B689A4213D103B0BDE8F04002F0A2
:1016E00077BA019A2B689A420AD103B0F0BD02235F
:1016F0002370B307EAD5D8E72046FFF789FFDDE777
:10170000FFF7EEFD0008002000000550F01100205A
:101710002DE9F043254E83B034680194042A9DF8E6
:101720002890144605460F46984639D9B9F1000F5E
:1017300014BF00224FF08052640002EB0863013CAA
:101740001C4405F00F0527F01F07202383F31188A1
:1017500001F0BEFC3D4300F01BFD154B1035DD6074
:101760001C6100F035FD01F0CBFC124B1A689A4267
:1017700004D0996993688A689A420DD3002383F351
:101780001188BFF36F8FBFF34F8F019A33689A426E
:101790000AD103B0BDE8F083074800F059FCEDE73B
:1017A000064800F055FCC1E7FFF79AFD000800204D
:1017B00090ED00E0B8120020F0C90008D0C9000880
:1017C00030B5224D224C2B68224A85B003936368C2
:1017D00043F004036360536A43F48033536220236D
:1017E00083F3118801F074FC00F0D2FC17221A4B2D
:1017F000E260236100F0ECFC01F082FC174B1A68F8
:101800009A4204D0996993688A689A4218D3002052
:1018100080F31188BFF36F8FBFF34F8F03231D2217
:1018200000904FF00051FFF773FF094A536843F0EF
:1018300001035360039A2B689A4205D105B030BD6D
:10184000074800F005FCE2E7FFF74AFD000800202A
:1018500090ED00E000ED00E009000010B81200205B
:10186000F0C90008000000000000000000000000B7
:1018700070B51A4D1A4C1B4E0FCD0FC49EB02A687E
:10188000336822801D93EFF30981682203A8FFF7D4
:10189000AFFB154B9D6AAA0714D4EB0708D5124B72
:1018A00008995B6B114A00910D48802107F0D0FE2A
:1018B0001D9A33689A420FD109481EB0BDE87040A6
:1018C00000F0C6BB099A5B6B0092A4F11000084AB5
:1018D000802107F0BDFEE0E7FFF702FDB4C9000874
:1018E000041200200008002000ED00E090C900086C
:1018F00070C90008000000000000000000000000A7
:1019000000B51F4B0278196883B00191E2B11D4AFE
:101910004FF4005111834278EAB11A4A4FF48051D2
:1019200011838278F2B1174A4FF480411183C27853
:10193000FAB9144A4FF400415183019A1B689A4244
:101940001CD103B05DF804FB0E4A4FF400515183E3
:101950004278002AE1D10B4A4FF4805151838278BA
:10196000002AE0D1074A4FF480415183C278002A0F
:10197000DFD0044A4FF400411183DEE7FFF7B0FCEB
:1019800000080020001002400000000000000000DD
:1019900000B51F4B0278196883B00191E2B11D4A6E
:1019A0004FF4007111834278EAB11A4A4FF4807102
:1019B00011838278F2B1174A4FF400611183C27823
:1019C000FAB9144A4FF480615183019A1B689A4214
:1019D0001CD103B05DF804FB0E4A4FF40071518333
:1019E0004278002AE1D10B4A4FF48071518382780A
:1019F000002AE0D1074A4FF400615183C278002ADF
:101A0000DFD0044A4FF480611183DEE7FFF768FC02
:101A1000000800200010024000000000000000004C
:101A200030B50C4A0C4B116883B04FF4005501914E
:101A30004FF480544FF400414FF480405D835C8349
:101A40005883598301991368994201D103B030BD7D
:101A5000FFF746FC000800200010024000000000D4
:101A600030B50C4A0C4B116883B04FF400750191EE
:101A70004FF480744FF480614FF400605D835C83A9
:101A80005883598301991368994201D103B030BD3D
:101A9000FFF726FC000800200010024000000000B4
:101AA00010B50B4C0B48236882B09922002101939A
:101AB00002F0E6FB019A23689A4206D1054800210C
:101AC00002B0BDE8104002F0C3BCFFF709FC00BF44
:101AD0000008002088200020000000000000000016
:101AE00010B50B4C0B48236882B09922002101935A
:101AF00002F0C6FB019A23689A4206D105480021EC
:101B000002B0BDE8104002F0A3BCFFF7E9FB00BF44
:101B100000080020A42000200000000000000000B9
:101B200000B5084B83B01A680192019A1B689A426B
:101B300006D10548002103B05DF804EB02F0F0BBCC
:101B4000FFF7CEFB000800208820002000000000E6
:101B500000B5084B83B01A680192019A1B689A423B
:101B600006D10548002103B05DF804EB02F0D8BBB4
:101B7000FFF7B6FB00080020A420002000000000B2
:101B800070B51A4C1A4E2378326882B0022B01923B
:101B9000A26811D165781748013505F0070500EBFB
:101BA0008500904763686570013B6360019A336804
:101BB0009A4219D102B070BD012B08D00199336847
:101BC000994211D10C4802B0BDE8704010476578C9
:101BD0000848013D05F0070500EB85009047636864
:101BE000657001336360E1E7FFF77AFB9C12002028
:101BF0000008002090CA000880CA00080000000009
:101C000070B51A4C1A4E2378326882B0012B0192BB
:101C1000A26811D165781748013505F0070500EB7A
:101C2000850090476368657001336360019A33688B
:101C30009A4219D102B070BD022B08D001993368C5
:101C4000994211D10C4802B0BDE870401047657848
:101C50000848013D05F0070500EB850090476368E3
:101C60006570013B6360E1E7FFF73AFB84120020F7
:101C70000008002090CA000880CA00080000000088
:101C800030B51F4D85B02B68039340F24C43994209
:101C9000044626DCA3F69803994211DB4B00002B87
:101CA00029D10370036998474FF47A71039A2B681E
:101CB0009A421ED1606905B0BDE8304002F098BA82
:101CC000104B02225B42227040F2892293420E495D
:101CD00091FBF3F189B207DC0191E3689847019920
:101CE000E4E7012303702D210191236998470199AD
:101CF000DCE7FFF7F5FAE4DD01220270E4E700BF5C
:101D00000008002068F7FFFFA08601000000000027
:101D100000B5084B83B01A680192019A1B689A4279
:101D200006D10146044803B05DF804EBFFF7A8BFF5
:101D3000FFF7D6FA000800208412002000000000FF
:101D400000B5084B83B01A680192019A1B689A4249
:101D500006D10146044803B05DF804EBFFF790BFDD
:101D6000FFF7BEFA000800209C12002000000000CF
:101D700070B51D4E1D4A1E4B30681E491E4C9160A9
:101D800082B00021D46001901C4C1D481D4D9D6007
:101D9000117051705160106154611B481B4A1C4DF9
:101DA000D8601C48197059705960C3E90425FFF7C1
:101DB000A7FD1848FFF7ECFD1749204602F0C8F9C7
:101DC000204602F0FDFA2846144902F0C1F9019AB2
:101DD00033689A4205D1284602B0BDE8704002F04F
:101DE000EFBAFFF77DFA00BF000800209C12002028
:101DF0008412002001190008A11A00088820002080
:101E0000211B000891190008E11A0008511B000865
:101E1000A420002080CA000840CA000800CA0008A8
:101E20000A490B4B09680B4A82B0202001914021DE
:101E300058834FF4806559834FF400644FF4804019
:101E400004215D835C8358835183FEE700080020F2
:101E5000000C0240000402400000000000000000EE
:101E600000B5084B83B01A680192019A1B689A4228
:101E700005D1054803B05DF804EB01F071BAFFF736
:101E80002FFA00BF00080020040800200000000016
:101E900000B5084B83B01A680192019A1B689A42F8
:101EA00005D1054803B05DF804EB01F091BAFFF7E6
:101EB00017FA00BF000800200408002000000000FE
:101EC00070B50D4C82B0236801930D1E06460DDDE2
:101ED000284601F0F5FD18B90C2333604FF0FF30B0
:101EE000019A23689A4205D102B070BD034800F000
:101EF000AFF8EDE7FFF7F4F900080020B0CA0008DA
:101F000000B5064B83B01A680192019A1B689A4289
:101F100002D103B05DF804FBFFF7E2F900080020EE
:101F200000B5064B83B01A680192019A1B689A4269
:101F300002D103B05DF804FBFFF7D2F900080020DE
:101F4000024B82B01B680193FEE700BF000800202F
:101F500000B5044B04481B6883B0019300F078F887
:101F6000FEE700BF00080020C0CA00080000000013
:101F7000024B82B01B680193FEE700BF00080020FF
:101F8000F0B5294E294B3268294885B000240392C8
:101F90009C60D968274A4FF6FF0529400A43DA605A
:101FA000C2682549254D42F08072C2600A6842F03D
:101FB00001020A6010202022D87783F8222000F046
:101FC000DFFA00F045FA00F0D3FF01F051FD01F017
:101FD000BFFD01F025F800F0FBF9402105F5886010
:101FE00000F0F6FC0127164BC36180F82070A86151
:101FF00000F0A6F884F3118862B6AB69114A9A61C1
:102000004FF4C4713A46104B009405F59D6000F002
:1020100077FD039A33680D4981619A4201D105B079
:10202000F0BDFFF75DF900BF0008002000ED00E003
:10203000F0ED00E00003FA05001000E0B812002007
:102040000004002040CC0008711F0008E0CA00080E
:1020500000B5054B83B01B680193044672B6FFF7C9
:10206000DFFE024BDC62FEE700080020B812002011
:102070002DE9F047DFF890A0224DDAF8003082B069
:10208000019300F055F9AB6993F8232012B1013A9E
:1020900083F823205A6ADFF8748001325A6200F014
:1020A00047F9AB6AEA6901334245AB6220D09368D5
:1020B000013B9360EC69A668D6B94FF0200923680C
:1020C000E768E660C3F804802368EB6100F0C0F8BD
:1020D00001F046F886F311882069B84789F3118822
:1020E00001F026F800F094F8EC69A368002BE6D024
:1020F000019ADAF800309A4202D102B0BDE8F087C6
:10210000FFF7EEF8B812002000080020D4120020DB
:1021100010B5094C094A236882B00193516853688D
:102120005B1A9842FBD8019A23689A4201D102B007
:1021300010BDFFF7D5F800BF00080020001000E038
:1021400000B50E4A0E4B116B186883B0019009B9A7
:10215000526B4AB1019A1B689A420CD1094803B0EC
:102160005DF804EBFFF774BF019A1B689A4202D135
:1021700003B05DF804FBFFF7B3F800BFB81200200E
:1021800000080020F0CA0008000000000000000065
:1021900030B50B4C0B4D236B2A6883B001920BB901
:1021A000636B13B10848FFF753FF019A2B680121B5
:1021B0009A42616301D103B030BDFFF791F800BFCF
:1021C000B81200200008002020CB0008000000000A
:1021D00030B50C4C0C4D236B2A6883B0019253B977
:1021E000636B002B07DD019A2B6800219A42616323
:1021F00005D103B030BD0548FFF72AFFF3E7FFF72D
:102200006FF800BFB81200200008002040CB000883
:1022100030B50B4C0B4D236B2A6883B0002B019219
:1022200001DD636B13B10848FFF712FF019A2B68B9
:1022300001219A42616301D103B030BDFFF750F82C
:10224000B81200200008002030CB00080000000079
:1022500030B50C4C0C4D236B2A6883B0002B0192D7
:102260000ADD636B002B07DD019A2B6800219A427F
:10227000616305D103B030BD0448FFF7E9FEF3E721
:10228000FFF72EF8B81200200008002050CB0008FD
:1022900030B50F4D83B02B680193202383F3118851
:1022A0000C4C236B002B01DB626B1AB10A48FFF761
:1022B000CFFE236B01332363002383F31188019A3C
:1022C0002B689A4201D103B030BDFFF709F800BF77
:1022D00000080020B812002000CB00080000000019
:1022E00030B50F4D83B02B680193202383F3118801
:1022F0000C4C236B002B01DD626B1AB10A48FFF70F
:10230000A7FE236B013B2363002383F31188019A0B
:102310002B689A4201D103B030BDFEF7E1FF00BF48
:1023200000080020B812002010CB000800000000B8
:1023300000B50F4A0F4B116B186883B0002901904C
:1023400009DB526B002A06DD019A1B689A420CD108
:1023500003B05DF804FB019A1B689A4205D1064858
:1023600003B05DF804EBFFF773BEFEF7B9FF00BFE3
:10237000B81200200008002060CB00080000000018
:1023800000B50E4A0E4B116B186883B0019049B925
:10239000526B002A06DD019A1B689A420CD103B0E9
:1023A0005DF804FB019A1B689A4205D1054803B009
:1023B0005DF804EBFFF74CBEFEF792FFB812002069
:1023C0000008002070CB00080000000000000000A2
:1023D00010B5084A084B116882B040240191019958
:1023E000126818199142C3E90E4001D102B010BD24
:1023F000FEF776FF00080020B81200200000000061
:1024000010B51149114B0A6882B00192DA6B9C6ACF
:102410001460DA6B9C695460DA6B846A9460DA6BDE
:1024200090F820001073DA6B03F588601032824256
:1024300028BF03F14002DA63019A0B689A4201D186
:1024400002B010BDFEF74CFF00080020B8120020BB
:1024500010B50B4A0B4B116882B04FF0FF3401915D
:1024600000219962019811685C6203F11C028842A4
:10247000C3E9072201D102B010BDFEF731FF00BF52
:1024800000080020B812002000000000000000003A
:102490002DE9F041184E82B00546306801900C4697
:1024A00017469846FFF744FF05B3FFB1F4B1C5E9FD
:1024B00003781248C3699A68944204D91B68A41A25
:1024C0009A68A242FAD32B605A686A6015605D6010
:1024D000AC609968019D3268091B95424FF0FF344A
:1024E0009960446206D102B0BDE8F0810448FFF76C
:1024F000AFFDDCE7FEF7F4FE00080020B812002074
:1025000080CB000800000000000000000000000078
:1025100030B5164D83B004462B680193FFF708FFD2
:10252000ECB1E368BBB12268A068936801990344E9
:102530009360D4E900231A6020682B680C4A656810
:10254000456099424FF000054FF0FF30E560506262
:1025500009D103B030BD0748FFF77AFDE3E705482E
:10256000FFF776FDDDE7FEF7BBFE00BF00080020A9
:10257000B812002090CB000800000000000000000E
:1025800000B50A4A0A4B11681B6083B00020019114
:10259000019912685B609142C3E90433986002D1EB
:1025A00003B05DF804FBFEF79BFE00BF00080020AF
:1025B000B812002000000000000000000000000031
:1025C00030B5164D83B004462B680193FFF7B0FE7B
:1025D000ECB194F82030B3B10F2B14D00022A168D5
:1025E0000F4B84F820201B689A688A42FBD2236034
:1025F0005A686260146001992A685C6091422046C2
:1026000009D103B030BD0748FFF722FDE6E70548D2
:10261000FFF71EFDDDE7FEF763FE00BF00080020A8
:10262000B8120020A0CB000800000000000000004D
:1026300070B5204D82B02B6801930446202383F3AC
:10264000118800F075FDFFF7E3FD94F82030072BAB
:1026500011D8DFE803F0161010230A04100AA66A46
:10266000FFF766FEB3680133B360D4E900231A6054
:10267000D4E900325A604FF0FF33A3622046FFF7DF
:102680009FFFFFF7E5FD00F06BFD002383F311884A
:10269000019A2B689A420BD102B070BDA36A002246
:1026A0001A604FF0FF33A3622046FFF789FFE8E787
:1026B000FEF716FE000800200000000000000000E9
:1026C000F0B5194E194C336883B007460193FFF7F4
:1026D00057FEA569236885F82070142285F8232009
:1026E0001A68226001215460284683F82010A361F3
:1026F000FFF786FE2946A06900F0CAFCEFF30983C4
:10270000EA69643B9A4202D90948FFF7A1FC019AA1
:1027100033689A4206D1A069294603B0BDE8F0406B
:10272000FDF7C6BDFEF7DCFD00080020B812002052
:10273000B0CB000800000000000000000000000016
:10274000F0B5154C87B0236805930E460746FFF792
:1027500017FE731C18D0114D114AAB6931466846FB
:10276000FFF796FE3846FFF7ABFFFFF7E1FD039B4F
:1027700013B16846FFF7CCFE059A2368A9699A420F
:10278000886A06D107B0F0BD3846FFF799FF034DC0
:10279000F2E7FEF7A5FD00BF00080020B8120020F8
:1027A00031260008000000000000000000000000CA
:1027B000F0B51E4D1E4E2B6883B0044601930F46A4
:1027C000FFF7DEFDB069A7628368A2689A421DD94F
:1027D000FFF7F6FE0123074684F82030B461FFF7C7
:1027E0000FFE3946204600F053FCEFF30983FA69E7
:1027F000643B9A4214D8019A2B689A4214D1394604
:10280000204603B0BDE8F040FDF752BD019A2B68A9
:102810009A4209D1204603B0BDE8F040FFF7D0BE90
:102820000448FFF715FCE6E7FEF75AFD0008002014
:10283000B8120020B0CB000800000000000000002B
:1028400010B50E490E4B8A69086892F823101C686F
:102850008068926882B0019449B9904234BF0020E8
:102860000120019A1B689A4206D102B010BD904225
:1028700094BF00200120F4E7FEF732FDB8120020DB
:102880000008002000000000000000000000000020
:1028900070B5184C184E2368A5691A6822605460F8
:1028A000012283F8202082B01422316885F8232089
:1028B0002846A3610191FFF783FE2846FFF7A0FD9C
:1028C0002946A06900F0E4FBEFF30983EA69643B61
:1028D0009A4202D90948FFF7BBFB019A33689A4232
:1028E00006D1A069294602B0BDE87040FDF7E0BC02
:1028F000FEF7F6FCB812002000080020B0CB00085C
:1029000070B51C4D1C4E2A68AC6913682B60012100
:1029100082B05D60002082F82010AA613268A16850
:1029200084F82000019200E01B689A688A42FBD874
:1029300023605A686260204614605C60FFF760FDA7
:102940002146A86900F0A4FBEFF30983E269643B28
:102950009A4202D90948FFF77BFB019A33689A42F1
:1029600006D1A869214602B0BDE87040FDF7A0BCC1
:10297000FEF7B6FCB812002000080020B0CB00081B
:1029800000B50E4A0E4B9269196892F8232083B065
:10299000019142B1019A1B689A420DD103B05DF8D2
:1029A00004EBFFF7ADBF019A1B689A4204D103B054
:1029B0005DF804EBFFF76CBFFEF792FCB812002045
:1029C00000080020000000000000000000000000DF
:1029D000F0B51A4A1A4D02610446816083B014238F
:1029E00050692E68616484F8233002270023012196
:1029F000278484F82210C4E90F3304F16801A3612D
:102A0000019604F12C07636204F1500604F13003CF
:102A100060610461C4E90C33E1613046E7625461EE
:102A200000F03EFA304600F05BFA019A2B689A42B9
:102A300002D1204603B0F0BDFEF752FCB8120020D0
:102A4000000800200000000000000000000000005E
:102A500010B5094B82B01C680194884203D200F87B
:102A6000012B8142FBD1019A1B689A4201D102B02D
:102A700010BDFEF735FC00BF00080020000000007C
:102A80002DE9F043184E83B0346801940546DDF813
:102A900028900C4617469846FFF74AFC15B1B4F546
:102AA000BC7F19D21148FFF7D3FAA4F1640129447D
:102AB000E960C1F84080EB68019AC3F8449033683C
:102AC000E9680B4808669A420CD13946284603B09B
:102AD000BDE8F043FFF77CBF7F2FE3D8B8F1000FCC
:102AE000E3D1DFE7FEF7FCFB0008002000CC000884
:102AF000C902000800000000000000000000000003
:102B00002DE9F04FDFF8A48087B0D8F80040DDF859
:102B10004090059407468A46934600F168060446AD
:102B2000FF2504F8015BA642FBD107EB0A05A5428D
:102B300004D9552604F8016BA542FBD1039320224A
:102B400082F3118800F0C4FAFFF722FB039BCDF853
:102B500000905A4651463846FFF792FF002104463E
:102B6000FFF726FEFFF734FB00F0CAFA0D4B1A6898
:102B70009A4204D0996993688A689A420BD30023D9
:102B800083F31188059AD8F800309A42204606D17E
:102B900007B0BDE8F08F0448FFF75AFAEFE7FEF7F9
:102BA0009FFB00BFB8120020C0CB00080008002027
:102BB00030B5184C83B0236801930546202383F376
:102BC000118800F085FAFFF7E3FA15B91248FFF70C
:102BD0003FFA29460820FFF7B3FDFFF7F9FA00F0A6
:102BE0008FFA0E4B1A689A4204D0996993688A68E2
:102BF0009A4208D3002383F31188019A23689A42EA
:102C000005D103B030BD0648FFF722FAF2E7FEF720
:102C100067FB00BF00080020D0CB0008B8120020DE
:102C2000C0CB000800000000000000000000000011
:102C300070B5164B164E9C693268E36AA06282B08A
:102C400004F12C05AB42019207D01A68E2621846E3
:102C5000FFF7B6FCE36AAB42F7D194F821309B074B
:102C600005D1D4E904231A61D4E904325A610F2052
:102C7000FFF726FD019A33689A4205D1054802B054
:102C8000BDE87040FFF7E4B9FEF72AFBB812002058
:102C90000008002010CC0008000000000000000028
:102CA00030B50C4C83B0236801930546202383F391
:102CB000118800F00DFAFFF76BFA019A23689A4227
:102CC00005D1284603B0BDE83040FFF7B1BFFEF79D
:102CD00007FB00BF0008002000000000000000000B
:102CE000F0B50D4D0D4E03682A68B76983B00446F0
:102CF000019213B10A48FFF7ABF927600320BC62C9
:102D0000FFF7DEFC019A2B68B1699A42886A01D10B
:102D100003B0F0BDFEF7E4FA00080020B81200206E
:102D200020CC0008000000000000000000000000AF
:102D3000F0B5124D04682B6883B00193B4B194F8D8
:102D40002030032B06460F460CD100233360019A36
:102D50002B68A7629A420FD1204603B0BDE8F0402D
:102D6000FFF72EBC0648FFF773F9EEE7019A2B68D0
:102D70009A4201D103B0F0BDFEF7B2FA000800207C
:102D800030CC00080000000000000000000000003F
:102D900030B5104A83B01368019381B10E4B019D89
:102DA0009B69186044685C602360126843609542C8
:102DB0000DD1042003B0BDE83040FFF7C1BC01993C
:102DC000136899424FF0FF3001D103B030BDFEF7D8
:102DD00087FA00BF00080020B812002000000000A1
:102DE00070B5124D04682B6882B0A042019315D0D3
:102DF00023680360586094F82030042B0E4602D0FC
:102E00000B48FFF725F9019A2B68A6629A420BD16D
:102E1000204602B0BDE87040FFF7D2BB019A2B6894
:102E20009A4201D102B070BDFEF75AFA00080020A4
:102E3000E0CB0008000000000000000000000000DF
:102E40002DE9F041DFF850800468D8F8003082B0F6
:102E5000A042019313D00F4F05460E4623682B6006
:102E60005D6094F82030042B02D03846FFF7F0F86C
:102E7000A6622046FFF7A4FB2C68A542EED1019A7A
:102E8000D8F800309A4202D102B0BDE8F081FEF7D6
:102E900027FA00BFE0CB0008000800200000000077
:102EA00030B50B4B83B01A6801924FF0FF320260CD
:102EB00001991A680024002300259142C0E90445C5
:102EC000C0E90133C36001D103B030BDFEF708FA99
:102ED00000080020000000000000000000000000CA
:102EE00000B5084B084A196883B001915168019AEE
:102EF0001B6881609A4202D103B05DF804FBFEF7C3
:102F0000EFF900BF00080020001000E00000000002
:102F1000F0B51449144B0A68846883B00192134ACF
:102F20005B68D2F8A864C2681B1BD0E90445013273
:102F30009B1BC26042688360E61845F1000793421C
:102F4000C0E9046709D80268934238BF0360019A58
:102F50000B689A4203D103B0F0BD4360F7E7FEF778
:102F6000BFF900BF00080020001000E0B8120020E8
:102F700030B5114D114C2B6889B04FF0FF310793DC
:102F8000002300226846C4F8A834CDE90133039336
:102F90000023CDE904230091FFF7A2FF6846FFF765
:102FA000B7FF079A2B680299C4F8A8149A4201D176
:102FB00009B030BDFEF794F900080020B8120020D7
:102FC0002DE97048134E144B326883B001925B6850
:102FD0008B60D0E902411B1BD0E90445426814EB29
:102FE000030B45F1000C01319342C0E90231C0E905
:102FF00004BC0AD80268934238BF0360019A336860
:103000009A4204D103B0BDE870884360F6E7FEF74A
:1030100067F900BF00080020001000E00000000079
:1030200030B50D4D0D4C2B6883B004F597600193BE
:103030000023C4F8B034C4F8B434FFF731FF019A68
:103040002B689A4206D104F59A6003B0BDE830407F
:10305000FFF726BFFEF744F900080020B812002051
:1030600000B50949094A0B6883B001930198D2F869
:10307000B034096801338842C2F8B03402D103B0D9
:103080005DF804FBFEF72CF900080020B8120020C0
:1030900070B50D4C0D4A236882B00193019DD2F8A2
:1030A000B43424680133A542C2F8B43409D10E46C1
:1030B00000F1500106F1500002B0BDE87040FFF78A
:1030C0007FBFFEF70DF900BF00080020B8120020F6
:1030D00000B5084B83B01A680192019A1B689A42A6
:1030E00005D1054803B05DF804EBFFF7F9BEFEF724
:1030F000F7F800BF00080020701700200000000053
:1031000000B5084B83B01A680192019A1B689A4275
:1031100005D1054803B05DF804EBFFF7F9BEFEF7F3
:10312000DFF800BF0008002070170020000000003A
:1031300000B5084B83B01A680192019A1B689A4245
:1031400005D1054803B05DF804EBFFF7C9BEFEF7F3
:10315000C7F800BF0008002088170020000000000A
:1031600000B5084B83B01A680192019A1B689A4215
:1031700005D1054803B05DF804EBFFF7C9BEFEF7C3
:10318000AFF800BF000800208817002000000000F2
:1031900030B50B4D83B02B680193044650B12460C9
:1031A00001992A68646000239142A360236105D1DC
:1031B00003B030BD0348FEF74BFFF0E7FEF790F891
:1031C0000008002070CC0008000000000000000093
:1031D000F0B55D4E5D4B32689D6983B00446019247
:1031E000FFF7CEF8002C00F08480A0682369002847
:1031F00043D0002B40F39780854276D0AA6883683D
:103200009A4208D990F820308260062B40D0072BD4
:1032100073D0002B5DD02746234603E09968AA6847
:10322000914233D31B689C42F8D12F607B686B605E
:1032300006201D607D60AC62FFF742FAA368AB42D6
:1032400002D04348FEF704FF2B6CA34202D0404853
:10325000FEF7FEFE2369012B05D1019A33689A42DD
:103260006FD103B0F0BD019A33689A4269D13848F2
:1032700003B0BDE8F040FEF7EBBE002B58D10133A0
:10328000A56023612B6CE3602C64E6E71F46CCE766
:10329000D0E900231A60D0E900325A60876A3B46C1
:1032A00003E099688268914247D31B689F42F8D136
:1032B00007607B68436018607860836AAA689868D2
:1032C00083689342A7D290F820308260062B9ED16B
:1032D000DEE7D0E90023012180F820101A60D0E950
:1032E00000325A60FFF76CF995E7236901332361D7
:1032F000B3E71748FEF7ACFE77E7D0E900231A6082
:10330000D0E900325A60876A3B4603E099688268D8
:10331000914214D31B689F42F8D107607B684360D9
:103320001860786077E70A48FEF792FEA06863E7C6
:103330000748FEF78DFE2369A1E71F46B8E71F4641
:10334000EBE7FDF7CDFF00BF00080020B81200201A
:1033500080CC000800000000000000000000000019
:1033600030B5154C83B0236801930546202383F3C1
:103370001188FFF7ADFEFEF70BFF2846FFF728FF89
:10338000FEF726FFFFF7BCFE0C4B1A689A4204D0EA
:10339000996993688A689A4208D3002383F3118855
:1033A000019A23689A4205D103B030BD0448FEF764
:1033B0004FFEF2E7FDF794FF00080020B81200204E
:1033C00060CC0008000000000000000000000000C9
:1033D0002DE9F043DFF800813C4FD8F80030BE699A
:1033E00083B005460193002864D0202383F311881D
:1033F000FFF76EFEFEF7CCFE336C002B5ED09B68B1
:10340000B34202D03248FEF723FE2B69002B49DD80
:10341000013B2B615BBB336CAB4202D02C48FEF707
:1034200017FEEB683364FEF7ABFF2B689D423ED07E
:10343000D6E910495CB1FEF7A3FF23689C4203D094
:103440009B68994538BF9946E468002CF3D1C6F8CB
:1034500008902B6801222A611A682A605560AB60C7
:103460001A6CEA6018461D640021FFF7A1F9FEF707
:10347000AFFEFFF745FE3B68BB4204D0BA699B68CC
:1034800092689A420AD3002383F31188019AD8F8EC
:1034900000309A4217D103B0BDE8F0830D48FEF723
:1034A000D7FDF0E70A48FEF7D3FD2B69B0E700230C
:1034B000AB60DCE70648FEF7CBFD96E70448FEF775
:1034C000C7FD336C9BE7FDF70BFF00BFB812002070
:1034D00090CC000860CC000800080020000000002C
:1034E00070B5184E82B00446336801930D46FEF75E
:1034F0001FFF0CB3E16B94F8203029430A2BE163E2
:1035000016D00B2B05D0019A33689A4218D102B01D
:1035100070BDA36A8B43F6D1019A336800219A42A9
:10352000A1620DD1204602B0BDE87040FFF748B857
:10353000A36A1942F0D1E6E70348FEF789FDD9E70F
:10354000FDF7CEFE00080020C0CC000800000000FF
:10355000F0B5134F83B006463B6801930D46FEF766
:10356000E7FEB6B13468A6420DD0E3682B43E360B2
:1035700015B12269134203D0D4E90101FFF7B0FF6E
:103580002468A642F1D1019A3B689A4205D103B062
:10359000F0BD0448FEF75CFDE4E7FDF7A1FE00BFC7
:1035A00000080020A0CC000800000000000000007F
:1035B00070B50C4CC16082B0266801960A44006068
:1035C000019E02612268069D4060C0E90511964295
:1035D0004FF00001C3618160056201D102B070BD8E
:1035E000FDF77EFE00080020000000000000000043
:1035F00070B5164D82B004462B6801930E46FEF757
:1036000097FEFEF795FED4E905239A42A36816D0EB
:103610000133511CA36061611670D4E904329A42EF
:103620000AD220460021FFF7DBFB0020019A2B681D
:103630009A4209D102B070BDE3686361F1E7002BE3
:10364000E6D06FF00300F1E7FDF74AFE0008002026
:10365000F0B5234F83B03B68019304460E46202308
:1036600083F31188FFF734FDFEF792FDE36943B160
:103670002046984705E031462046FFF789FB051EA6
:1036800010DBFEF755FEA368002BF4D0A16920697A
:103690004A1C013B8242A360A26128BFE3680D7807
:1036A00028BFA361FEF794FDFFF72AFD0D4B1A68B2
:1036B0009A4204D0996993688A689A4209D3002390
:1036C00083F31188019A3B689A42284605D103B0DA
:1036D000F0BD0548FEF7BCFCF1E7FDF701FE00BFB9
:1036E00000080020B8120020D0CC00080000000024
:1036F0002DE9F04FDFF8F490044685B0D9F80000CA
:1037000003908A461D46D4F81C809346002A60D058
:10371000202383F311880193FFF7DAFCFEF738FDCD
:103720002F4E0027B8F1000F07D02046C04704E015
:1037300029462046FFF72CFB60BBFEF7F9FDA36886
:10374000002BF5D0A269013B511CA161A360137845
:103750000AF8013B2369A2699A4224BFE368A36186
:10376000FEF736FDFFF7CCFC3368B34204D0B269F4
:103770009B6892689A4228D3002383F3118801370B
:10378000BB4519D0019B83F31188FFF7A1FCFEF71D
:10379000FFFCC7E7FEF71CFDFFF7B2FC3368B3423E
:1037A00007D0B2699B6892689A4202D20D48FEF730
:1037B0004FFC002383F31188039AD9F800309A4212
:1037C00038460AD105B0BDE8F08F0648FEF740FC48
:1037D000D2E70548FEF73CFC9AE7FDF781FD00BF04
:1037E000B8120020D0CC0008E0CC0008000800206F
:1037F00070B50B4D82602E68C16082B0C0E90000D8
:1038000001960A44019E02612A68069C9642C0E91C
:103810000511C0E9073401D102B070BDFDF760FDAC
:103820000008002000000000000000000000000070
:103830002DE9F0412E4F82B03B6801930446884643
:103840001646202383F31188FFF742FCFEF7A0FC05
:1038500005E031462046FFF79BFA051E2DDBFEF7FB
:1038600067FDA368002BF4D06269013B511C6161C4
:10387000A36082F80080D4E904329A4224BFE3684E
:103880006361E3690BB120469847FEF7A1FCFFF79F
:1038900037FC184B1A689A4204D0996993688A6871
:1038A0009A421ED3002585F31188019A3B689A42FB
:1038B00028461AD102B0BDE8F081FEF789FCFFF777
:1038C0001FFC0C4B1A689A4207D0996993688A6862
:1038D0009A4202D20848FEF7BBFB002383F311880B
:1038E000E3E70548FEF7B4FBDCE7FDF7F9FC00BFB2
:1038F00000080020B8120020D0CC00080000000012
:1039000070B5154E82B0044633680193FEF710FD82
:10391000FEF70EFDD4E905329342A36815D0206965
:10392000511C0133A360A161814215780AD220465F
:103930000021FFF755FA2846019A33689A4209D1C7
:1039400002B070BDE368A361F1E7002BE7D06FF030
:103950000200F1E7FDF7C4FC0008002000000000B1
:103960002DE9F04F04463B48D4F81C90006885B020
:103970000D46039001931646002A61D04FF0200AAD
:103980008AF31188FFF7A4FBFEF702FC4FF0000852
:10399000314FC346FEF7CCFCA368002B32D06269DE
:1039A000013B511C6161A3602B781370D4E9043290
:1039B0009A4224BFE36863610135B9F1000F01D079
:1039C0002046C847FEF704FCFFF79AFB3B68BB4262
:1039D00007D0BA699B6892689A4202D21F48FEF7E4
:1039E00037FB8BF31188013E08F101081FD08AF3E1
:1039F0001188FFF76DFBFEF7CBFBFEF799FCA36880
:103A0000002BCCD101992046FFF7C2F90028C1D084
:103A1000FEF7DEFBFFF774FB3B68BB4204D0BA69DC
:103A20009B6892689A420FD3002383F31188094B55
:103A3000039A1B689A4240460AD105B0BDE8F08F50
:103A40000748FEF705FB99E70448FEF701FBEBE7A3
:103A5000FDF746FC00080020B8120020D0CC00087A
:103A6000F0CC000800000000000000000000000092
:103A700030B50B490B4A0B680B4D0C4C83B022F050
:103A80000702019301980A4B09682A6023F0070393
:103A90008842236001D103B030BDFDF721FC00BF97
:103AA000000800208F2100202C1900202819002058
:103AB00000000220000000000000000000000000E4
:103AC00070B51C4E82B0336801930446202383F303
:103AD0001188FFF7FDFAFEF75BFBFEF729FC164A9B
:103AE000164B15681B68E01D20F007005B1B984211
:103AF0009ABF401910600025FEF76AFBFFF700FB34
:103B00000F4B1A689A4204D0996993688A689A425E
:103B100009D3002383F31188019A33689A42284617
:103B200005D102B070BD0748FEF792FAF1E7FDF744
:103B3000D7FB00BF000800202C1900202819002006
:103B4000B812002010CD00080000000000000000A6
:103B500000B50B4B0B481A6883B0019201991A68A3
:103B6000094B036091424FF00003C0E9023305D1D5
:103B7000103003B05DF804EBFFF70ABBFDF7B0FBB4
:103B80000008002030190020C13A000800000000A1
:103B900080B50D4A0D4982B000AF13687B604B6859
:103BA00023F001034B60EFF30983683383F3098843
:103BB000002383F3118879681368994202D108378A
:103BC000BD4680BDFDF78CFB0008002030EF00E013
:103BD000B0B5194C82B000AF23687B60202383F31B
:103BE0001188164B5B6813F4006308D183F31188C6
:103BF0007A6823689A421DD10837BD46B0BDF1EE00
:103C0000103AEFF309854FF080720D4B45F84C2CBC
:103C1000DB6845F8083CA5F1680383F30988FEF7E3
:103C20000FFE18B1074B45F8503CE1E7064B45F84D
:103C3000503CDDE7FDF754FB0008002000ED00E0FC
:103C400030EF00E0E1020008F4020008000000008C
:103C500010B5184C82B02368019301F0C9FF1648D3
:103C600003F0E6FA00F0D4F800F00AF900F050F999
:103C700000F07EF900F0ACF900F0DAF900F008FA93
:103C800000F036FA01F084F800F08AFF01F010F934
:103C900001F056F901F0FCF804F0CAFD019A23681E
:103CA0009A4204D102B0BDE8104001F031B9FDF7ED
:103CB00017FB00BF0008002070D1000800000000C2
:103CC000F0B51A4D83B02B68019391420E4614460D
:103CD000074619D38B1A1F2B16D806F01F03581C42
:103CE0006209012376098340B24203F1FF3304F0F5
:103CF0001F0457F822000BD31840E040019A2B68AC
:103D00009A4210D103B0F0BD0948FEF7A1F9E4E7EB
:103D100057F82610C4F120020B4020FA04F403FAED
:103D200002F02043EAE7FDF7DBFA00BF00080020BD
:103D300020CD00080000000000000000000000008E
:103D4000F0B51D4E83B033680193054670B37E22F3
:103D50007F212846FFF7B4FF80B1012806D000205C
:103D6000019A33689A4225D103B0F0BD284630222B
:103D70004521FFF7A5FF01308002F1E73E224921EE
:103D80002846FFF79DFF2F22044631212846FFF7E2
:103D900097FF5022074653212846FFF791FF013431
:103DA00002370938BC4004FA00F0D9E70348FEF7AF
:103DB0004FF9CCE7FDF794FA0008002040CD000849
:103DC000F0B5104D83B02B680193044698B194F878
:103DD000D63094F8D770019994F8D4602A6894F892
:103DE000D5001B0403EB07633344914203EB00202F
:103DF00005D103B0F0BD0448FEF72AF9E7E7FDF767
:103E00006FFA00BF0008002060CD0008000000002D
:103E100000B5074B83B01A680192019A1B689A4259
:103E200004D103B05DF804EB01F0A2BFFDF758FA2E
:103E3000000800200000000000000000000000005A
:103E400000B50C4B83B01A680192012202700199EF
:103E50001A6800239142C0E90133C0E9033343618A
:103E600005D1183003B05DF804EBFFF791B9FDF709
:103E700037FA00BF0008002000000000000000002A
:103E800000B5074B83B01A680192019A1B689A42E9
:103E900004D103B05DF804EB02F012BDFDF720FA87
:103EA00000080020000000000000000000000000EA
:103EB00030B5134B83B01A68019201220270019C45
:103EC0001968002200F1180300F11C0542608361AB
:103ED00000F1200200F12403C561026200F128050F
:103EE00000F1080243628C4200F110038562C0E9D0
:103EF0000222C0E9043301D103B030BDFDF7F0F96F
:103F00000008002000000000000000000000000089
:103F100000B5074B83B01A680192019A1B689A4258
:103F200004D103B05DF804EB03F062B9FDF7D8F9F2
:103F30000008002000000000000000000000000059
:103F400000B50A4B83B01A680192012202700199F0
:103F50001A6800239142C0E9043305D1183003B038
:103F60005DF804EBFFF714B9FDF7BAF9000800207B
:103F700000B5074B83B01A680192019A1B689A42F8
:103F800004D103B05DF804EB02F0BABCFDF7A8F968
:103F900000080020000000000000000000000000F9
:103FA00000B5084B83B01A68019201220270019A91
:103FB0001B6800219A42416002D103B05DF804FB06
:103FC000FDF78EF90008002000000000000000004E
:103FD00000B5074B83B01A680192019A1B689A4298
:103FE00004D103B05DF804EB04F002B8FDF778F9F2
:103FF0000008002000000000000000000000000099
:1040000000B5084B83B01A68019201220270019A30
:104010001B6800219A42416002D103B05DF804FBA5
:10402000FDF75EF90008002000000000000000001D
:1040300000B5074B83B01A680192019A1B689A4237
:1040400004D103B05DF804EB03F00ABBFDF748F9B7
:104050000008002000000000000000000000000038
:1040600000B50A4B83B01A68019201220270019ACE
:104070001B6800219A42416005D10C3003B05DF805
:1040800004EBFFF785B8FDF72BF900BF000800200F
:1040900000B5074B83B01A680192019A1B689A42D7
:1040A00004D103B05DF804EB03F0E2BEFDF718F9AC
:1040B00000080020000000000000000000000000D8
:1040C00000B5084B83B01A68019201220270019A70
:1040D0001B6800219A42416002D103B05DF804FBE5
:1040E000FDF7FEF8000800200000000000000000BE
:1040F00000B5074B83B01A680192019A1B689A4277
:1041000004D103B05DF804EB04F05AB8FDF7E8F809
:104110000008002000000000000000000000000077
:1041200000B5094B83B01A6801920122027001990F
:104130001A68002391424360C360037402D103B044
:104140005DF804FBFDF7CCF800080020000000003B
:1041500070B5214E82B0336801930D4604460028A5
:1041600033D0002931D0202383F31188FEF7B0FF2C
:10417000FEF70EF82378013B012B02D91748FDF713
:1041800067FF65606B68A360204604F059F8002261
:104190000223E2602370FEF71BF8FEF7B1FF104B1D
:1041A0001A689A4204D0996993688A689A4208D337
:1041B000002383F31188019A33689A4209D102B02F
:1041C00070BD0848FDF744FFF2E70448FDF740FFE3
:1041D000C9E7FDF785F800BF0008002090CD000872
:1041E000B812002080CD0008000000000000000090
:1041F00070B51C4E82B0336801930C46054650B32F
:10420000202383F31188FEF763FFFDF7C1FF2B78AE
:10421000022B02D01448FDF71BFFAB69AC60013CD8
:10422000DC62FDF7D5FFFEF76BFF104B1A689A4270
:1042300004D0996993688A689A4208D3002383F36B
:104240001188019A33689A4209D102B070BD0848BA
:10425000FDF7FEFEF2E70448FDF7FAFED0E7FDF7B2
:104260003FF800BF00080020A0CD0008B8120020D1
:1042700080CD0008000000000000000000000000E9
:10428000F0B5214E83B0336801930D4617460446BE
:1042900078B3037C8B422CD9202383F31188FEF75B
:1042A00017FFFDF775FF2378022B02D01748FDF7A3
:1042B000CFFEE3680122AA401343E3603A46294651
:1042C000204604F0A5F8FDF783FFFEF719FF104B19
:1042D0001A689A4204D0996993688A689A420CD302
:1042E000002383F31188019A33689A4209D103B0FD
:1042F000F0BD0648FDF7ACFECEE70648FDF7A8FE88
:10430000EEE7FCF7EDFF00BF00080020B0CD00088D
:10431000B812002080CD000800000000000000005E
:1043200070B5204E82B0336801930D46044678B3D1
:10433000037C8B422CD9202383F31188FEF7C8FE1F
:10434000FDF726FF2378022B02D01748FDF780FEE9
:10435000E3680122AA4023EA0203E36029462046DB
:1043600004F06EF8FDF734FFFEF7CAFE0F4B1A6833
:104370009A4204D0996993688A689A420CD30023C0
:1043800083F31188019A33689A4209D102B070BD53
:104390000548FDF75DFECEE70548FDF759FEEEE75F
:1043A000FCF79EFF00080020D0CD0008B8120020C6
:1043B00080CD0008000000000000000000000000A8
:1043C00030B51E4D83B02B680193044680B3202383
:1043D00083F31188FEF77CFEFDF7DAFE2378022BCB
:1043E00002D01748FDF734FE63689B68E3B12046AE
:1043F00004F046F8FDF7ECFEFEF782FE114B1A685A
:104400009A4204D0996993688A689A4208D3002333
:1044100083F31188019A2B689A420DD103B030BD05
:104420000948FDF715FEF2E70548FDF711FEDEE746
:104430000348FDF70DFECAE7FCF752FF0008002015
:10444000F0CD0008B812002080CD00080000000068
:1044500070B5294E82B0336801930D46044600289A
:1044600032D0037C8B422FD9202383F31188FEF7AF
:104470002FFEFDF78DFE2378022B02D01F48FDF79B
:10448000E7FDE368EB40DB0726D5636803EBC50374
:104490001B6953B32946204604F012F8FDF798FE35
:1044A000FEF72EFE164B1A689A4204D0996993685B
:1044B0008A689A420CD3002383F31188019A3368E7
:1044C0009A4216D102B070BD0C48FDF7C1FDCBE792
:1044D0000C48FDF7BDFDEEE70848FDF7B9FD636840
:1044E00003EBC5031B69002BD4D10448FDF7B0FDD5
:1044F000D0E7FCF7F5FE00BF0008002010CE000852
:10450000B812002080CD000800000000000000006C
:1045100070B5104D82B02B6801930E46044650B121
:1045200049B12379052B0CD00120019A2B689A42BE
:104530000ED102B070BD0848FDF78AFD2379052B26
:10454000F2D1A36A73604FF4007333600020ECE78C
:10455000FCF7C6FE00080020A0CE00080000000006
:104560002DE9F047DFF89C8386B002AFD8F8003021
:10457000FB600446002800F019812379022B01D04A
:10458000052B2BD103232371204602F051FA002280
:104590001146204602F0C4FA07F108034FF4D57221
:1045A0000821204602F004FBE0B9BB680122C3F3F6
:1045B00003239342226300F0FD80204602F070FA4C
:1045C000022323710125FA68D8F800309A42284660
:1045D00040F046811037BD46BDE8F087C048FDF782
:1045E00037FDCFE707F1080300223721204602F00C
:1045F000DFFA002840F0BE80BB68BA4A1A40002AA1
:1046000040F0B88022631146204602F089FA266BFA
:1046100006F00F03022B00F0AF80B34EB34ADFF871
:10462000C492012B18BF1646642504E0013DC4D096
:104630000A20FEF7BDFA07F10803002237212046C1
:1046400002F0B6FA0028B8D1BB6813EA090FB4D15A
:1046500007F1080332462921204602F081FA00289A
:10466000ABD1BB68002BE1DA5B0003D5236B43F0D1
:104670001003236304F1080300220221204602F004
:104680008FFB002899D1024604F13803032120460C
:1046900002F08EFA002890D104F118052B46A26B87
:1046A0000921204602F07CFB002886D13B1DA26B2D
:1046B0000721204602F07CFA824600287FF47DAF75
:1046C000236B03F00F03022B00F097806E467E22CF
:1046D00090B07F212846FFF7F3FA0DF10809002872
:1046E00079D10146B546204602F0C2F9236B03F0AA
:1046F0000F03022B00F096802846FFF721FBA062F3
:104700003B1D4FF400721021204602F051FA05467D
:1047100000287FF452AF7B68724E33427FF44DAF76
:10472000236B03F00F03012B40F2B280022B7FF4C6
:1047300044AFE36A1A79012A00F0A88017D3022A4D
:1047400040F0E2806A4E1979204602F0C1F907F183
:10475000080332460621204602F02AFA00287FF498
:104760002CAFBA685F4B1340002B7FF426AF0523B4
:10477000237128E7022323635E4E642505E0013D93
:104780003FF41BAF0A20FEF713FA07F10803324685
:104790000121204602F0E4F900287FF40EAFBB6847
:1047A000002BECDA5B007FF565AF5FE74C48FDF767
:1047B0004FFCE2E6024607F108033721204602F0EB
:1047C000F7F900287FF4F9AEBA68464B1340002B86
:1047D0007FF4F3AE1BE7CDF800A006234022494644
:1047E000204602F00DFB00284ED199F80D3013F051
:1047F000020337D11946B54675E7E36A1B687BB1FA
:1048000007F108033C4A0621204602F0D1F938B9E5
:10481000BB6834491940B1FA81F1490963E7B546EB
:10482000002160E77E227F212846FFF749FA012810
:104830007FF662AFE36A1D68002D3FF4BEAE002331
:1048400000934FF4007208232946204602F0D8FA5C
:1048500000287FF4B2AE2846FFF7B2FAA0624FE715
:10486000FCF73EFD254B0093402206234946204697
:1048700002F0C6FA40B999F8103003F00F030F2B7D
:10488000CDD0B54601212EE7B54696E61C4E5AE737
:10489000E36A197900293FF46AAF01297FF48DAEEC
:1048A000204602F015F907F10803A26B37212046D4
:1048B00002F07EF900287FF480AEBB6833427FF4BB
:1048C0007CAE07F1080302220621204602F070F9AF
:1048D00000287FF472AEBB6833423FF448AF6CE609
:1048E00050CE000808E0FFFD000010C0000010805E
:1048F0000002B7030080FFC00001B903F1FFFF8091
:104900000001B703000800200248034EFDF7A0FB9A
:10491000E36A18E730CE00080000B703000000008B
:104920002DE9F041194D82B02C6801940F46904654
:104930001E460446C0B1BAB1B3B12379052B02D0EB
:104940001348FDF785FB781EA36A304498420FD9BF
:10495000636B43F0800363630120019A2B689A42E2
:1049600011D102B0BDE8F0810948FDF771FBE4E721
:1049700006203346207142463946204602F0A0FB0D
:1049800005232371E9E7FCF7ABFC00BF000800201A
:1049900070CE0008000000000000000000000000D1
:1049A0002DE9F041194D82B02C6801940F469046D4
:1049B0001E460446C0B1BAB1B3B12379052B02D06B
:1049C0001348FDF745FB781EA36A304498420FD97F
:1049D000636B43F0800363630120019A2B689A4262
:1049E00011D102B0BDE8F0810948FDF731FBE4E7E1
:1049F00007203346207142463946204602F0A0FB8C
:104A000005232371E9E7FCF76BFC00BF00080020D9
:104A100080CE000800000000000000000000000040
:104A200070B50E4D82B02B680193044680B1267993
:104A3000052E06D00120019A2B689A420CD102B0B3
:104A400070BD08232371204602F0BAFB2671F2E7FD
:104A50000348FDF7FDFAEAE7FCF742FC00080020F6
:104A600090CE0008000000000000000000000000E0
:104A700070B5124D124E2B6882B0044601936B46FE
:104A8000A26B0D21204602F093F878B9009B3342C7
:104A90000BD1C3F34323042B08D04FF0010005D3FF
:104AA000072B03D8FEF784F8E9E70120019A2B6869
:104AB0009A4201D102B070BDFCF712FC0008002040
:104AC00008E0FFFD00000000000000000000000002
:104AD00070B52D4E82B033680193044600284CD047
:104AE000202383F31188FEF7F3FAFDF751FB2379B6
:104AF000022B29D0052B21D104232371FDF768FB5C
:104B0000FEF7FEFA214B1A689A4204D0996993681D
:104B10008A689A4229D3002383F311882046FFF73D
:104B2000A7FF0546204601F0BBFF02232371019A2F
:104B300033689A42284624D102B070BD1448FDF76C
:104B400087FA2379022BD7D1FDF742FBFEF7D8FA7B
:104B50000E4B1A689A4204D0996993688A689A42FF
:104B600007D3002585F31188E1E70A48FDF770FABD
:104B7000D1E70848FDF76CFAF3E70548FDF768FA56
:104B8000AEE7FCF7ADFB00BF00080020B812002024
:104B900060CE0008B0CE0008000000000000000059
:104BA00000B5074B83B01A680192019A1B689A42BC
:104BB00004D103B05DF804EB01F01ABFFCF790FBE1
:104BC00000080020000000000000000000000000BD
:104BD00010B50A4B0A4A1968026082B0012401919B
:104BE00001991A680471002391424363C0E90A33B2
:104BF00001D102B010BDFCF773FB00BF000800201C
:104C0000C0CE00080000000000000000000000000E
:104C100030B5084C83B025680195019D2468A542F4
:104C200005D10C3003B0BDE83040FEF761BDFCF7A4
:104C300057FB00BF0008002000000000000000003B
:104C400010B5094B82B01C680194019C1B689C4202
:104C500007D10C304FF0FF3302B0BDE81040FEF733
:104C600047BDFCF73DFB00BF00080020000000002E
:104C700030B5084C83B025680195019D2468A54294
:104C800005D1303003B0BDE83040FEF769BEFCF717
:104C900027FB00BF0008002000000000000000000B
:104CA00010B5094B82B01C680194019C1B689C42A2
:104CB00007D130304FF0FF3302B0BDE81040FEF7AF
:104CC0004FBEFCF70DFB00BF0008002000000000F5
:104CD00000B5084B83B01A680192019A1B689A428A
:104CE00005D10C3003B05DF804EBFEF7B1BCFCF766
:104CF000F7FA00BF000800200000000000000000DC
:104D000000B5094B83B01A680192019A1B689A4258
:104D100007D10C304FF0FF3103B05DF804EBFEF724
:104D200097BCFCF7DDFA00BF00080020000000007F
:104D300010B5084B82B01C680194019C1B689C4212
:104D400005D1303002B0BDE81040FEF771BDFCF770
:104D5000C7FA00BF000800200000000000000000AB
:104D600000B5094B83B01A680192019A1B689A42F8
:104D700007D130304FF0FF3203B05DF804EBFEF79F
:104D800057BDFCF7ADFA00BF00080020000000008E
:104D900000B5074B83B01A680192019A1B689A42CA
:104DA00004D103B05DF804EB03F0DABCFCF798FA29
:104DB00000080020000000000000000000000000CB
:104DC000F0B5144D144B2F68044685B040F8043BF1
:104DD0004FF0010C00940B461646606084F808C042
:104DE00004F1540104F10C0010220397FEF7E0FBDC
:104DF00033461022009404F1640104F13000FEF700
:104E0000F7FC039A2B689A4201D105B0F0BDFCF77C
:104E100067FA00BF00080020F0CE00080000000084
:104E200070B5174D82B004462B6801930E46FDF70E
:104E30007FFAF4B1FDF77CFA636963B1314604F19E
:104E40000C00FEF7D5FB0028019A2B6808DB9A427C
:104E500013D102B070BD04216018FEF779FBEDE7B5
:104E60009A420AD1201D802102B0BDE87040FEF7B1
:104E70006FBB0448FDF7ECF8DCE7FCF731FA00BF44
:104E800000080020E0CE0008000000000000000044
:104E900000B5064B83B01A680192019A1B689A42CA
:104EA00002D103B05DF804FBFCF71AFA00080020F9
:104EB00000B5074B83B01A680192019A1B689A42A9
:104EC00004D103B05DF804EB02F0FABFFCF708FA76
:104ED00000080020000000000000000000000000AA
:104EE00000B50A4B83B01A68019201220270019941
:104EF0001A6800239142C0E9013305D10C3003B098
:104F00005DF804EBFEF744B9FCF7EAF9000800206D
:104F100000B5074B83B01A680192019A1B689A4248
:104F200004D103B05DF804EB03F012BBFCF7D8F931
:104F30000008002000000000000000000000000049
:104F400000B5074B83B01A680192019A1B689A4218
:104F500004D103B05DF804EB02F0AABBFCF7C0F982
:104F60000008002000000000000000000000000019
:104F700000B50C4B83B01A680192012202700199AE
:104F80001A6800239142C36183620362C362436271
:104F90000363C0E9013302D103B05DF804FBFCF701
:104FA0009FF900BF00080020000000000000000082
:104FB000F0B5124D83B004462B6801930E46FDF701
:104FC000B7F9A4B1012000FA06F362899BB212EA94
:104FD000030706D1134320466381314602F080FE69
:104FE0003846019A2B689A4205D103B0F0BD0448B7
:104FF000FDF72EF8E6E7FCF773F900BF0008002084
:1050000010CF0008000000000000000000000000B9
:10501000F0B5124D83B004462B6801930E46FDF7A0
:1050200087F9A4B1012000FA06F322899BB212EAA3
:10503000030706D1134320462381314602F070FE58
:105040003846019A2B689A4205D103B0F0BD044856
:10505000FCF7FEFFE6E7FCF743F900BF000800207D
:1050600030CF000800000000000000000000000039
:1050700010B50D4A82B01168019102210170019CA6
:10508000116800228C42C264C0E90222C0E90422F5
:10509000826180F8342004D102B0BDE8104002F0F3
:1050A00037BBFCF71DF900BF00080020000000001E
:1050B000F0B5C34D83B0044600222B6880F834203D
:1050C00000F14402019302F0FBFB63689B68002B34
:1050D00036D02046984798B3E16B94F8443094F862
:1050E0004B0094F84A2042EA00228A422CBF0A462A
:1050F000E2631806E16800F1A680002A00F08480CF
:10510000042384F834308B69A16BD96000265A607F
:105110001E709E603146204602F0EAFB202383F396
:105120001188FEF705F8FDF773F831462046FFF7C2
:105130003FFFFDF78DF8FEF713F886F3118816E0B0
:1051400094F8443013F06006184617D0002120462A
:1051500002F02EFE0021204602F00AFE63681B6862
:1051600013B1052120469847062384F83430019A6C
:105170002B689A4240F03A8103B0F0BD94F8451094
:1051800003F07F0242EA0122B2F5407F00F0058180
:1051900017D9B2F5C06F00F0C68040F28A80B2F530
:1051A000106F64D040F602418A4200F0D880B2F518
:1051B000006FCBD104F14F0201212664C4E90E2116
:1051C0008DE7022A00F0D28040F29280B2F5807F13
:1051D00060D0B2F5817FB9D194F84630002BB5D1BB
:1051E00094F8483013F00F0107D01F06204600F155
:1051F000F38002F0FDFD94F844000023C4E90E336F
:1052000023640306E16829D4052384F834304B690C
:1052100000261E70DE605E609E603146204602F011
:1052200007FC202383F31188FDF782FFFCF7F0FFD2
:1052300031462046FFF7ECFEFDF70AF8FDF790FF38
:1052400086F3118893E74AB1012384F834304B691F
:10525000A16BD96000265A601E70DDE7032384F835
:1052600034308B6900261E70DE605E6051E794F872
:10527000463084F84F30002B40F09E80032323708B
:1052800063681B68002BB8D020460221984794F829
:105290004400B2E794F84630012B7FF457AFB4F8DE
:1052A0004C30A66323F00203C4E90F66A4F84C3027
:1052B000A7E740F202339A4222D0B2F5A06F7FF402
:1052C00045AFB4F84430B3F5A06F96D194F84630AA
:1052D00084F84E30204602F093FA63681B6813B1DD
:1052E000012120469847032394F84400237084E763
:1052F00092BB04F14C0002212264C4E90E01EEE6E7
:1053000094F84630002B7FF421AF94F8483013F026
:105310000F013FF472AF1E06204662D402F028FD52
:1053200094F8440069E794F84900616894F84830BB
:105330004F6894F8462094F8471043EA002320462B
:10534000B84700283FF402AF4368A363016894F8AC
:105350004430C4E90F16C2E6012A7FF4F7AE194AB9
:10536000A26302210022C4E90F12B8E694F8483083
:1053700003F00F011B06204628D402F061FA012831
:1053800028D002287FF4E2AE0F4BA3630221002352
:10539000C4E90F1394F84430A1E694F84630012B89
:1053A0007FF4D4AEB4F84C30A66343F00203C4E9F2
:1053B0000F66A4F84C3024E70423237060E700BF95
:1053C0000008002090CF000870CF000802F058FAC3
:1053D0000128D6D1064BD8E702F02AFD94F8440004
:1053E0000BE702F0E5FC94F8440006E7FBF778FFD2
:1053F00080CF000800000000000000000000000056
:1054000070B5454D90F834302A6882B00446019258
:10541000062B57D8DFE803F004255404041E0700C8
:105420003E48FCF715FE0021204602F0C1FC002199
:10543000204602F09DFC63681B6813B105212046DD
:105440009847062384F83430019A2B689A4261D138
:1054500002B070BD036C03B19847002384F8343068
:10546000F2E790F84B0094F84A20E16BE36842EAD7
:105470000022914205D21A8AB1FBF2F602FB1616FF
:1054800056B3032284F834209B6900261E70DE6028
:10549000C3E901663146204602F02AFA202383F34D
:1054A0001188FDF745FEFCF7B3FE31462046FFF7B5
:1054B0007FFDFCF7CDFEFDF753FE86F31188C3E7B1
:1054C000C368DEE7019A2B689A4223D1134802B0E1
:1054D000BDE87040FCF7BCBD5B6931461E70DE6004
:1054E000C3E90166204602F0A3FA202383F3118862
:1054F000FDF71EFEFCF78CFE31462046FFF788FDC7
:10550000FCF7A6FEFDF72CFE86F31188022384F833
:10551000343099E7FBF7E4FE0008002050CF000884
:1055200070B5304D90F834302A6882B0044601924C
:10553000062B4AD8DFE803F00404043D1E040700EC
:105540002948FCF785FD0021204602F031FC0021AE
:10555000204602F00DFC63681B6813B1052120464C
:105560009847062384F83430019A2B689A4236D142
:1055700002B070BDC368052280F834205B69002644
:105580001E70DE60C3E90166314602F051FA202345
:1055900083F31188FDF7CCFDFCF73AFE3146204637
:1055A000FFF736FDFCF754FEFDF7DAFD86F31188B0
:1055B000DAE7C3689B699B68002BD5D1036C03B104
:1055C0009847002384F83430CEE7019A2B689A423A
:1055D00005D1054802B0BDE87040FCF739BDFBF7C6
:1055E0007FFE00BF0008002060CF00080000000020
:1055F00030B54309104D83B09B002A68019200F139
:10560000604403F1604303F561430122090104F59D
:10561000614400F01F0002FA00F0C9B284F80013E0
:10562000C3F880011860019A2B689A4201D103B037
:1056300030BDFBF755FE00BF000800200000000051
:1056400070B50D4E82B0336801930C2804460D46A8
:1056500002D90A48FCF7FCFC04F1604000F56D40FB
:105660002D01EDB20576019A33689A4201D102B05C
:1056700070BDFBF735FE00BF00080020A0CF00087A
:1056800010B50F4C82B023680193FDF7E9FCFCF7DD
:10569000FFFD0C4B0C4A196801F03D01996013683D
:1056A0000BB150689847FCF71BFE019A23689A4299
:1056B00004D102B0BDE81040FEF78ABAFBF710FE35
:1056C000000800200060024058190020000000007F
:1056D00030B5104C83B023680193FDF7C1FCFCF793
:1056E000D7FD0D4B0D4819688268890901F03D010D
:1056F0008D019D600AB1C0689047FCF7F1FD019AE9
:1057000023689A4204D103B0BDE83040FEF760BA86
:10571000FBF7E6FD00080020006002405819002059
:1057200030B5104C83B023680193FDF799FCFCF76A
:10573000AFFD0D4B0D4819680269090C01F03D01E0
:105740000D049D600AB140699047FCF7C9FD019ABC
:1057500023689A4204D103B0BDE83040FEF738BA5E
:10576000FBF7BEFD00080020006002405819002031
:1057700030B5104C83B023680193FDF771FCFCF742
:1057800087FD0D4B0D4819688269890D01F03D01B7
:105790008D059D600AB1C0699047FCF7A1FD019A93
:1057A00023689A4204D103B0BDE83040FEF710BA36
:1057B000FBF796FD00080020006002405819002009
:1057C00010B50F4C82B023680193FDF749FCFCF73C
:1057D0005FFD0C4B0C485968026A01F03D01D9602D
:1057E0000AB1406A9047FCF77BFD019A23689A4210
:1057F00004D102B0BDE81040FEF7EAB9FBF770FD36
:10580000000800200060024058190020000000003D
:1058100030B5104C83B023680193FDF721FCFCF7F1
:1058200037FD0D4B0D485968826A890901F03D0129
:105830008D01DD600AB1C06A9047FCF751FD019A05
:1058400023689A4204D103B0BDE83040FEF7C0B9E6
:10585000FBF746FD000800200060024058190020B8
:1058600030B5104C83B023680193FDF7F9FBFCF7CA
:105870000FFD0D4B0D485968026B090C01F03D01FD
:105880000D04DD600AB1406B9047FCF729FD019AD9
:1058900023689A4204D103B0BDE83040FEF798B9BE
:1058A000FBF71EFD00080020006002405819002090
:1058B00030B5104C83B023680193FDF7D1FBFCF7A2
:1058C000E7FC0D4B0D485968826B890D01F03D01D5
:1058D0008D05DD600AB1C06B9047FCF701FD019AB0
:1058E00023689A4204D103B0BDE83040FEF770B996
:1058F000FBF7F6FC00080020006002405819002069
:1059000010B50F4C82B023680193FDF7A9FBFCF79B
:10591000BFFC0C4B0C481968026C01F03D0199600A
:105920000AB1406C9047FCF7DBFC019A23689A426D
:1059300004D102B0BDE81040FEF74AB9FBF7D0FC35
:1059400000080020006402405819002000000000F8
:1059500030B5104C83B023680193FDF781FBFCF751
:1059600097FC0D4B0D481968826C890901F03D01C7
:105970008D019D600AB1C06C9047FCF7B1FC019AA3
:1059800023689A4204D103B0BDE83040FEF720B945
:10599000FBF7A6FC00080020006402405819002014
:1059A00030B5104C83B023680193FDF759FBFCF729
:1059B0006FFC0D4B0D481968026D090C01F03D019B
:1059C0000D049D600AB1406D9047FCF789FC019A77
:1059D00023689A4204D103B0BDE83040FEF7F8B81E
:1059E000FBF77EFC000800200064024058190020EC
:1059F00030B5104C83B023680193FDF731FBFCF701
:105A000047FC0D4B0D481968826D890D01F03D0171
:105A10008D059D600AB1C06D9047FCF761FC019A4D
:105A200023689A4204D103B0BDE83040FEF7D0B8F5
:105A3000FBF756FC000800200064024058190020C3
:105A400010B50F4C82B023680193FDF709FBFCF7FA
:105A50001FFC0C4B0C485968026E01F03D01D960E7
:105A60000AB1406E9047FCF73BFC019A23689A42CA
:105A700004D102B0BDE81040FEF7AAB8FBF730FC35
:105A800000080020006402405819002000000000B7
:105A900030B5104C83B023680193FDF7E1FAFCF7B1
:105AA000F7FB0D4B0D485968826E890901F03D01E5
:105AB0008D01DD600AB1C06E9047FCF711FC019AC0
:105AC00023689A4204D103B0BDE83040FEF780B8A5
:105AD000FBF706FC00080020006402405819002073
