:020000040800F2
:1000000000040020C1010008011F0008011F0008B2
:10001000E1170008011F0008011F0008011F000868
:10002000011F0008011F0008011F0008113C000803
:10003000011F0008011F0008011F0008B1980008F7
:10004000011F0008B16C0008416E0008916E0008A5
:10005000011F0008011F0008F1690008416A00083B
:10006000916A0008E16A0008316B000881600008AD
:10007000D16000082161000871610008C1610008B9
:1000800011620008616200086168000831700008B0
:10009000A17000085171000801720008816B00080E
:1000A000011F0008011F0008C1910008011F00087E
:1000B00071940008B1940008F1940008017E0008D2
:1000C000417F0008011F0008011F0008011F0008F0
:1000D000011F0008011F0008011F00087199000896
:1000E000116C0008016D0008516D000801920008B4
:1000F000011F0008011F0008011F0008B16200086D
:10010000011F00089173000831950008011F0008C5
:10011000011F0008011F000881910008011F00084D
:100120000163000851630008A1630008F16300083F
:1001300041640008011F0008A16D0008011F0008AC
:10014000011F0008011F0008011F0008C18D0008E1
:1001500091640008E164000831650008011F00088F
:10016000011F0008011F0008011F0008011F0008EF
:10017000F16D0008011F0008D1150008011F0008DB
:10018000011F0008011F0008011F0008011F0008CF
:10019000011F0008011F0008011F0008011F0008BF
:1001A000011F0008011F0008011F0008011F0008AF
:1001B000011F0008011F0008011F0008011F00089F
:1001C00072B62E4880F3098840F20000CCF200009D
:1001D0004EF63471CEF20001086040F20000C0F229
:1001E000F0004EF68851CEF2000108604FF000009A
:1001F000E1EE100A4EF63C71CEF2000108600620D6
:1002000080F31488BFF36F8F09F0FAFC4FF055307C
:100210001B491C4A91423CBF41F8040BFAE71A49BA
:10022000164A91423CBF41F8040BFAE71749184AB5
:10023000184B9A423EBF51F8040B42F8040BF8E702
:1002400000201549154A91423CBF41F8040BFAE7DA
:1002500001F03EFE124C134DAC4203DA54F8041B7D
:100260008847F9E701F024F80F4C104DAC4203DA4F
:1002700054F8041B8847F9E701F03ABE0008002053
:1002800000000020000400200004002058E70008BF
:1002900000080020D4110020D811002010E4002014
:1002A000C0010008C0010008C0010008C00100082A
:1002B0002DE9F04F2DED108AC1F80CD0D0F80CD0FC
:1002C000BDEC108ABDE8F08F01F05AFF02F018FF74
:1002D000002383F311882846A047002002F0E0FCA9
:1002E00002F0F6FE01F02CFF02F04AFB01F048FF9D
:1002F00002F006FF00DFFEE7000000000000000043
:1003000081F0004102E000BF83F0004330B54FEAC6
:1003100041044FEA430594EA050F08BF90EA020F33
:100320001FBF54EA000C55EA020C7FEA645C7FEAC6
:10033000655C00F0E2804FEA5454D4EB5555B8BFE9
:100340006D420CDD2C4480EA020281EA030382EA5A
:10035000000083EA010180EA020281EA0303362DEC
:1003600088BF30BD11F0004F4FEA01314FF4801CBF
:100370004CEA113102D0404261EB410113F0004FD1
:100380004FEA03334CEA133302D0524263EB430388
:1003900094EA050F00F0A780A4F10104D5F1200E26
:1003A0000DDB02FA0EFC22FA05F2801841F1000181
:1003B00003FA0EF2801843FA05F359410EE0A5F155
:1003C00020050EF1200E012A03FA0EFC28BF4CF086
:1003D000020C43FA05F3C01851EBE37101F000453C
:1003E00007D54FF0000EDCF1000C7EEB00006EEB49
:1003F0000101B1F5801F1BD3B1F5001F0CD34908D3
:100400005FEA30004FEA3C0C04F101044FEA445229
:1004100012F5800F80F09A80BCF1004F08BF5FEAB0
:10042000500C50F1000041EB045141EA050130BD90
:100430005FEA4C0C404141EB010111F4801FA4F133
:100440000104E9D191F0000F04BF01460020B1FA88
:1004500081F308BF2033A3F10B03B3F120020CDAC0
:100460000C3208DD02F1140CC2F10C0201FA0CF09E
:1004700021FA02F10CE002F11402D8BFC2F1200C03
:1004800001FA02F120FA0CFCDCBF41EA0C019040B9
:10049000E41AA2BF01EB0451294330BD6FEA040402
:1004A0001F3C1CDA0C340EDC04F11404C4F12002ED
:1004B00020FA04F001FA02F340EA030021FA04F3FF
:1004C00045EA030130BDC4F10C04C4F1200220FA56
:1004D00002F001FA04F340EA0300294630BD21FA94
:1004E00004F0294630BD94F0000F83F4801306BF5A
:1004F00081F480110134013D4EE77FEA645C18BF4E
:100500007FEA655C29D094EA050F08BF90EA020FE4
:1005100005D054EA000C04BF1946104630BD91EADC
:10052000030F1EBF0021002030BD5FEA545C05D1DF
:100530004000494128BF41F0004130BD14F580041E
:100540003CBF01F5801130BD01F0004545F0FE4192
:1005500041F470014FF0000030BD7FEA645C1ABFC7
:10056000194610467FEA655C1CBF0B46024650EAFE
:10057000013406BF52EA033591EA030F41F400212A
:1005800030BD00BF90F0000F04BF0021704730B5B0
:100590004FF4806404F132044FF000054FF0000185
:1005A00050E700BF90F0000F04BF0021704730B546
:1005B0004FF4806404F1320410F0004548BF40421B
:1005C0004FF000013EE700BF42004FEAE2014FEA70
:1005D00031014FEA02701FBF12F07F4393F07F4F4B
:1005E00081F06051704732F07F4208BF704793F04E
:1005F0007F4F04BF41F40021704730B54FF4607461
:1006000001F0004521F000411CE700BF50EA010263
:1006100008BF704730B54FF000050AE050EA01020C
:1006200008BF704730B511F0004502D5404261EB7C
:1006300041014FF4806404F132045FEA915C3FF4BD
:10064000D8AE4FF003025FEADC0C18BF03325FEA5A
:10065000DC0C18BF033202EBDC02C2F1200300FA0B
:1006600003FC20FA02F001FA03FE40EA0E0021FA30
:1006700002F11444BDE600BF0000000000000000CD
:1006800070B54FF0FF0C4CF4E06C1CEA11541DBF28
:100690001CEA135594EA0C0F95EA0C0F00F0DEF8F3
:1006A0002C4481EA030621EA4C5123EA4C5350EAD8
:1006B000013518BF52EA033541F4801143F4801329
:1006C00038D0A0FB02CE4FF00005E1FB02E506F0BA
:1006D0000042E0FB03E54FF00006E1FB03569CF00F
:1006E000000F18BF4EF0010EA4F1FF04B6F5007F15
:1006F00064F5407404D25FEA4E0E6D4146EB060687
:1007000042EAC62141EA55514FEAC52040EA5E500F
:100710004FEACE2EB4F1FD0C88BFBCF5E06F1ED8B9
:10072000BEF1004F08BF5FEA500E50F1000041EBF0
:10073000045170BD06F0004646EA010140EA02009D
:1007400081EA0301B4EB5C04C2BFD4EB0C0541EABF
:10075000045170BD41F480114FF0000E013C00F3D4
:10076000AB8014F1360FDEBF002001F0004170BDF8
:10077000C4F10004203C35DA0C341BDC04F1140411
:10078000C4F1200500FA05F320FA04F001FA05F29D
:1007900040EA020001F0004221F0004110EBD3706A
:1007A00021FA04F642EB06015EEA430E08BF20EA96
:1007B000D37070BDC4F10C04C4F1200500FA04F339
:1007C00020FA05F001FA04F240EA020001F00041CB
:1007D00010EBD37041F100015EEA430E08BF20EA3E
:1007E000D37070BDC4F1200500FA05F24EEA020E86
:1007F00020FA04F301FA05F243EA020321FA04F0B5
:1008000001F0004121FA04F220EA020000EBD3706B
:100810005EEA430E08BF20EAD37070BD94F0000F6B
:100820000FD101F00046400041EB010111F4801F9F
:1008300008BF013CF7D041EA060195F0000F18BF50
:10084000704703F00046520043EB030313F4801F8C
:1008500008BF013DF7D043EA0603704794EA0C0F46
:100860000CEA135518BF95EA0C0F0CD050EA41065C
:1008700018BF52EA4306D1D181EA030101F00041D9
:100880004FF0000070BD50EA410606BF1046194601
:1008900052EA430619D094EA0C0F02D150EA01360D
:1008A00013D195EA0C0F05D152EA03361CBF10464E
:1008B00019460AD181EA030101F0004141F0FE41ED
:1008C00041F470014FF0000070BD41F0FE4141F471
:1008D000780170BD70B54FF0FF0C4CF4E06C1CEA71
:1008E00011541DBF1CEA135594EA0C0F95EA0C0F26
:1008F00000F0A7F8A4EB050481EA030E52EA0335E1
:100900004FEA013100F088804FEA03334FF0805501
:1009100045EA131343EA12634FEA022245EA11152E
:1009200045EA10654FEA00260EF000419D4208BFDF
:10093000964244F1FD0404F5407402D25B084FEA8C
:100940003202B61A65EB03055B084FEA32024FF438
:1009500080104FF4002CB6EB020E75EB030E22BF95
:10096000B61A754640EA0C005B084FEA3202B6EB55
:10097000020E75EB030E22BFB61A754640EA5C0004
:100980005B084FEA3202B6EB020E75EB030E22BF94
:10099000B61A754640EA9C005B084FEA3202B6EB95
:1009A000020E75EB030E22BFB61A754640EADC0054
:1009B00055EA060E18D04FEA051545EA16754FEAB6
:1009C00006164FEAC30343EA52734FEAC2025FEAD4
:1009D0001C1CC0D111F4801F0BD141EA00014FF063
:1009E00000004FF0004CB6E711F4801F04BF014334
:1009F0000020B4F1FD0C88BFBCF5E06F3FF6AFAE50
:100A0000B5EB030C04BFB6EB020C5FEA500C50F1DF
:100A1000000041EB045170BD0EF0004E4EEA113162
:100A200014EB5C04C2BFD4EB0C0541EA045170BD69
:100A300041F480114FF0000E013C90E645EA060EAD
:100A40008DE60CEA135594EA0C0F08BF95EA0C0FDB
:100A50003FF43BAF94EA0C0F0AD150EA01347FF423
:100A600034AF95EA0C0F7FF425AF104619462CE7FA
:100A700095EA0C0F06D152EA03353FF4FDAE10465D
:100A8000194622E750EA410618BF52EA43067FF4AE
:100A9000C5AE50EA41047FF40DAF52EA43057FF43E
:100AA000EBAE12E7000000000000000000000000B4
:100AB0004FF0FF3C06E000BF4FF0010C02E000BF2A
:100AC0004FF0010C4DF804CD4FEA410C7FEA6C5C0D
:100AD0004FEA430C18BF7FEA6C5C1BD001B050EAB0
:100AE000410C0CBF52EA430C91EA030F02BF90EA9B
:100AF000020F0020704710F1000F91EA030F58BF5A
:100B0000994208BF90422CBFD8176FEAE37040F0BB
:100B1000010070474FEA410C7FEA6C5C02D150EA59
:100B2000013C07D14FEA430C7FEA6C5CD6D152EA14
:100B3000033CD3D05DF8040B704700BF84461046D9
:100B400062468C461946634600E000BF01B5FFF7D8
:100B5000B7FF002848BF10F1000F01BD4DF808EDA8
:100B6000FFF7F4FF0CBF012000205DF808FB00BF79
:100B70004DF808EDFFF7EAFF34BF012000205DF8D3
:100B800008FB00BF4DF808EDFFF7E0FF94BF012020
:100B900000205DF808FB00BF4DF808EDFFF7CEFF21
:100BA00094BF012000205DF808FB00BF4DF808ED60
:100BB000FFF7C4FF34BF012000205DF808FB00BF31
:100BC0004FEA410212F5001215D211D56FF4787375
:100BD000B3EB625212D94FEAC12343F0004343EA18
:100BE000505311F0004F23FA02F018BF40427047F3
:100BF0004FF00000704750EA013005D111F000407D
:100C000008BF6FF0004070474FF00000704700BF12
:100C10004FEA4102B2F1E04324BFB3F5001CDCF11E
:100C2000FE5C0DD901F0004C4FEAC0024CEA507056
:100C3000B2F1004F40EB830008BF20F00100704785
:100C400011F0804F21D113F13872BCBF01F0004088
:100C5000704741F480114FEA5252C2F11802C2F1BA
:100C6000200C10FA0CF320FA02F018BF40F001003B
:100C70004FEAC1234FEAD32303FA0CFC40EA0C00ED
:100C800023FA02F34FEA4303CCE77FEA625307D12A
:100C900050EA01331EBF4FF0FE4040F44000704761
:100CA00001F0004040F0FE4040F40000704700BFFB
:100CB00053B94AB9002908BF00281CBF4FF0FF31C3
:100CC0004FF0FF3000F074B9ADF1080C6DE904CEBF
:100CD00000F006F8DDF804E0DDE9022304B0704717
:100CE0002DE9F047089E04468846002B4BD18A42E6
:100CF000154667D9B2FA82F24AB1C2F1200701FA69
:100D000002F320FA07F7954047EA030894404FEAB8
:100D1000154E230CB8FBFEF71FFA85FC0EFB178857
:100D200043EA084307FB0CF1994209D9EB1807F194
:100D3000FF3080F01B81994240F21881023F2B4422
:100D40005B1AA4B2B3FBFEF00EFB103344EA03447B
:100D500000FB0CFCA44509D92C1900F1FF3380F0ED
:100D60000781A44540F2048102382C4440EA074040
:100D7000A4EB0C0400271EB1D4400023C6E90043B5
:100D80003946BDE8F0878B4209D9002E00F0EB8090
:100D90000027C6E9000138463946BDE8F087B3FAB6
:100DA00083F7002F47D18B4202D3824200F2FA80B0
:100DB000841A61EB030301209846002EE0D0C6E9B7
:100DC0000048DDE702B9FFDEB2FA82F2002A40F005
:100DD0008F80491B4FEA154E1FFA85F80127B1FB9A
:100DE000FEFC230C0EFB1C1143EA014308FB0CF133
:100DF000994207D9EB180CF1FF3002D2994200F268
:100E0000CD808446591AA3B2B1FBFEF00EFB10143C
:100E100043EA044408FB00F8A04507D92C1900F167
:100E2000FF3302D2A04500F2B6801846A4EB0804B6
:100E300040EA0C409FE7C7F1200CBB4022FA0CFEB1
:100E40004EEA030E01FA07F420FA0CF521FA0CF32E
:100E50004FEA1E482543B3FBF8F92C0C08FB193365
:100E60001FFA8EFA44EA034309FB0AF49C4202FA91
:100E700007F200FA07F10BD91EEB030309F1FF306B
:100E800080F087809C4240F28480A9F1020973447B
:100E90001B1BADB2B3FBF8F008FB103345EA03446B
:100EA00000FB0AFAA24508D91EEB040400F1FF3347
:100EB0006BD2A24569D90238744440EA0940A0FBCC
:100EC0000289A4EB0A044C45C2464B4654D351D088
:100ED000002E69D0B1EB0A0564EB030404FA0CFCA4
:100EE000FD40FC404CEA0505C6E90054002747E7F1
:100EF000C2F1200320FA03F7954001FA02F021FA2B
:100F000003F34FEA154E3843010CB3FBFEF71FFA0B
:100F100085F80EFB173341EA034107FB08F38B42C8
:100F200004FA02F407D9691807F1FF3C2FD28B426B
:100F30002DD9023F2944CB1A81B2B3FBFEF00EFB40
:100F4000103341EA034100FB08F38B4207D96918CB
:100F500000F1FF3C17D28B4215D902382944C91A37
:100F600040EA07473BE73746304609E70746E7E6EA
:100F70001846FBE64145ABD2B8EB020A69EB0E021C
:100F800001381346A4E76046E9E7184695E7674647
:100F9000D1E781467CE702382C4447E7ACF1020CEC
:100FA0002B442FE7384608E73746E9E60000000003
:100FB000704700BF000000000000000000000000BB
:100FC000844641EA000313F003036DD1403A41D354
:100FD00051F8043B40F8043B51F8043B40F8043B13
:100FE00051F8043B40F8043B51F8043B40F8043B03
:100FF00051F8043B40F8043B51F8043B40F8043BF3
:1010000051F8043B40F8043B51F8043B40F8043BE2
:1010100051F8043B40F8043B51F8043B40F8043BD2
:1010200051F8043B40F8043B51F8043B40F8043BC2
:1010300051F8043B40F8043B51F8043B40F8043BB2
:1010400051F8043B40F8043B51F8043B40F8043BA2
:10105000403ABDD2303211D351F8043B40F8043B42
:1010600051F8043B40F8043B51F8043B40F8043B82
:1010700051F8043B40F8043B103AEDD20C3205D352
:1010800051F8043B40F8043B043AF9D2043208D04A
:10109000D2071CBF11F8013B00F8013B01D30B88BC
:1010A00003806046704700BF082A13D38B078DD09A
:1010B00010F003038AD0C3F10403D21ADB071CBF6C
:1010C00011F8013B00F8013B80D331F8023B20F8D6
:1010D000023B7BE7043AD9D3013A11F8013B00F80F
:1010E000013BF9D20B7803704B7843708B78837097
:1010F0006046704700000000000000000000000093
:1011000090F800F06DE9024520F007016FF0000C47
:1011100010F0070491F820F040F049804FF00004EF
:101120006FF00700D1E9002391F840F000F10800CA
:1011300082FA4CF2A4FA8CF283FA4CF3A2FA8CF302
:101140004BBBD1E9022382FA4CF200F10800A4FA69
:101150008CF283FA4CF3A2FA8CF3E3B9D1E90423BD
:1011600082FA4CF200F10800A4FA8CF283FA4CF3F4
:10117000A2FA8CF37BB9D1E9062301F1200182FAAE
:101180004CF200F10800A4FA8CF283FA4CF3A2FAB4
:101190008CF3002BC6D0002A04BF04301A4612BAC2
:1011A000B2FA82F2FDE8024500EBD2007047D1E9C5
:1011B000002304F00305C4F100004FEAC50514F054
:1011C000040F91F840F00CFA05F562EA05021CBF25
:1011D00063EA050362464FF00004A9E7000000003F
:1011E00001F0FF01102A2BDB10F0070F08D010F8D8
:1011F000013B013A8B422DD010F0070F42B3F6D1DC
:10120000F0B441EA012141EA014122F007047FF0F4
:1012100000070023F0E80256083C85EA010586EA4B
:10122000010685FA47F5A3FA87F586FA47F6A5FA87
:1012300087F68EB9EED1F0BC01F0FF0102F0070293
:1012400032B110F8013B013A83EA010313B1F8D13E
:101250000020704701387047002D06BF354603381F
:10126000073815F0010F07D1013015F4807F02BF58
:10127000013015F4C03F0130F0BC0138704700BFA9
:101280004FEA410C7FEA6C5C02D150EA013C0AD182
:101290004FEA430C7FEA6C5C02D152EA033C02D174
:1012A0004FF0000070474FF0010070470000000051
:1012B000F0B51C4B1C4F1B6883B0019302F008FD76
:1012C00000F036FE00F034FA1849384603F048FEC4
:1012D00000F066FD1649174802F0EAFE4FF6FF716E
:1012E000144802F055FF00F083FC002000F040F8A5
:1012F0000546042000F03CF8294606464FF480627B
:10130000384600F0A5F8B0F5806F0446EDD12846C8
:101310002246314608F034FD22463146384600F078
:1013200067F8E2E70008002064E3002004080020DA
:10133000A0D80008D4E20020000000000000000057
:1013400000B5084B83B01A680192019A1B689A4253
:1013500005D1054803B05DF804EB00F051BEFFF77E
:10136000EFFF00BF0008002080D800080000000048
:1013700000B5164B83B01A68019288B1012817D0C6
:10138000022819D0032815D0042817D0052817D013
:10139000062817D00E4A07280CBF1046002000E090
:1013A0000C48019A1B689A420ED103B05DF804FB09
:1013B0000948F6E70948F4E70948F2E70948F0E781
:1013C0000948EEE70948ECE7FFF7BAFF00080020FC
:1013D000D8310020D8710020D8A10020D8110020D9
:1013E000D8410020D8910020D8C10020D861002029
:1013F00070B5124D036884B00446ADF806202A6823
:101400001B6803920E4605220D4998472368022265
:101410001B680DF10601204698472368BDF8062099
:101420001B689200314620469847039A2B689A42DF
:1014300001D104B070BDFFF783FF00BF000800209A
:10144000B0D800080000000000000000000000000C
:101450002DE9F041474D03682E68DB6882B04FF0FC
:10146000000C0196ADF802C004460E461746984798
:10147000C0B28DF8000004E020469847C0B28DF855
:1014800000009DF800309DF80030542B18BF9DF8E7
:1014900000309DF80030412B18BF9DF800309DF8BA
:1014A0000030522B18BF9DF800309DF800202368B3
:1014B000542ADB6809D09DF80020532ADCD120464D
:1014C0009847C0B28DF80000DDE7204698472368B2
:1014D000C0B2DB688DF8000020469847C0B28DF896
:1014E00001009DF800309DF8012043EA0223ADF889
:1014F0000230BDF80230B7EB530F0AD0BDF802003E
:10150000019A2B689A424FEA500030D102B0BDE8F0
:10151000F081BDF802305B08F0D04FF000080027E2
:1015200023682046DB6898472368C0B2DB688DF8E3
:10153000000020469847C0B28DF801009DF80030A9
:101540009DF80110BDF80220C6F8048043EA01238B
:101550001BB207EE903A0137F8EEE77ABFB2B7EB6D
:10156000520FC6ED007A06F10806D9D3C6E7FFF799
:10157000E7FE00BF0008002000000000000000009F
:1015800030B5104D81682B680F4A83B001930B680A
:1015900023F001030B608168946A03E0936A1B1BCC
:1015A000C72B09D8086810F00100F7D1019A2B6801
:1015B0009A4204D103B030BD4FF0FF30F6E7FFF799
:1015C000BFFE00BF0008002030D500200000000052
:1015D000F0B5284D83B02B68019301F041FD00F078
:1015E0002FFE254B1E69F20715D55A69234C42F090
:1015F00001025A612778BB1F012B2AD90522636893
:1016000022701B680BB120469847042F27D0022F69
:1016100025D003232370B30710D5174A174C5369FD
:1016200043F0020353612378032B1DD063689B684A
:101630000622227013B101211048984700F028FEBD
:10164000019A2B689A4213D103B0BDE8F04002F032
:10165000FFBA019A2B689A420AD103B0F0BD022367
:101660002370B307EAD5D8E72046FFF789FFDDE707
:10167000FFF766FE0008002000000550D8D10020CA
:101680002DE9F043254E83B034680194042A9DF877
:101690002890144605460F46984639D9B9F1000FEF
:1016A00014BF00224FF08052640002EB0863013C3B
:1016B0001C4405F00F0527F01F07202383F3118832
:1016C00001F006FD3D4300F03BFD154B1035DD609C
:1016D0001C6100F055FD01F013FD124B1A689A428F
:1016E00004D0996993688A689A420DD3002383F3E2
:1016F0001188BFF36F8FBFF34F8F019A33689A42FF
:101700000AD103B0BDE8F083074800F079FCEDE7AB
:10171000064800F075FCC1E7FFF712FE0008002044
:1017200090ED00E030D5002040D9000820D9000815
:1017300030B5224D224C2B68224A85B00393636852
:1017400043F004036360536A43F4803353622023FD
:1017500083F3118801F0BCFC00F0F2FC17221A4B55
:10176000E260236100F00CFD01F0CAFC174B1A681F
:101770009A4204D0996993688A689A4218D30020E3
:1017800080F31188BFF36F8FBFF34F8F03231D22A8
:1017900000904FF00051FFF773FF094A536843F080
:1017A00001035360039A2B689A4205D105B030BDFE
:1017B000074800F025FCE2E7FFF7C2FD0008002023
:1017C00090ED00E000ED00E00900001030D50020B1
:1017D00040D90008000000000000000000000000E8
:1017E00070B51A4D1A4C1B4E0FCD0FC49EB02A680F
:1017F000336822801D93EFF30981682203A8FFF765
:10180000DFFB154B9D6AAA0714D4EB0708D5124BD2
:1018100008995B6B114A00910D48802108F0B0FED9
:101820001D9A33689A420FD109481EB0BDE8704036
:1018300000F0E6BB099A5B6B0092A4F11000084A25
:10184000802108F09DFEE0E7FFF77AFD04D900084B
:10185000ECD100200008002000ED00E0E0D80008F6
:10186000C0D80008000000000000000000000000D8
:1018700000B51F4B0278196883B00191E2B11D4A8F
:101880004FF4005111834278EAB11A4A4FF4805163
:1018900011838278F2B1174A4FF480411183C278E4
:1018A000FAB9144A4FF400415183019A1B689A42D5
:1018B0001CD103B05DF804FB0E4A4FF40051518374
:1018C0004278002AE1D10B4A4FF48051518382784B
:1018D000002AE0D1074A4FF480415183C278002AA0
:1018E000DFD0044A4FF400411183DEE7FFF728FD03
:1018F000000800200010024000000000000000006E
:1019000000B51F4B0278196883B00191E2B11D4AFE
:101910004FF4007111834278EAB11A4A4FF4807192
:1019200011838278F2B1174A4FF400611183C278B3
:10193000FAB9144A4FF480615183019A1B689A42A4
:101940001CD103B05DF804FB0E4A4FF400715183C3
:101950004278002AE1D10B4A4FF48071518382789A
:10196000002AE0D1074A4FF400615183C278002A6F
:10197000DFD0044A4FF480611183DEE7FFF7E0FC1B
:1019800000080020001002400000000000000000DD
:1019900030B50C4A0C4B116883B04FF400550191DF
:1019A0004FF480544FF400414FF480405D835C83DA
:1019B0005883598301991368994201D103B030BD0E
:1019C000FFF7BEFC000800200010024000000000ED
:1019D00030B50C4A0C4B116883B04FF4007501917F
:1019E0004FF480744FF480614FF400605D835C833A
:1019F0005883598301991368994201D103B030BDCE
:101A0000FFF79EFC000800200010024000000000CC
:101A100010B50B4C0B48236882B09922002101932A
:101A200002F0CEFC019A23689A4206D105480021B3
:101A300002B0BDE8104002F0ABBDFFF781FC00BF73
:101A40000008002010E3002000000000000000005B
:101A500010B50B4C0B48236882B0992200210193EA
:101A600002F0AEFC019A23689A4206D10548002193
:101A700002B0BDE8104002F08BBDFFF761FC00BF73
:101A8000000800202CE300200000000000000000FF
:101A900000B5084B83B01A680192019A1B689A42FC
:101AA00006D10548002103B05DF804EB02F0D8BC74
:101AB000FFF746FC0008002010E3002000000000B3
:101AC00000B5084B83B01A680192019A1B689A42CC
:101AD00006D10548002103B05DF804EB02F0C0BC5C
:101AE000FFF72EFC000800202CE30020000000007F
:101AF00070B51A4C1A4E2378326882B0022B0192CC
:101B0000A26811D165781748013505F0070500EB8B
:101B10008500904763686570013B6360019A336894
:101B20009A4219D102B070BD012B08D001993368D7
:101B3000994211D10C4802B0BDE870401047657859
:101B40000848013D05F0070500EB850090476368F4
:101B5000657001336360E1E7FFF7F2FB84D2002098
:101B600000080020E0D90008D0D9000800000000DB
:101B700070B51A4C1A4E2378326882B0012B01924C
:101B8000A26811D165781748013505F0070500EB0B
:101B9000850090476368657001336360019A33681C
:101BA0009A4219D102B070BD022B08D00199336856
:101BB000994211D10C4802B0BDE8704010476578D9
:101BC0000848013D05F0070500EB85009047636874
:101BD0006570013B6360E1E7FFF7B2FB6CD2002068
:101BE00000080020E0D90008D0D90008000000005B
:101BF00070B51D4E1D4A1E4B30681E491E4C91602B
:101C000082B00021D46001901C4C1D481D4D9D6088
:101C1000117051705160106154611B481B4A1C4D7A
:101C2000D8601C48197059705960C3E90425FFF742
:101C30001FFE1848FFF764FE1749204602F070FBAC
:101C4000204602F05DFC2846144902F069FB019A27
:101C500033689A4205D1284602B0BDE8704002F0D0
:101C60004FBCFFF76DFB00BF0008002084D20020AE
:101C70006CD2002071180008111A000810E300202F
:101C8000911A000801190008511A0008C11A000829
:101C90002CE30020D0D9000890D9000850D90008C2
:101CA0000A490B4B09680B4A82B020200191402160
:101CB00058834FF4806559834FF400644FF480409B
:101CC00004215D835C8358835183FEE70008002074
:101CD000000C024000040240000000000000000070
:101CE00000B50F4B83B01868019002290CD003296E
:101CF0000CD001290B4818BF0020019A1B689A429A
:101D00000BD103B05DF804FB0748F6E7032A96BF42
:101D10000648002000EBC200EFE7FFF711FB00BF11
:101D200000080020E0DA000880DA000890DB0008F4
:101D300070B5154C82B02368019302291CD10D4661
:101D40000646202383F3118801F0F2F900F038FAF7
:101D500030460E4A012103F0A3FD29460C4A3046C5
:101D600003F09EFD0B4803F09BFB00F049FA01F0E5
:101D7000F7F9002383F31188019A23689A4201D16D
:101D800002B070BDFFF7DCFA0008002000DA00089E
:101D900030DA00089CD200200000000000000000A3
:101DA00030B5134D134C2B68134883B0019303F0E7
:101DB000EFFA1249104803F01BFB226D936B23F4DA
:101DC000002393634FF47A7000F0F2FE20460C4932
:101DD00003F016FD226D936B43F400239363019A85
:101DE0002B689A4201D103B030BDFFF7A9FA00BFBA
:101DF00000080020F0DF00209CD2002060DA0008FC
:101E000070DA000800000000000000000000000080
:101E100000B5084B83B01A680192019A1B689A4278
:101E200005D1054803B05DF804EB01F099BAFFF75E
:101E300087FA00BF00080020100800200000000002
:101E400000B5084B83B01A680192019A1B689A4248
:101E500005D1054803B05DF804EB01F0B9BAFFF70E
:101E60006FFA00BF000800201008002000000000EA
:101E700070B50D4C82B0236801930D1E06460DDD32
:101E8000284601F05DFE18B90C2333604FF0FF3097
:101E9000019A23689A4205D102B070BD034800F050
:101EA000AFF8EDE7FFF74CFA00080020B0DB0008C0
:101EB00000B5064B83B01A680192019A1B689A42DA
:101EC00002D103B05DF804FBFFF73AFA00080020E6
:101ED00000B5064B83B01A680192019A1B689A42BA
:101EE00002D103B05DF804FBFFF72AFA00080020D6
:101EF000024B82B01B680193FEE700BF0008002080
:101F000000B5044B04481B6883B0019300F078F8D7
:101F1000FEE700BF00080020C0DB00080000000052
:101F2000024B82B01B680193FEE700BF000800204F
:101F3000F0B5294E294B3268294885B00024039218
:101F40009C60D968274A4FF6FF0529400A43DA60AA
:101F5000C2682549254D42F08072C2600A6842F08D
:101F600001020A6010202022D87783F8222000F096
:101F7000DFFA00F045FA00F0FBFF01F0B9FD01F0D7
:101F800027FE01F04DF800F0FBF9402105F58860CF
:101F900000F01EFD0127164BC36180F82070A86178
:101FA00000F0A6F884F3118862B6AB69114A9A6111
:101FB0004FF4C4713A46104B009405F59D6000F053
:101FC0009FFD039A33680D4981619A4201D105B0A2
:101FD000F0BDFFF7B5F900BF0008002000ED00E0FC
:101FE000F0ED00E00003FA05001000E030D500201D
:101FF0000004002040DD0008211F0008E0DB00088D
:1020000000B5054B83B01B680193044672B6FFF719
:1020100047FE024BDC62FEE70008002030D50020BE
:102020002DE9F047DFF890A0224DDAF8003082B0B9
:10203000019300F055F9AB6993F8232012B1013AEE
:1020400083F823205A6ADFF8748001325A6200F064
:1020500047F9AB6AEA6901334245AB6220D0936825
:10206000013B9360EC69A668D6B94FF0200923685C
:10207000E768E660C3F804802368EB6100F0C0F80D
:1020800001F06EF886F311882069B84789F311884A
:1020900001F04EF800F094F8EC69A368002BE6D04C
:1020A000019ADAF800309A4202D102B0BDE8F08716
:1020B000FFF746F930D50020000800204CD500205D
:1020C00010B5094C094A236882B0019351685368DE
:1020D0005B1A9842FBD8019A23689A4201D102B058
:1020E00010BDFFF72DF900BF00080020001000E030
:1020F00000B50E4A0E4B116B186883B0019009B9F8
:10210000526B4AB1019A1B689A420CD1094803B03C
:102110005DF804EBFFF774BF019A1B689A4202D185
:1021200003B05DF804FBFFF70BF900BF30D50020CA
:1021300000080020F0DB00080000000000000000A4
:1021400030B50B4C0B4D236B2A6883B001920BB951
:10215000636B13B10848FFF753FF019A2B68012105
:102160009A42616301D103B030BDFFF7E9F800BFC7
:1021700030D500200008002020DC0008000000000E
:1021800030B50C4C0C4D236B2A6883B0019253B9C7
:10219000636B002B07DD019A2B6800219A42616373
:1021A00005D103B030BD0548FFF72AFFF3E7FFF77D
:1021B000C7F800BF30D500200008002040DC000830
:1021C00030B50B4C0B4D236B2A6883B0002B01926A
:1021D00001DD636B13B10848FFF712FF019A2B680A
:1021E00001219A42616301D103B030BDFFF7A8F825
:1021F00030D500200008002030DC0008000000007E
:1022000030B50C4C0C4D236B2A6883B0002B019227
:102210000ADD636B002B07DD019A2B6800219A42CF
:10222000616305D103B030BD0448FFF7E9FEF3E771
:10223000FFF786F830D500200008002050DC0008A9
:1022400030B50F4D83B02B680193202383F31188A1
:102250000C4C236B002B01DB626B1AB10A48FFF7B1
:10226000CFFE236B01332363002383F31188019A8C
:102270002B689A4201D103B030BDFFF761F800BF6F
:102280000008002030D5002000DC0008000000001D
:1022900030B50F4D83B02B680193202383F3118851
:1022A0000C4C236B002B01DD626B1AB10A48FFF75F
:1022B000A7FE236B013B2363002383F31188019A5C
:1022C0002B689A4201D103B030BDFFF739F800BF47
:1022D0000008002030D5002010DC000800000000BD
:1022E00000B50F4A0F4B116B186883B0002901909D
:1022F00009DB526B002A06DD019A1B689A420CD159
:1023000003B05DF804FB019A1B689A4205D10648A8
:1023100003B05DF804EBFFF773BEFFF711F800BFE1
:1023200030D500200008002060DC0008000000001C
:1023300000B50E4A0E4B116B186883B0019049B975
:10234000526B002A06DD019A1B689A420CD103B039
:102350005DF804FB019A1B689A4205D1054803B059
:102360005DF804EBFFF74CBEFEF7EAFF30D5002026
:102370000008002070DC00080000000000000000E1
:1023800010B5084A084B116882B0402401910199A8
:10239000126818199142C3E90E4001D102B010BD74
:1023A000FEF7CEFF0008002030D50020000000001E
:1023B00010B51149114B0A6882B00192DA6B9C6A20
:1023C0001460DA6B9C695460DA6B846A9460DA6B2F
:1023D00090F820001073DA6B03F5886010328242A7
:1023E00028BF03F14002DA63019A0B689A4201D1D7
:1023F00002B010BDFEF7A4FF0008002030D5002079
:1024000010B50B4A0B4B116882B04FF0FF340191AD
:1024100000219962019811685C6203F11C028842F4
:10242000C3E9072201D102B010BDFEF789FF00BF4A
:102430000008002030D5002000000000000000004F
:102440002DE9F041184E82B00546306801900C46E7
:1024500017469846FFF744FF05B3FFB1F4B1C5E94D
:1024600003781248C3699A68944204D91B68A41A75
:102470009A68A242FAD32B605A686A6015605D6060
:10248000AC609968019D3268091B95424FF0FF349A
:102490009960446206D102B0BDE8F0810448FFF7BC
:1024A000AFFDDCE7FEF74CFF0008002030D5002030
:1024B00080DC0008000000000000000000000000B8
:1024C00030B5164D83B004462B680193FFF708FF23
:1024D000ECB1E368BBB12268A0689368019903443A
:1024E0009360D4E900231A6020682B680C4A656861
:1024F000456099424FF000054FF0FF30E5605062B3
:1025000009D103B030BD0748FFF77AFDE3E705487E
:10251000FFF776FDDDE7FEF713FF00BF00080020A0
:1025200030D5002090DC0008000000000000000012
:1025300000B50A4A0A4B11681B6083B00020019164
:10254000019912685B609142C3E90433986002D13B
:1025500003B05DF804FBFEF7F3FE00BF00080020A7
:1025600030D5002000000000000000000000000046
:1025700030B5164D83B004462B680193FFF7B0FECB
:10258000ECB194F82030B3B10F2B14D00022A16825
:102590000F4B84F820201B689A688A42FBD2236084
:1025A0005A686260146001992A685C609142204612
:1025B00009D103B030BD0748FFF722FDE6E7054823
:1025C000FFF71EFDDDE7FEF7BBFE00BF00080020A1
:1025D00030D50020A0DC0008000000000000000052
:1025E00070B5204D82B02B6801930446202383F3FD
:1025F000118800F09DFDFFF7E3FD94F82030072BD4
:1026000011D8DFE803F0161010230A04100AA66A96
:10261000FFF766FEB3680133B360D4E900231A60A4
:10262000D4E900325A604FF0FF33A3622046FFF72F
:102630009FFFFFF7E5FD00F093FD002383F3118872
:10264000019A2B689A420BD102B070BDA36A002296
:102650001A604FF0FF33A3622046FFF789FFE8E7D7
:10266000FEF76EFE000800200000000000000000E1
:10267000F0B5194E194C336883B007460193FFF744
:1026800057FEA569236885F82070142285F8232059
:102690001A68226001215460284683F82010A36143
:1026A000FFF786FE2946A06900F0F2FCEFF30983EC
:1026B000EA69643B9A4202D90948FFF7A1FC019AF2
:1026C00033689A4206D1A069294603B0BDE8F040BC
:1026D000FDF7EEBDFEF734FE0008002030D50020E7
:1026E000B0DC000800000000000000000000000056
:1026F000F0B5154C87B0236805930E460746FFF7E3
:1027000017FE731C18D0114D114AAB69314668464B
:10271000FFF796FE3846FFF7ABFFFFF7E1FD039B9F
:1027200013B16846FFF7CCFE059A2368A9699A425F
:10273000886A06D107B0F0BD3846FFF799FF034D10
:10274000F2E7FEF7FDFD00BF0008002030D50020B5
:10275000E12500080000000000000000000000006B
:10276000F0B51E4D1E4E2B6883B0044601930F46F4
:10277000FFF7DEFDB069A7628368A2689A421DD99F
:10278000FFF7F6FE0123074684F82030B461FFF717
:102790000FFE3946204600F07BFCEFF30983FA690F
:1027A000643B9A4214D8019A2B689A4214D1394654
:1027B000204603B0BDE8F040FDF77ABD019A2B68D2
:1027C0009A4209D1204603B0BDE8F040FFF7D0BEE1
:1027D0000448FFF715FCE6E7FEF7B2FD000800200D
:1027E00030D50020B0DC0008000000000000000030
:1027F00010B50E490E4B8A69086892F823101C68C0
:102800008068926882B0019449B9904234BF002038
:102810000120019A1B689A4206D102B010BD904275
:1028200094BF00200120F4E7FEF78AFD30D5002098
:102830000008002000000000000000000000000070
:1028400070B5184C184E2368A5691A682260546048
:10285000012283F8202082B01422316885F82320D9
:102860002846A3610191FFF783FE2846FFF7A0FDEC
:102870002946A06900F00CFCEFF30983EA69643B88
:102880009A4202D90948FFF7BBFB019A33689A4282
:1028900006D1A069294602B0BDE87040FDF708BD29
:1028A000FEF74EFD30D5002000080020B0DC000807
:1028B00070B51C4D1C4E2A68AC6913682B60012151
:1028C00082B05D60002082F82010AA613268A168A1
:1028D00084F82000019200E01B689A688A42FBD8C5
:1028E00023605A686260204614605C60FFF760FDF8
:1028F0002146A86900F0CCFBEFF30983E269643B51
:102900009A4202D90948FFF77BFB019A33689A4241
:1029100006D1A869214602B0BDE87040FDF7C8BCE9
:10292000FEF70EFD30D5002000080020B0DC0008C6
:1029300010B50F4C82B023680193FFF7F9FCFFF745
:10294000CFFC0C4B1A689B6992689B689A42019A6B
:10295000236803D89A4208D102B010BD9A4204D12C
:1029600002B0BDE81040FFF7A3BFFEF7E9FC00BFCF
:102970000008002030D5002000000000000000000A
:1029800000B50E4A0E4B9269196892F8232083B065
:10299000019142B1019A1B689A420DD103B05DF8D2
:1029A00004EBFFF785BF019A1B689A4204D103B07C
:1029B0005DF804EBFFF744BFFEF7C2FC30D5002002
:1029C00000080020000000000000000000000000DF
:1029D000F0B51A4A1A4D02610446816083B014238F
:1029E00050692E68616484F8233002270023012196
:1029F000278484F82210C4E90F3304F16801A3612D
:102A0000019604F12C07636204F1500604F13003CF
:102A100060610461C4E90C33E1613046E7625461EE
:102A200000F03EFA304600F05BFA019A2B689A42B9
:102A300002D1204603B0F0BDFEF782FC30D5002065
:102A4000000800200000000000000000000000005E
:102A500010B5094B82B01C680194884203D200F87B
:102A6000012B8142FBD1019A1B689A4201D102B02D
:102A700010BDFEF765FC00BF00080020000000004C
:102A80002DE9F043184E83B0346801940546DDF813
:102A900028900C4617469846FFF722FC15B1B4F56E
:102AA000BC7F19D21148FFF7ABFAA4F164012944A5
:102AB000E960C1F84080EB68019AC3F8449033683C
:102AC000E9680B4808669A420CD13946284603B09B
:102AD000BDE8F043FFF77CBF7F2FE3D8B8F1000FCC
:102AE000E3D1DFE7FEF72CFC0008002000DD000842
:102AF000C902000800000000000000000000000003
:102B00002DE9F04FDFF8A48087B0D8F80040DDF859
:102B10004090059407468A46934600F168060446AD
:102B2000FF2504F8015BA642FBD107EB0A05A5428D
:102B300004D9552604F8016BA542FBD1039320224A
:102B400082F3118800F0C4FAFFF7FAFA039BCDF87C
:102B500000905A4651463846FFF792FF002104463E
:102B6000FFF7FEFDFFF70CFB00F0CAFA0D4B1A68E9
:102B70009A4204D0996993688A689A420BD30023D9
:102B800083F31188059AD8F800309A42204606D17E
:102B900007B0BDE8F08F0448FFF732FAEFE7FEF721
:102BA000CFFB00BF30D50020C0DC000800080020AB
:102BB00030B5184C83B0236801930546202383F376
:102BC000118800F085FAFFF7BBFA15B91248FFF734
:102BD00017FA29460820FFF78BFDFFF7D1FA00F01E
:102BE0008FFA0E4B1A689A4204D0996993688A68E2
:102BF0009A4208D3002383F31188019A23689A42EA
:102C000005D103B030BD0648FFF7FAF9F2E7FEF749
:102C100097FB00BF00080020D0DC000830D5002062
:102C2000C0DC000800000000000000000000000000
:102C300070B5164B164E9C693268E36AA06282B08A
:102C400004F12C05AB42019207D01A68E2621846E3
:102C5000FFF78EFCE36AAB42F7D194F821309B0773
:102C600005D1D4E904231A61D4E904325A610F2052
:102C7000FFF7FEFC019A33689A4205D1054802B07D
:102C8000BDE87040FFF7BCB9FEF75AFB30D5002015
:102C90000008002010DD0008000000000000000017
:102CA00030B50C4C83B0236801930546202383F391
:102CB000118800F00DFAFFF743FA019A23689A424F
:102CC00005D1284603B0BDE83040FFF7B1BFFEF79D
:102CD00037FB00BF000800200000000000000000DB
:102CE000F0B50D4D0D4E03682A68B76983B00446F0
:102CF000019213B10A48FFF783F927600320BC62F1
:102D0000FFF7B6FC019A2B68B1699A42886A01D133
:102D100003B0F0BDFEF714FB0008002030D5002002
:102D200020DD00080000000000000000000000009E
:102D3000F0B5124D04682B6883B00193B4B194F8D8
:102D40002030032B06460F460CD100233360019A36
:102D50002B68A7629A420FD1204603B0BDE8F0402D
:102D6000FFF706BC0648FFF74BF9EEE7019A2B6820
:102D70009A4201D103B0F0BDFEF7E2FA000800204C
:102D800030DD00080000000000000000000000002E
:102D900030B5104A83B01368019381B10E4B019D89
:102DA0009B69186044685C602360126843609542C8
:102DB0000DD1042003B0BDE83040FFF799BC019964
:102DC000136899424FF0FF3001D103B030BDFEF7D8
:102DD000B7FA00BF0008002030D500200000000036
:102DE00070B5124D04682B6882B0A042019315D0D3
:102DF00023680360586094F82030042B0E4602D0FC
:102E00000B48FFF7FDF8019A2B68A6629A420BD196
:102E1000204602B0BDE87040FFF7AABB019A2B68BC
:102E20009A4201D102B070BDFEF78AFA0008002074
:102E3000E0DC0008000000000000000000000000CE
:102E40002DE9F041DFF850800468D8F8003082B0F6
:102E5000A042019313D00F4F05460E4623682B6006
:102E60005D6094F82030042B02D03846FFF7C8F894
:102E7000A6622046FFF77CFB2C68A542EED1019AA2
:102E8000D8F800309A4202D102B0BDE8F081FEF7D6
:102E900057FA00BFE0DC0008000800200000000036
:102EA00030B50B4B83B01A6801924FF0FF320260CD
:102EB00001991A680024002300259142C0E90445C5
:102EC000C0E90133C36001D103B030BDFEF738FA69
:102ED00000080020000000000000000000000000CA
:102EE00000B5084B084A196883B001915168019AEE
:102EF0001B6881609A4202D103B05DF804FBFEF7C3
:102F00001FFA00BF00080020001000E000000000D1
:102F1000F0B51449144B0A68846883B00192134ACF
:102F20005B68D2F8A864C2681B1BD0E90445013273
:102F30009B1BC26042688360E61845F1000793421C
:102F4000C0E9046709D80268934238BF0360019A58
:102F50000B689A4203D103B0F0BD4360F7E7FEF778
:102F6000EFF900BF00080020001000E030D500207D
:102F700030B5114D114C2B6889B04FF0FF310793DC
:102F8000002300226846C4F8A834CDE90133039336
:102F90000023CDE904230091FFF7A2FF6846FFF765
:102FA000B7FF079A2B680299C4F8A8149A4201D176
:102FB00009B030BDFEF7C4F90008002030D500206C
:102FC0002DE97048134E144B326883B001925B6850
:102FD0008B60D0E902411B1BD0E90445426814EB29
:102FE000030B45F1000C01319342C0E90231C0E905
:102FF00004BC0AD80268934238BF0360019A336860
:103000009A4204D103B0BDE870884360F6E7FEF74A
:1030100097F900BF00080020001000E00000000049
:1030200030B50D4D0D4C2B6883B004F597600193BE
:103030000023C4F8B034C4F8B434FFF731FF019A68
:103040002B689A4206D104F59A6003B0BDE830407F
:10305000FFF726BFFEF774F90008002030D50020E6
:1030600000B50949094A0B6883B001930198D2F869
:10307000B034096801338842C2F8B03402D103B0D9
:103080005DF804FBFEF75CF90008002030D5002055
:1030900070B50D4C0D4A236882B00193019DD2F8A2
:1030A000B43424680133A542C2F8B43409D10E46C1
:1030B00000F1500106F1500002B0BDE87040FFF78A
:1030C0007FBFFEF73DF900BF0008002030D500208B
:1030D00000B5084B83B01A680192019A1B689A42A6
:1030E00005D1054803B05DF804EBFFF7F9BEFEF724
:1030F00027F900BF00080020E8D9002000000000E8
:1031000000B5084B83B01A680192019A1B689A4275
:1031100005D1054803B05DF804EBFFF7F9BEFEF7F3
:103120000FF900BF00080020E8D9002000000000CF
:1031300000B5084B83B01A680192019A1B689A4245
:1031400005D1054803B05DF804EBFFF7C9BEFEF7F3
:10315000F7F800BF0008002000DA0020000000009F
:1031600000B5084B83B01A680192019A1B689A4215
:1031700005D1054803B05DF804EBFFF7C9BEFEF7C3
:10318000DFF800BF0008002000DA00200000000087
:1031900030B50B4D83B02B680193044650B12460C9
:1031A00001992A68646000239142A360236105D1DC
:1031B00003B030BD0348FEF723FFF0E7FEF7C0F889
:1031C0000008002070DD0008000000000000000082
:1031D000F0B55D4E5D4B32689D6983B00446019247
:1031E000FFF7A6F8002C00F08480A068236900286F
:1031F00043D0002B40F39780854276D0AA6883683D
:103200009A4208D990F820308260062B40D0072BD4
:1032100073D0002B5DD02746234603E09968AA6847
:10322000914233D31B689C42F8D12F607B686B605E
:1032300006201D607D60AC62FFF71AFAA368AB42FE
:1032400002D04348FEF7DCFE2B6CA34202D040487C
:10325000FEF7D6FE2369012B05D1019A33689A4205
:103260006FD103B0F0BD019A33689A4269D13848F2
:1032700003B0BDE8F040FEF7C3BE002B58D10133C8
:10328000A56023612B6CE3602C64E6E71F46CCE766
:10329000D0E900231A60D0E900325A60876A3B46C1
:1032A00003E099688268914247D31B689F42F8D136
:1032B00007607B68436018607860836AAA689868D2
:1032C00083689342A7D290F820308260062B9ED16B
:1032D000DEE7D0E90023012180F820101A60D0E950
:1032E00000325A60FFF744F995E7236901332361FF
:1032F000B3E71748FEF784FE77E7D0E900231A60AA
:10330000D0E900325A60876A3B4603E099688268D8
:10331000914214D31B689F42F8D107607B684360D9
:103320001860786077E70A48FEF76AFEA06863E7EE
:103330000748FEF765FE2369A1E71F46B8E71F4669
:10334000EBE7FDF7FDFF00BF0008002030D50020AF
:1033500080DD000800000000000000000000000008
:1033600030B5154C83B0236801930546202383F3C1
:103370001188FFF7ADFEFEF7E3FE2846FFF728FFB2
:10338000FEF7FEFEFFF7BCFE0C4B1A689A4204D013
:10339000996993688A689A4208D3002383F3118855
:1033A000019A23689A4205D103B030BD0448FEF764
:1033B00027FEF2E7FDF7C4FF0008002030D500200B
:1033C00060DD0008000000000000000000000000B8
:1033D0002DE9F043DFF800813C4FD8F80030BE699A
:1033E00083B005460193002864D0202383F311881D
:1033F000FFF76EFEFEF7A4FE336C002B5ED09B68D9
:10340000B34202D03248FEF7FBFD2B69002B49DDA9
:10341000013B2B615BBB336CAB4202D02C48FEF707
:10342000EFFDEB683364FEF783FF2B689D423ED0CF
:10343000D6E910495CB1FEF77BFF23689C4203D0BC
:103440009B68994538BF9946E468002CF3D1C6F8CB
:1034500008902B6801222A611A682A605560AB60C7
:103460001A6CEA6018461D640021FFF779F9FEF72F
:1034700087FEFFF745FE3B68BB4204D0BA699B68F4
:1034800092689A420AD3002383F31188019AD8F8EC
:1034900000309A4217D103B0BDE8F0830D48FEF723
:1034A000AFFDF0E70A48FEF7ABFD2B69B0E700235C
:1034B000AB60DCE70648FEF7A3FD96E70448FEF79D
:1034C0009FFD336C9BE7FDF73BFF00BF30D500202D
:1034D00090DD000860DD000800080020000000000A
:1034E00070B5184E82B00446336801930D46FEF75E
:1034F000F7FE0CB3E16B94F8203029430A2BE1630B
:1035000016D00B2B05D0019A33689A4218D102B01D
:1035100070BDA36A8B43F6D1019A336800219A42A9
:10352000A1620DD1204602B0BDE87040FFF720B87F
:10353000A36A1942F0D1E6E70348FEF761FDD9E737
:10354000FDF7FEFE00080020C0DD000800000000BE
:10355000F0B5134F83B006463B6801930D46FEF766
:10356000BFFEB6B13468A6420DD0E3682B43E360DA
:1035700015B12269134203D0D4E90101FFF7B0FF6E
:103580002468A642F1D1019A3B689A4205D103B062
:10359000F0BD0448FEF734FDE4E7FDF7D1FE00BFBF
:1035A00000080020A0DD000800000000000000006E
:1035B00070B50C4CC16082B0266801960A44006068
:1035C000019E02612268069D4060C0E90511964295
:1035D0004FF00001C3618160056201D102B070BD8E
:1035E000FDF7AEFE00080020000000000000000013
:1035F00030B50D4D83B02B6801930446FEF770FE85
:1036000001992A68E368A36100209142A060636188
:1036100007D120466FF0010103B0BDE83040FFF74D
:103620000FBCFDF78DFE00BF000800200000000069
:1036300070B5164D82B004462B6801930E46FEF716
:103640004FFEFEF74DFED4E905239A42A36816D03B
:103650000133511CA36061611670D4E904329A42AF
:103660000AD220460021FFF7BBFB0020019A2B68FD
:103670009A4209D102B070BDE3686361F1E7002BA3
:10368000E6D06FF00300F1E7FDF75AFE00080020D6
:10369000F0B5234F83B03B68019304460E462023C8
:1036A00083F31188FFF714FDFEF74AFDE36943B188
:1036B0002046984705E031462046FFF769FB051E86
:1036C00010DBFEF70DFEA368002BF4D0A169206982
:1036D0004A1C013B8242A360A26128BFE3680D78C7
:1036E00028BFA361FEF74CFDFFF70AFD0D4B1A68DA
:1036F0009A4204D0996993688A689A4209D3002350
:1037000083F31188019A3B689A42284605D103B099
:10371000F0BD0548FEF774FCF1E7FDF711FE00BFB0
:103720000008002030D50020D0DD00080000000097
:103730002DE9F04FDFF8F490044685B0D9F8000089
:1037400003908A461D46D4F81C809346002A60D018
:10375000202383F311880193FFF7BAFCFEF7F0FCF6
:103760002F4E0027B8F1000F07D02046C04704E0D5
:1037700029462046FFF70CFB60BBFEF7B1FDA368AE
:10378000002BF5D0A269013B511CA161A360137805
:103790000AF8013B2369A2699A4224BFE368A36146
:1037A000FEF7EEFCFFF7ACFC3368B34204D0B2691D
:1037B0009B6892689A4228D3002383F311880137CB
:1037C000BB4519D0019B83F31188FFF781FCFEF7FD
:1037D000B7FCC7E7FEF7D4FCFFF792FC3368B342AF
:1037E00007D0B2699B6892689A4202D20D48FEF7F0
:1037F00007FC002383F31188039AD9F800309A421A
:1038000038460AD105B0BDE8F08F0648FEF7F8FB50
:10381000D2E70548FEF7F4FB9AE7FDF791FD00BFFC
:1038200030D50020D0DD0008E0DD000800080020D1
:1038300070B50B4D82602E68C16082B0C0E9000097
:1038400001960A44019E02612A68069C9642C0E9DC
:103850000511C0E9073401D102B070BDFDF770FD5C
:103860000008002000000000000000000000000030
:1038700030B50D4D83B004462B680193FEF730FD43
:10388000D4E9032301982968A2619B1A88426261E6
:10389000A36007D120466FF0010103B0BDE83040BE
:1038A000FFF7CEBAFDF74CFD000800200000000035
:1038B0002DE9F0412E4F82B03B68019304468846C3
:1038C0001646202383F31188FFF702FCFEF738FC2D
:1038D00005E031462046FFF75BFA051E2DDBFEF7BB
:1038E000FFFCA368002BF4D06269013B511C6161AD
:1038F000A36082F80080D4E904329A4224BFE368CE
:103900006361E3690BB120469847FEF739FCFFF786
:10391000F7FB184B1A689A4204D0996993688A6831
:103920009A421ED3002585F31188019A3B689A427A
:1039300028461AD102B0BDE8F081FEF721FCFFF75E
:10394000DFFB0C4B1A689A4207D0996993688A6822
:103950009A4202D20848FEF753FB002383F31188F2
:10396000E3E70548FEF74CFBDCE7FDF7E9FC00BFA9
:103970000008002030D50020D0DD00080000000045
:1039800070B5154E82B0044633680193FEF7A8FC6B
:10399000FEF7A6FCD4E905329342A36815D020694E
:1039A000511C0133A360A161814215780AD22046DF
:1039B0000021FFF715FA2846019A33689A4209D187
:1039C00002B070BDE368A361F1E7002BE7D06FF0B0
:1039D0000200F1E7FDF7B4FC000800200000000041
:1039E0002DE9F04F04463B48D4F81C90006885B0A0
:1039F0000D46039001931646002A61D04FF0200A2D
:103A00008AF31188FFF764FBFEF79AFB4FF000087A
:103A1000314FC346FEF764FCA368002B32D06269C5
:103A2000013B511C6161A3602B781370D4E904320F
:103A30009A4224BFE36863610135B9F1000F01D0F8
:103A40002046C847FEF79CFBFFF75AFB3B68BB428A
:103A500007D0BA699B6892689A4202D21F48FEF763
:103A6000CFFA8BF31188013E08F101081FD08AF3C9
:103A70001188FFF72DFBFEF763FBFEF731FCA3680F
:103A8000002BCCD101992046FFF782F90028C1D044
:103A9000FEF776FBFFF734FB3B68BB4204D0BA6904
:103AA0009B6892689A420FD3002383F31188094BD5
:103AB000039A1B689A4240460AD105B0BDE8F08FD0
:103AC0000748FEF79DFA99E70448FEF799FAEBE7F5
:103AD000FDF736FC0008002030D50020D0DD0008BE
:103AE000F0DD000800000000000000000000000001
:103AF00030B50B490B4A0B680B4D0C4C83B022F0D0
:103B00000702019301980A4B09682A6023F0070312
:103B10008842236001D103B030BDFDF711FC00BF26
:103B20000008002017E40020A4DB0020A0DB002018
:103B30000000022000000000000000000000000063
:103B400070B51C4E82B0336801930446202383F382
:103B50001188FFF7BDFAFEF7F3FAFEF7C1FB164A2C
:103B6000164B15681B68E01D20F007005B1B984290
:103B70009ABF401910600025FEF702FBFFF7C0FA5C
:103B80000F4B1A689A4204D0996993688A689A42DE
:103B900009D3002383F31188019A33689A42284697
:103BA00005D102B070BD0748FEF72AFAF1E7FDF72C
:103BB000C7FB00BF00080020A4DB0020A0DB002022
:103BC00030D5002010DE00080000000000000000DA
:103BD00000B50B4B0B481A6883B0019201991A6823
:103BE000094B036091424FF00003C0E9023305D155
:103BF000103003B05DF804EBFFF7CABAFDF7A0FB85
:103C000000080020A8DB0020413B00080000000065
:103C100080B50D4A0D4982B000AF13687B604B68D8
:103C200023F001034B60EFF30983683383F30988C2
:103C3000002383F3118879681368994202D1083709
:103C4000BD4680BDFDF77CFB0008002030EF00E0A2
:103C5000B0B5194C82B000AF23687B60202383F39A
:103C60001188164B5B6813F4006308D183F3118845
:103C70007A6823689A421DD10837BD46B0BDF1EE7F
:103C8000103AEFF309854FF080720D4B45F84C2C3C
:103C9000DB6845F8083CA5F1680383F30988FEF763
:103CA000A7FD18B1074B45F8503CE1E7064B45F836
:103CB000503CDDE7FDF744FB0008002000ED00E08C
:103CC00030EF00E0E1020008F4020008000000000C
:103CD00010B5184C82B02368019302F089FC164895
:103CE00003F0A6FF00F0D4F800F00AF900F050F954
:103CF00000F07EF900F0ACF900F082FA00F0B0FAC2
:103D000000F0DEFA01F0E4F800F0EAFF01F0F8FC60
:103D100001F03EFD01F02CFB05F0BAFF019A23688B
:103D20009A4204D102B0BDE8104001F019BDFDF780
:103D300007FB00BF0008002090E30008000000001F
:103D4000F0B51A4D83B02B68019391420E4614468C
:103D5000074619D38B1A1F2B16D806F01F03581CC1
:103D60006209012376098340B24203F1FF3304F074
:103D70001F0457F822000BD31840E040019A2B682B
:103D80009A4210D103B0F0BD0948FEF739F9E4E7D3
:103D900057F82610C4F120020B4020FA04F403FA6D
:103DA00002F02043EAE7FDF7CBFA00BF000800204D
:103DB00020DE0008000000000000000000000000FD
:103DC000F0B51D4E83B033680193054670B37E2273
:103DD0007F212846FFF7B4FF80B1012806D00020DC
:103DE000019A33689A4225D103B0F0BD28463022AB
:103DF0004521FFF7A5FF01308002F1E73E2249216E
:103E00002846FFF79DFF2F22044631212846FFF761
:103E100097FF5022074653212846FFF791FF0134B0
:103E200002370938BC4004FA00F0D9E70348FEF72E
:103E3000E7F8CCE7FDF784FA0008002040DE000830
:103E4000F0B5104D83B02B680193044698B194F8F7
:103E5000D63094F8D770019994F8D4602A6894F811
:103E6000D5001B0403EB07633344914203EB0020AE
:103E700005D103B0F0BD0448FEF7C2F8E7E7FDF74F
:103E80005FFA00BF0008002060DE000800000000AC
:103E900000B5074B83B01A680192019A1B689A42D9
:103EA00004D103B05DF804EB02F062BCFDF748FA00
:103EB00000080020000000000000000000000000DA
:103EC00000B50C4B83B01A6801920122027001996F
:103ED0001A6800239142C0E90133C0E9033343610A
:103EE00005D1183003B05DF804EBFFF751B9FDF7C9
:103EF00027FA00BF000800200000000000000000BA
:103F000000B5074B83B01A680192019A1B689A4268
:103F100004D103B05DF804EB03F0D2B9FDF710FA59
:103F20000008002000000000000000000000000069
:103F300030B5134B83B01A68019201220270019CC4
:103F40001968002200F1180300F11C05426083612A
:103F500000F1200200F12403C561026200F128058E
:103F600000F1080243628C4200F110038562C0E94F
:103F70000222C0E9043301D103B030BDFDF7E0F9FE
:103F80000008002000000000000000000000000009
:103F900000B5074B83B01A680192019A1B689A42D8
:103FA00004D103B05DF804EB03F022BEFDF7C8F9BD
:103FB00000080020000000000000000000000000D9
:103FC00000B50A4B83B01A68019201220270019970
:103FD0001A6800239142C0E9043305D1183003B0B8
:103FE0005DF804EBFFF7D4B8FDF7AAF9000800204C
:103FF00000B5074B83B01A680192019A1B689A4278
:1040000004D103B05DF804EB03F07AB9FDF798F939
:104010000008002000000000000000000000000078
:1040200000B5084B83B01A68019201220270019A10
:104030001B6800219A42416002D103B05DF804FB85
:10404000FDF77EF9000800200000000000000000DD
:1040500000B5074B83B01A680192019A1B689A4217
:1040600004D103B05DF804EB05F0EAB8FDF768F998
:104070000008002000000000000000000000000018
:1040800000B5084B83B01A68019201220270019AB0
:104090001B6800219A42416002D103B05DF804FB25
:1040A000FDF74EF9000800200000000000000000AD
:1040B00070B51E4D82B02B6801930E46044670B356
:1040C00069B3202383F31188FFF702F8FEF738F86D
:1040D0002378013B012B02D91548FDF791FF2046BB
:1040E000666005F0DDF802232370FEF749F8FFF75C
:1040F00007F8104B1A689A4204D0996993688A6845
:104100009A4208D3002383F31188019A2B689A42BC
:1041100009D102B070BD0848FDF772FFF2E704480C
:10412000FDF76EFFCDE7FDF70BF900BF000800209B
:1041300090DE000830D5002080DE0008000000007E
:1041400070B5114D82B004462B6801930E46FEF700
:10415000C7F894B12378022B02D00C48FDF750FF2A
:1041600003232370019A2B689A420AD131462046D4
:1041700002B0BDE8704005F013B90448FDF740FFF8
:10418000E8E7FDF7DDF800BF00080020A0DE00082A
:1041900070B5164C82B02368019305460E46202365
:1041A00083F31188FEF794FFFDF7CAFF31462846D6
:1041B000FFF7C6FFFDF7E4FFFEF7A2FF0C4B1A68FE
:1041C0009A4204D0996993688A689A4208D3002376
:1041D00083F31188019A23689A4205D102B070BD19
:1041E0000448FDF70DFFF2E7FDF7AAF800080020EC
:1041F00030D5002080DE0008000000000000000034
:1042000000B5074B83B01A680192019A1B689A4265
:1042100004D103B05DF804EB03F022BFFDF790F882
:104220000008002000000000000000000000000066
:1042300000B50A4B83B01A68019201220270019AFC
:104240001B6800219A42416005D10C3003B05DF833
:1042500004EBFEF79DBFFDF773F800BF00080020D8
:1042600000B5074B83B01A680192019A1B689A4205
:1042700004D103B05DF804EB04F002BFFDF760F871
:104280000008002000000000000000000000000006
:1042900000B5084B83B01A68019201220270019A9E
:1042A0001B6800219A42416002D103B05DF804FB13
:1042B000FDF746F8000800200000000000000000A4
:1042C00000B5074B83B01A680192019A1B689A42A5
:1042D00004D103B05DF804EB05F04AB9FDF730F8FE
:1042E00000080020000000000000000000000000A6
:1042F00000B5094B83B01A6801920122027001993E
:104300001A68002391424360C360037402D103B072
:104310005DF804FBFDF714F8000800200000000021
:1043200070B5214E82B0336801930D4604460028D3
:1043300033D0002931D0202383F31188FEF7C8FE43
:10434000FDF7FEFE2378013B012B02D91748FDF74C
:1043500057FE65606B68A360204605F049F90022AE
:104360000223E2602370FDF70BFFFEF7C9FE104B3E
:104370001A689A4204D0996993688A689A4208D365
:10438000002383F31188019A33689A4209D102B05D
:1043900070BD0848FDF734FEF2E70448FDF730FE33
:1043A000C9E7FCF7CDFF00BF00080020D0DE000801
:1043B00030D50020C0DE0008000000000000000032
:1043C000F0B5214E83B0336801930D46174604467D
:1043D00078B3037C8B422CD9202383F31188FEF71A
:1043E00077FEFDF7ADFE2378022B02D01748FDF7CC
:1043F00007FEE3680122AA401343E3603A462946D8
:10440000204605F0DDF9FDF7BBFEFEF779FE104B07
:104410001A689A4204D0996993688A689A420CD3C0
:10442000002383F31188019A33689A4209D103B0BB
:10443000F0BD0648FDF7E4FDCEE70648FDF7E0FDD8
:10444000EEE7FCF77DFF00BF00080020E0DE00087B
:1044500030D50020C0DE0008000000000000000091
:1044600070B5204E82B0336801930D46044678B390
:10447000037C8B422CD9202383F31188FEF728FE7E
:10448000FDF75EFE2378022B02D01748FDF7B8FD3A
:10449000E3680122AA4023EA0203E360294620469A
:1044A00005F0A6F9FDF76CFEFEF72AFE0F4B1A6821
:1044B0009A4204D0996993688A689A420CD300237F
:1044C00083F31188019A33689A4209D102B070BD12
:1044D0000548FDF795FDCEE70548FDF791FDEEE7B0
:1044E000FCF72EFF0008002000DF000830D5002078
:1044F000C0DE000800000000000000000000000016
:1045000030B51E4D83B02B680193044680B3202341
:1045100083F31188FEF7DCFDFDF712FE2378022BF2
:1045200002D01748FDF76CFD63689B68E3B1204635
:1045300005F07EF9FDF724FEFEF7E2FD114B1A6847
:104540009A4204D0996993688A689A4208D30023F2
:1045500083F31188019A2B689A420DD103B030BDC4
:104560000948FDF74DFDF2E70548FDF749FDDEE797
:104570000348FDF745FDCAE7FCF7E2FE000800200E
:1045800020DF000830D50020C0DE00080000000059
:1045900070B5294E82B0336801930D460446002859
:1045A00032D0037C8B422FD9202383F31188FEF76E
:1045B0008FFDFDF7C5FD2378022B02D01F48FDF7C4
:1045C0001FFDE368EB40DB0726D5636803EBC503FB
:1045D0001B6953B32946204605F04AF9FDF7D0FD83
:1045E000FEF78EFD164B1A689A4204D099699368BB
:1045F0008A689A420CD3002383F31188019A3368A6
:104600009A4216D102B070BD0C48FDF7F9FCCBE719
:104610000C48FDF7F5FCEEE70848FDF7F1FC636890
:1046200003EBC5031B69002BD4D10448FDF7E8FC5C
:10463000D0E7FCF785FE00BF0008002040DF00083F
:1046400030D50020C0DE000800000000000000009F
:1046500070B5104D82B02B6801930E46044650B1E0
:1046600049B12379052B0CD00120019A2B689A427D
:104670000ED102B070BD0848FDF7C2FC2379052BAE
:10468000F2D1A36A73604FF4007333600020ECE74B
:10469000FCF756FE00080020D0DF000800000000F4
:1046A0002DE9F047DFF89C8386B002AFD8F80030E0
:1046B000FB600446002800F019812379022B01D009
:1046C000052B2BD103232371204602F0B1FE0022DB
:1046D0001146204602F024FF07F108034FF4D5727B
:1046E0000821204602F064FFE0B9BB680122C3F351
:1046F00003239342226300F0FD80204602F0D0FEA7
:10470000022323710125FA68D8F800309A4228461E
:1047100040F046811037BD46BDE8F087C048FDF740
:104720006FFCCFE707F1080300223721204602F093
:104730003FFF002840F0BE80BB68BA4A1A40002AFA
:1047400040F0B88022631146204602F0E9FE266B55
:1047500006F00F03022B00F0AF80B34EB34ADFF830
:10476000C492012B18BF1646642504E0013DC4D055
:104770000A20FEF71DFA07F1080300223721204620
:1047800002F016FF0028B8D1BB6813EA090FB4D1B4
:1047900007F1080332462921204602F0E1FE0028F5
:1047A000ABD1BB68002BE1DA5B0003D5236B43F090
:1047B0001003236304F1080300220221204602F0C3
:1047C000EFFF002899D1024604F138030321204667
:1047D00002F0EEFE002890D104F118052B46A26BE2
:1047E0000921204602F0DCFF002886D13B1DA26B88
:1047F0000721204602F0DCFE824600287FF47DAFD0
:10480000236B03F00F03022B00F097806E467E228D
:1048100090B07F212846FFF793FA0DF10809002890
:1048200079D10146B546204602F022FE236B03F003
:104830000F03022B00F096802846FFF7C1FAA06212
:104840003B1D4FF400721021204602F0B1FE0546D8
:1048500000287FF452AF7B68724E33427FF44DAF35
:10486000236B03F00F03012B40F2B280022B7FF485
:1048700044AFE36A1A79012A00F0A88017D3022A0C
:1048800040F0E2806A4E1979204602F021FE07F1DD
:10489000080332460621204602F08AFE00287FF4F3
:1048A0002CAFBA685F4B1340002B7FF426AF052373
:1048B000237128E7022323635E4E642505E0013D52
:1048C0003FF41BAF0A20FEF773F907F108033246E5
:1048D0000121204602F044FE00287FF40EAFBB68A1
:1048E000002BECDA5B007FF565AF5FE74C48FDF726
:1048F00087FBE2E6024607F108033721204602F073
:1049000057FE00287FF4F9AEBA68464B1340002BDF
:104910007FF4F3AE1BE7CDF800A006234022494602
:10492000204602F06DFF00284ED199F80D3013F0AB
:10493000020337D11946B54675E7E36A1B687BB1B8
:1049400007F108033C4A0621204602F031FE38B93F
:10495000BB6834491940B1FA81F1490963E7B546AA
:10496000002160E77E227F212846FFF7E9F9012830
:104970007FF662AFE36A1D68002D3FF4BEAE0023F0
:1049800000934FF4007208232946204602F038FFB6
:1049900000287FF4B2AE2846FFF752FAA0624FE734
:1049A000FCF7CEFC254B00934022062349462046C7
:1049B00002F026FF40B999F8103003F00F030F2BD7
:1049C000CDD0B54601212EE7B54696E61C4E5AE7F6
:1049D000E36A197900293FF46AAF01297FF48DAEAB
:1049E000204602F075FD07F10803A26B372120462F
:1049F00002F0DEFD00287FF480AEBB6833427FF416
:104A00007CAE07F1080302220621204602F0D0FD09
:104A100000287FF472AEBB6833423FF448AF6CE6C7
:104A200080DF000808E0FFFD000010C000001080DB
:104A30000002B7030080FFC00001B903F1FFFF804F
:104A40000001B703000800200248034EFDF7D8FA22
:104A5000E36A18E760DF00080000B7030000000009
:104A60002DE9F041194D82B02C6801940F46904613
:104A70001E460446C0B1BAB1B3B12379052B02D0AA
:104A80001348FDF7BDFA781EA36A304498420FD947
:104A9000636B43F0800363630120019A2B689A42A1
:104AA00011D102B0BDE8F0810948FDF7A9FAE4E7A9
:104AB00006203346207142463946204603F000F86E
:104AC00005232371E9E7FCF73BFC00BF0008002049
:104AD000A0DF00080000000000000000000000004F
:104AE0002DE9F041194D82B02C6801940F46904693
:104AF0001E460446C0B1BAB1B3B12379052B02D02A
:104B00001348FDF77DFA781EA36A304498420FD906
:104B1000636B43F0800363630120019A2B689A4220
:104B200011D102B0BDE8F0810948FDF769FAE4E768
:104B300007203346207142463946204603F000F8EC
:104B400005232371E9E7FCF7FBFB00BF0008002009
:104B5000B0DF0008000000000000000000000000BE
:104B600070B50E4D82B02B680193044680B1267952
:104B7000052E06D00120019A2B689A420CD102B072
:104B800070BD08232371204603F01AF82671F2E75E
:104B90000348FDF735FAEAE7FCF7D2FB00080020EE
:104BA000C0DF00080000000000000000000000005E
:104BB00070B5124D124E2B6882B0044601936B46BD
:104BC000A26B0D21204602F0F3FC78B9009B334222
:104BD0000BD1C3F34323042B08D04FF0010005D3BE
:104BE000072B03D8FDF7E4FFE9E70120019A2B68C2
:104BF0009A4201D102B070BDFCF7A2FB0008002070
:104C000008E0FFFD000000000000000000000000C0
:104C100070B52D4E82B033680193044600284CD005
:104C2000202383F31188FEF753FAFDF789FA2379DD
:104C3000022B29D0052B21D104232371FDF7A0FAE3
:104C4000FEF75EFA214B1A689A4204D0996993687C
:104C50008A689A4229D3002383F311882046FFF7FC
:104C6000A7FF0546204602F01BFC02232371019A90
:104C700033689A42284624D102B070BD1448FDF72B
:104C8000BFF92379022BD7D1FDF77AFAFEF738FA6C
:104C90000E4B1A689A4204D0996993688A689A42BE
:104CA00007D3002585F31188E1E70A48FDF7A8F945
:104CB000D1E70848FDF7A4F9F3E70548FDF7A0F9A7
:104CC000AEE7FCF73DFB00BF0008002030D5002018
:104CD00090DF0008E0DF0008000000000000000096
:104CE00000B5074B83B01A680192019A1B689A427B
:104CF00004D103B05DF804EB02F07ABBFCF720FBB3
:104D0000000800200000000000000000000000007B
:104D100010B50A4B0A4A1968026082B00124019159
:104D200001991A680471002391424363C0E90A3370
:104D300001D102B010BDFCF703FB00BF000800204A
:104D4000F0DF00080000000000000000000000008C
:104D500030B5084C83B025680195019D2468A542B3
:104D600005D10C3003B0BDE83040FEF7E1BCFCF7E4
:104D7000E7FA00BF0008002000000000000000006B
:104D800010B5094B82B01C680194019C1B689C42C1
:104D900007D10C304FF0FF3302B0BDE81040FEF7F2
:104DA000C7BCFCF7CDFA00BF0008002000000000DF
:104DB00030B5084C83B025680195019D2468A54253
:104DC00005D1303003B0BDE83040FEF709BEFCF736
:104DD000B7FA00BF0008002000000000000000003B
:104DE00010B5094B82B01C680194019C1B689C4261
:104DF00007D130304FF0FF3302B0BDE81040FEF76E
:104E0000EFBDFCF79DFA00BF000800200000000085
:104E100000B5084B83B01A680192019A1B689A4248
:104E200005D10C3003B05DF804EBFEF731BCFCF7A4
:104E300087FA00BF0008002000000000000000000A
:104E400000B5094B83B01A680192019A1B689A4217
:104E500007D10C304FF0FF3103B05DF804EBFEF7E3
:104E600017BCFCF76DFA00BF00080020000000002E
:104E700010B5084B82B01C680194019C1B689C42D1
:104E800005D1303002B0BDE81040FEF711BDFCF78F
:104E900057FA00BF000800200000000000000000DA
:104EA00000B5094B83B01A680192019A1B689A42B7
:104EB00007D130304FF0FF3203B05DF804EBFEF75E
:104EC000F7BCFCF73DFA00BF00080020000000001E
:104ED00000B5074B83B01A680192019A1B689A4289
:104EE00004D103B05DF804EB04F012BEFCF728FA1D
:104EF000000800200000000000000000000000008A
:104F0000F0B5144D144B2F68044685B040F8043BAF
:104F10004FF0010C00940B461646606084F808C000
:104F200004F1540104F10C0010220397FEF740FB3A
:104F300033461022009404F1640104F13000FEF7BE
:104F400077FC039A2B689A4201D105B0F0BDFCF7BB
:104F5000F7F900BF0008002040E000080000000052
:104F600070B51D4D82B02B6801930E46044668B3A0
:104F7000202383F31188FEF7ABF8FDF7E1F8237ADD
:104F8000013B012B02D91548FDF73AF8314620467E
:104F900004F0DEFD02232372FDF7F2F8FEF7B0F80D
:104FA0000F4B1A689A4204D0996993688A689A42AA
:104FB00008D3002383F31188019A2B689A4209D100
:104FC00002B070BD0748FDF71BF8F2E70348FDF794
:104FD00017F8CDE7FCF7B4F90008002020E000083E
:104FE00030D5002010E000080000000000000000A4
:104FF00070B5174D82B004462B6801930E46FDF73D
:105000006FF9F4B1FDF76CF9636963B1314604F1EE
:105010000C00FEF70DFB0028019A2B6808DB9A4272
:1050200013D102B070BD04216018FEF791FAEDE7CC
:105030009A420AD1201D802102B0BDE87040FEF7DF
:1050400087BA0448FCF7DCFFDCE7FCF779F900BF1E
:105050000008002030E00008000000000000000010
:10506000F0B5056A2D4CD5F854222168136883B039
:1050700001911978042905D0019A23689A424AD1EE
:1050800003B0F0BD297A0229F6D15179588901225D
:105090008A400242F0D103EB8103DB685F8AFDF7AF
:1050A0001FF9D5E906236E699B1A9E1BB742E3D808
:1050B000FDF766F8FEF724F8194B1A689A4207D0F4
:1050C000996993688A689A4202D21648FCF798FF59
:1050D000002383F31188D5F85422B6FBF7F35179F6
:1050E000106807FB03F305F10C0200F021FC2023FC
:1050F00083F31188FDF7ECFFFDF722F80199226890
:10510000D5F85432914206D15979186803B0BDE8F8
:10511000F04000F04DBCFCF713F900BF0008002080
:1051200030D5002060E00008000000000000000012
:1051300030B5084C83B025680195019D2468A542CF
:1051400005D10C3003B0BDE83040FEF7F1BAFCF7F2
:10515000F7F800BF00080020000000000000000079
:1051600010B5094B82B01C680194019C1B689C42DD
:1051700007D10C304FF0FF3302B0BDE81040FEF70E
:10518000D7BAFCF7DDF800BF0008002000000000DF
:1051900030B5084C83B025680195019D2468A5426F
:1051A00005D1303003B0BDE83040FEF719BCFCF744
:1051B000C7F800BF00080020000000000000000049
:1051C00010B5094B82B01C680194019C1B689C427D
:1051D00007D130304FF0FF3302B0BDE81040FEF78A
:1051E000FFBBFCF7ADF800BF000800200000000086
:1051F00000B5084B83B01A680192019A1B689A4265
:1052000005D10C3003B05DF804EBFEF741BAFCF7B2
:1052100097F800BF00080020000000000000000018
:1052200000B5094B83B01A680192019A1B689A4233
:1052300007D10C304FF0FF3103B05DF804EBFEF7FF
:1052400027BAFCF77DF800BF00080020000000002E
:1052500010B5084B82B01C680194019C1B689C42ED
:1052600005D1303002B0BDE81040FEF721BBFCF79D
:1052700067F800BF000800200000000000000000E8
:1052800000B5094B83B01A680192019A1B689A42D3
:1052900007D130304FF0FF3203B05DF804EBFEF77A
:1052A00007BBFCF74DF800BF00080020000000001D
:1052B00070B5056A294CD5F854222168136882B06C
:1052C00001911978042905D0019A23689A4242D1A4
:1052D00002B070BD297A0229F6D111791A89012309
:1052E0008B401342F0D1FCF7FBFFD5E90F23AE6BE7
:1052F0009B1A9E1BE8D0FCF743FFFDF701FF184BFC
:105300001A689A4207D0996993688A689A4202D2C9
:105310001448FCF775FE002383F31188D5F8542256
:1053200033461179106805F1300200F021FB20238B
:1053300083F31188FDF7CCFEFCF702FF0199226888
:10534000D5F85432914206D11979186802B0BDE8F7
:10535000704000F05DBBFBF7F3FF00BF00080020CA
:1053600030D5002060E000080000000000000000D0
:1053700000B5064B83B01A680192019A1B689A42E5
:1053800002D103B05DF804FBFBF7DAFF0008002050
:1053900030B50346124D13492A6843F8041B85B003
:1053A0000121044600900392436001720E4B00F10C
:1053B00054014FF480720C30FEF7FAF80B4B009456
:1053C0004FF4807204F5AA7104F13000FEF730FA50
:1053D000039A2B689A4201D105B030BDFBF7B0FFAC
:1053E0000008002080E0000861500008B152000869
:1053F000F0B5244F0E683B6883B00D460193044618
:10540000002838D0202383F31188FDF761FEFCF7D4
:1054100097FE237A013B012B02D91B48FCF7F0FDD4
:105420002B7906EB83039C616B79093346F82340A3
:10543000AB7913B106EB8306B46102232372C4F87F
:105440005452FCF79DFEFDF75BFE104B1A689A4222
:1054500004D0996993688A689A4208D3002383F339
:105460001188019A3B689A4209D103B0F0BD0848FF
:10547000FCF7C6FDF2E70448FCF7C2FDC2E7FBF704
:105480005FFF00BF0008002070E0000830D500205A
:1054900060E00008000000000000000000000000C4
:1054A000F0B5174ED0F854223368156883B000F178
:1054B0000C07044638460193FEF79AF804F13000D1
:1054C000FEF7D6F9201D0121FEF742F8D4F8543238
:1054D000597905EB81033A46DB6828465B8A00F080
:1054E00027FA019A33689A4208D1D4F8543259798C
:1054F000284603B0BDE8F04000F05ABAFBF720FFA1
:105500000008002000000000000000000000000073
:1055100000B590F84430144A83B003F0600311687A
:105520000191202B07D0002001991368994218D1CE
:1055300003B05DF804FB90F84530202BF3D3212B0A
:1055400007D80A4B836307210023C0E90F1301200A
:10555000EAE7222BE7D10023C0E90E3303640120E0
:10556000E2E7FBF7EDFE00BF000800202408002062
:105570002DE9F04300EB81032A4E9C69336883B028
:105580000193002C3DD0074688464FF0200989F34F
:105590001188FDF7CDFDFCF713FE201D0821FDF756
:1055A000D7FFFCF79DFED4E90F23A56B9B1A5D1B6B
:1055B0002ED107EB8803DB685A695568D5B11B8A81
:1055C000013B1D4016D1FCF71BFEFDF7C9FD85F31D
:1055D00011882B4604F130024146384600F0C8F9E4
:1055E00089F31188FDF7A4FDFCF7EAFD4146384632
:1055F00000F00EFAFCF704FEFDF7B2FD002383F382
:105600001188019A33689A420AD103B0BDE8F08349
:10561000FCF7F6FDFDF7A4FD002383F31188D8E71E
:10562000FBF78EFE000800200000000000000000D4
:105630002DE9F04701F10903274E50F82340336864
:1056400082B0019314B3884607464FF0200989F3CE
:105650001188FDF76DFDFCF7B3FD0421201DFDF75A
:1056600077FF07EB8803DB68B3F812A0FCF738FE7E
:10567000D4E906126569521A551BAA450DD9FCF7E3
:10568000BFFDFDF76DFD002383F31188019A336898
:105690009A421ED102B0BDE8F087FCF7B1FDFDF7DC
:1056A0005FFD002383F31188B5FBFAF304F10C02CC
:1056B0000AFB03F34146384600F03AF989F31188B2
:1056C000FDF736FDFCF77CFD4146384600F070F9E9
:1056D000D5E7FBF735FE00BF000800200000000002
:1056E00000B5064B83B01A680192019A1B689A4272
:1056F00002D103B05DF804FBFBF722FE0008002096
:1057000000B5074B83B01A680192019A1B689A4250
:1057100004D103B05DF804EB03F0DABCFBF710FE34
:105720000008002000000000000000000000000051
:1057300000B50A4B83B01A680192012202700199E8
:105740001A6800239142C0E9013305D10C3003B03F
:105750005DF804EBFDF71CBDFBF7F2FD000800202F
:1057600000B5074B83B01A680192019A1B689A42F0
:1057700004D103B05DF804EB04F0C2B8FBF7E0FD20
:1057800000080020000000000000000000000000F1
:1057900000B5074B83B01A680192019A1B689A42C0
:1057A00004D103B05DF804EB02F032BFFBF7C8FD93
:1057B00000080020000000000000000000000000C1
:1057C00000B50C4B83B01A68019201220270019956
:1057D0001A6800239142C36183620362C362436219
:1057E0000363C0E9013302D103B05DF804FBFBF7AA
:1057F000A7FD00BF0008002000000000000000001E
:1058000070B5204D82B02B6801930E46044698B3C4
:1058100091B3202383F31188FDF75AFCFCF790FC29
:105820002378013B012B02D91748FCF7E9FB002341
:105830002046C4E90333C4E90533666002F018FF6B
:1058400002232370FCF79CFCFDF75AFC0F4B1A68EF
:105850009A4204D0996993688A689A4208D30023CF
:1058600083F31188019A2B689A4209D102B070BD66
:105870000748FCF7C5FBF2E70348FCF7C1FBC8E7A4
:10588000FBF75EFD00080020A0E0000830D50020F6
:1058900030E10008000000000000000000000000EF
:1058A0002DE9F0411D4E82B00446336801930F4646
:1058B0001546FCF715FD5CB355B32378042B02D0D5
:1058C0001748FCF79DFB04EB8708D8F80C3013B1A0
:1058D0001348FCF795FB6B692BB100221A605A60E4
:1058E0009A60DA601A61AB692BB100221A605A60C3
:1058F0009A60DA601A61019A3368C8F80C509A42CB
:105900000AD13946204602B0BDE8F04102F0D0BFCE
:105910000348FCF775FBD0E7FBF712FD00080020F9
:10592000B0E00008000000000000000000000000DF
:1059300070B500EB81040C4DE4682E68A46982B058
:10594000E260019601262670019E2A6863609642F5
:105950004FF00003A36004D102B0BDE8704003F033
:10596000CFB8FBF7EDFC00BF0008002000000000EE
:1059700070B500EB81040C4DE4682E68646982B058
:10598000E260019601262670019E2A6863609642B5
:105990004FF00003A36004D102B0BDE8704003F0F3
:1059A0004FB9FBF7CDFC00BF00080020000000004D
:1059B000F0B5124D83B004462B6801930E46FCF7F8
:1059C0008FFCA4B1012000FA06F362899BB212EAAF
:1059D000030706D1134320466381314603F088FA5A
:1059E0003846019A2B689A4205D103B0F0BD0448AD
:1059F000FCF706FBE6E7FBF7A3FC00BF000800206E
:105A0000D0E00008000000000000000000000000DE
:105A1000F0B5124D83B004462B6801930E46FCF797
:105A20005FFCA4B1012000FA06F322899BB212EABE
:105A3000030706D1134320462381314603F078FA49
:105A40003846019A2B689A4205D103B0F0BD04484C
:105A5000FCF7D6FAE6E7FBF773FC00BF000800206E
:105A6000F0E000080000000000000000000000005E
:105A700010B50D4A82B01168019102210170019C9C
:105A8000116800228C42C264C0E90222C0E90422EB
:105A9000826180F8342004D102B0BDE8104002F0E9
:105AA0006FBEFBF74DFC00BF0008002000000000A7
:105AB000F0B5C34D83B0044600222B6880F8342033
:105AC00000F14402019303F003F863689B68002B24
:105AD00036D02046984798B3E16B94F8443094F858
