:020000040800F2
:1000000000040020C1010008613A0008613A0008BC
:1000100051320008613A0008613A0008613A00086C
:10002000613A0008613A0008613A00082159000865
:10003000613A0008613A0008613A0008F1B9000825
:10004000613A0008418C0008D18D0008218E00081B
:10005000613A0008613A000881890008D1890008E6
:10006000218A0008718A0008C18A0008417F0008BF
:10007000917F0008E17F000831800008818000083E
:10008000D180000821810008F1870008C18F000895
:1000900031900008E190000891910008118B000850
:1000A000613A0008613A000801B30008613A0008AB
:1000B000B1B50008F1B5000831B60008919D0008FF
:1000C000D19E0008613A0008613A0008613A0008D0
:1000D000613A0008613A0008613A0008B1BA0008C4
:1000E000A18B0008918C0008E18C000841B3000846
:1000F000613A0008613A0008613A0008718100081D
:10010000613A00082193000871B60008613A0008BE
:10011000613A0008613A0008C1B20008613A00087B
:10012000C18100081182000861820008B1820008C4
:1001300001830008613A0008318D0008613A000827
:10014000613A0008613A0008613A000851AD0008C0
:1001500051830008A1830008F1830008613A000878
:10016000613A0008613A0008613A0008613A000803
:10017000818D0008613A000851280008613A0008A2
:10018000613A0008613A0008613A0008613A0008E3
:10019000613A0008613A0008613A0008613A0008D3
:1001A000613A0008613A0008613A0008613A0008C3
:1001B000613A0008613A0008613A0008613A0008B3
:1001C00072B62E4880F3098840F20000CCF200009D
:1001D0004EF63471CEF20001086040F20000C0F229
:1001E000F0004EF68851CEF2000108604FF000009A
:1001F000E1EE100A4EF63C71CEF2000108600620D6
:1002000080F31488BFF36F8F0BF09AFD4FF05530D9
:100210001B491C4A91423CBF41F8040BFAE71A49BA
:10022000164A91423CBF41F8040BFAE71749184AB5
:10023000184B9A423EBF51F8040B42F8040BF8E702
:1002400000201549154A91423CBF41F8040BFAE7DA
:1002500003F0EEFB124C134DAC4203DA54F8041BCE
:100260008847F9E701F05CFF0F4C104DAC4203DA10
:1002700054F8041B8847F9E703F0EABB00080020A4
:10028000000000200004002000040020A845010810
:10029000000800206C1500207015002018110120A6
:1002A000C0010008C0010008C0010008C00100082A
:1002B0002DE9F04F2DED108AC1F80CD0D0F80CD0FC
:1002C000BDEC108ABDE8F08F03F00AFD04F0C8FC15
:1002D000002383F311882846A047002004F090FAF9
:1002E00004F0A6FC03F0DCFC04F0FAF803F0F8FCE0
:1002F00004F0B6FC00DFFEE7000000000000000094
:100300002DE9F843544B80461A68544882422DED3B
:10031000028B1BD052490B68DA0405D40A6842F4F8
:1003200080530B60012000E000204E4A4E491160CE
:1003300013684A4A934208D147490B6030B1484894
:10034000036823F48052026000E0FEE798ED018A22
:10035000B5EE408A0021F1EE10FAC8F81C10C8F87A
:100360001810C8F81410C8F81010C8F82810C8F8E9
:100370002410C8F8201029D0DFED3C7A28EE270A97
:1003800010EE100A01F038F8044618EE100A0D4677
:1003900001F032F80646B8F800000F4601F01AF8EE
:1003A0002BA3D3E9002301F0ADF902460B463046FA
:1003B000394600F0C3FE02460B462046294601F0AE
:1003C000A1F901F03DFBA8F82C0001E0A8F82C10E1
:1003D00098ED028AB5EE408AF1EE10FA26D0B8F810
:1003E00000904FEA092000F0F5FF044618EE100ACD
:1003F0000D4601F001F816A3D3E9002301F058F8E7
:10040000064648460F4600F0E5FF02460B463046DA
:10041000394600F093FE02460B462046294601F07D
:1004200071F901F00DFBA8F82E0002E00020A8F8F9
:100430002E00B8F800204FF47A73B2FBF3F1A8F85D
:100440003010BDEC028BBDE8F88300BFAFF3008035
:100450001F85EB51B81E194070150020CDB5E8B5C9
:100460003038024000300240C2A507F4000080434B
:100470002DE9F04F9BB083461992A94A1891A948DB
:100480001168814200D0FEE79E6AB3F80CC09F69F4
:100490009A8DD98D039603261C6A5D6A059706928C
:1004A00006FB0CF74FEA8C0206264FEA4C000B9134
:1004B0000E97052106FB0CF70F9207220294049574
:1004C0000D90119701FB0CF04FEACC0602FB0CF1EA
:1004D00000271D695C69D3F81CA010901291179633
:1004E0000197188EDDF80490814580F20A818E48CC
:1004F0009BF800601BF80C7010F80690C25DA144D8
:100500008419511994F8008194F8002201EB4808ED
:10051000CDF81C80DDF834801BF80860855DC719B4
:10052000A9180E9A97F800411BF8022097F800725C
:1005300001EB4405815C0895CC1981190F9E91F857
:10054000008191F8007204EB48081BF80640CDF8D2
:1005500024808218055D92F8006192F80022E91962
:1005600001EB460505EB0807DDF8408015971BF801
:1005700008700A950419C15D94F8005194F800427E
:10058000DDF81C808E1806EB4501119D089A1BF8BA
:1005900005508E18C719425D1696161997F8002156
:1005A00006EB42029044CDF85080129C97F80072FE
:1005B0001BF804604519845DE41995F8007195F8FD
:1005C0000052801904EB47044FF01C0804EB0907A4
:1005D00090F80061139708FB09AADDF81C800C94C1
:1005E0000AEB0209152705EB460490F8005207FBB9
:1005F0000890099FDDF820900A2606FB070A0F27BE
:1006000007FB09A04FF00308DDF8289008FB010064
:100610004FF0060A0AFB0900009015984FF03009C8
:1006200009FB00FADDF858902E2000FB09A0824655
:100630000598824413984FF0240909FB00AA1498E6
:100640004FF02A0909FB00AA0898DDF8249008FB5E
:1006500000F8062000FB0988DDF81C9008EB090073
:1006600007FB01010A9F0C98DDF8009006FB0718B4
:100670001C2606FB008115270B9807FB021205922A
:10068000A9F5003868B1029E049FCDF8108006EBF2
:100690000801CE1B46434FF4807296FBF2F00290A5
:1006A0008046069961B1039E08FB01F8C1F5807789
:1006B00006FB07894FF4807299FBF2F003908046A5
:1006C000199901FB08F7002F02DD0837381103E004
:1006D000083F102697FBF6F047F6BC72019E1349BF
:1006E000189FDDF85C809042A8BF1046DA897243FB
:1006F0008842A8BF0146013627F81210C34401966C
:10070000EFE61D615C61029D059C1D629C61039D7D
:10071000049CC3F81CA05C629D621BB0BDE8F08F16
:1007200070150020CDB5E8B5000800204480FFFF1B
:100730002DE9F04FA1B0C74C1F92C74A1E91116816
:10074000A14200D0FEE79F6A9A69998DDC8D0497DB
:100750009F89069207910F940322052106241D6AA2
:100760005E6A03957A4379437C43129214911594FF
:10077000072209210A24794305964FEA47084FEAE0
:1007800087097A434FEAC70A7C431E695D69D3F83B
:100790001CB01891CDF84480CDF84C901692CDF84D
:1007A0005CA01D94002102911A8E0299914280F260
:1007B0005981AA4A047812F80490A944C55D111918
:1007C00012F8058091F8004191F800A2464406EB2A
:1007D0004406119C0896045D5519165D95F800C1F4
:1007E00095F8005206EB0A0808EB4C0ADDF8488041
:1007F000CDF824A010F80810DDF84C80565C1419D0
:1008000006EB050A10F8085094F800C1565D94F8FC
:10081000004251180AEB4C0C361991F800A1149CB7
:1008200091F80012CDF828C006EB4A08065DCDF815
:100830002C80945DDDF85480551904EB010A95F87D
:10084000004195F800520AEB44010C9110F8081091
:100850009619545C641996F8005104EB45040D9404
:10086000169D96F80062DDF824A0DDF85C80A444B3
:10087000445DCDF86CC0155D5118AD1991F800615B
:1008800091F8001205EB460505EB0A060E9510F8E7
:1008900008501C961419565DDDF860A0711894F884
:1008A000006194F8004201EB460C08990CEB01063C
:1008B0001A9610F80A605519915D9219091995F860
:1008C000004192F8006195F8005201EB44012D249B
:1008D00001EB090804FB09BB10910899CDF864806D
:1008E0000BEB0C09DDF8288005EB460592F8006259
:1008F000242202FB019A152404FB08A9DDF824A098
:100900000C994FF01C0B0BFB0A994FF00A08DDF80D
:100910002CA008FB01994FF00F0B0E990BFB0A99C5
:100920004FF00308DDF834A008FB01994FF0060BE7
:100930000BFB0A99CDF80490DDF82CA00C994FF030
:100940004B0B51440BFB01F91B994FF0490A0AFB71
:10095000019B0699DDF868900BEB010A4FF03F0B05
:100960001C990BFB09AA4FF0450BDDF864900BFBBB
:1009700001AA4FF0370B0BFB09ABDDF824A00A9955
:1009800008FB0AF84FF00609DDF820A009FB0188F2
:100990000C99D0444FF00F09DDF82CA009FB018819
:1009A0000A21DDF8389001FB0A884FF01C0A0D99E6
:1009B0000AFB098804FB018A109C0F994FF02D094E
:1009C00009FB04A8DDF804A002FB0C820692AAF53C
:1009D0007A3971B1039C0599CDF8149004EB0902A2
:1009E000541A0F9A4FF48071544394FBF1F403941A
:1009F000A146079961B1049CC1F5807209FB01FC15
:100A000004FB02C94FF4807199FBF1F20492914604
:100A10001F9C04FB09F1002902DD10314C1103E099
:100A20001039202291FBF2F447F6BC718C42A8BF2A
:100A30000C46DA890299DDF874804A4308498C42F1
:100A4000A8BF21461E9C24F81210029A4044511C53
:100A5000A9E600BFCDB5E8B570150020000800205C
:100A60004480FFFF05981E615D61039E069D049C06
:100A700058629D61C3F81CB01E629C62104621B092
:100A8000BDE8F08F2DE9F04F95B0994C1392994A3B
:100A900012911168A14200D0FEE75E6A1D6A9F6A4A
:100AA0009A69998DB3F82E800C964FF00009D3F80F
:100AB00010C05E69D3F81CB00195029709920A91A3
:100AC000CDF83480CDF80C908B4904780D190C5D6D
:100AD00095F8007295F8008106EB070A067ACDF8C2
:100AE0002CA08F198E5D97F8002202EB4805AC44CC
:100AF000057C97F80081CDF810C04A194D5D92F839
:100B0000009292F8002109EB040A0AEB480C90F8D5
:100B100018A090F82090CDF814C001EB0A0494F8C6
:100B2000007294F80041BF1907EB420801EB09027B
:100B3000CDF8188092F8006292F80021771907EB3F
:100B4000440606EB080C90F8288011F80A70079606
:100B500001EB0805CDF840C095F8004295F800512A
:100B6000E619059F06EB4204E619119690F83060ED
:100B700008948C1911F8097094F80022D219049F76
:100B800002EB4502BD180F9590F8385011F8089007
:100B900094F80041DDF82C808E5D4F1997F800A283
:100BA00097F800710AEB090C0CEB4404DDF818A06F
:100BB00011F805C000941C2505FB082944440A21AE
:100BC000DDF8148001FB0A9906EB4706DDF820A04A
:100BD0000F2707FB0899032101FB0A99DDF81CA0E8
:100BE0004FF0060808FB0A99DDF810A0152101FB5B
:100BF0000A99CB44DDF84490CDF82CB04FF02E0A82
:100C00000AFB09FADDF840904FF0300B0BFB09AA04
:100C10004FF0240B0BFB04A90F9C4FF02A0A0AFB90
:100C2000049B099CDDF81890DDF810A0A344059CF6
:100C300008FB09A8DDF820A04FF0030909FB048890
:100C4000079C07FB0A890A2707FB0498DDF8009038
:100C5000DDF82CA00C9F05FB098501FB02520199D0
:100C60000992AAF500328C180D99DDF82880E51B51
:100C70004D434FF4807195FBF1F40194019F44467C
:100C80007C43029FC8EB010507FB054595FBF1F18D
:100C90000291139C6143002902DD0831091103E030
:100CA0000839102791FBF7F147F6BC75134C129FDA
:100CB0000C92A942A8BF2946039DA142B8BF214674
:100CC00079530C354030C02D03957FF4FDAE099863
:100CD000019C029D9861C3F810C05E61C3F81CB00E
:100CE0001C625A629D62102015B0BDE8F08F00BFF3
:100CF000CDB5E8B570150020000800204480FFFF46
:100D00002DE9F04FA1B084461F92BE4A1E91BE4805
:100D10001168814200D0FEE79E6A9F6905969E8910
:100D2000D98D01967000079703277E431190019893
:100D30009A8D0F9112960521019E08924843B200A8
:100D40001490019E01980199139206277E43072271
:100D5000C700514315961797019E019F1C6A5D6A53
:100D6000169109220A2156434F434FF0000804947C
:100D700006955C691D69D3F81CB018961D97CDF8CF
:100D80000C80188EDDF80C90814580F25A819F49C5
:100D90009CF80000DDF804900F181CF8096097F823
:100DA00000A297F80021085CA2448C198E5D94F88B
:100DB000008294F80041454405EB4207119D0997D4
:100DC0001CF805504A194D5D92F8007292F80081A6
:100DD0003F18129807EB44091CF80040CDF8289002
:100DE00008190C5D90F8007290F80001BF1907EB2C
:100DF0004809DDF84C80CDF82C901CF8089001EBE8
:100E00000902CDF8089092F8006292F80021771953
:100E1000149E1CF80690159E07EB400801EB090094
:100E2000CDF8308090F8005290F800012F1907EBB0
:100E300042081CF80670029DCDF83480CA194E5D38
:100E400092F80042A41904EB40050295DDF82C80CD
:100E5000169E92F80021CF5DA844CDF86C801CF856
:100E6000068011F80950DDF8609001EB080011F8D8
:100E7000088090F8004290F8000166190A9D06EB80
:100E80004204179A0E9466191C961CF802608C197D
:100E90008E5D94F8002294F80041D519099F05EB66
:100EA0004002D5191A951CF809504F194D5D97F855
:100EB000000297F80071404400EB44002D2100EB44
:100EC0000A0401FB0ABB1090099819940BEB020A63
:100ED00006EB470424210B9F01FB00A94FF01508E6
:100EE000DDF828A00D9808FB07964FF01C0B0BFBB4
:100EF0000A69DDF830800A2606FB009A0F27DDF824
:100F0000389007FB08AB4FF0030808FB09BADDF87F
:100F100008B0062000FB0BA9CDF80090DDF834A046
:100F2000DDF830B04FF04B090AEB0B0009FB00FA7B
:100F30001B984FF0490B0BFB00A9079809EB000A1F
:100F4000DDF868901C984FF03F0B0BFB09AA4FF09F
:100F5000450BDDF864900BFB00AA4FF0370B0BFB41
:100F600009ABDDF828A00B9808FB0AF84FF006093A
:100F7000DDF824A009FB00880D9808EB0A0907FB9F
:100F800000980C9FDDF83890029806FB07864FF01A
:100F90001C0A0AFB0968152707FB008610980F9F9B
:100FA0004FF02D0909FB006A01FB02A2DDF800A049
:100FB0000792AAF57A386FB10499069ECDF8188089
:100FC00001EB0800811B79434FF4807291FBF2F72B
:100FD0000497B846089860B1059908FB00F8C0F579
:100FE000807601FB06894FF4807299FBF2F7059732
:100FF000B8461F9800FB08F6002E09DD1036771161
:101000000AE000BF70150020CDB5E8B5000800204B
:10101000103E202196FBF1F7039ED8891049DDF898
:10102000748047F6BC729742A8BF17468F42A8BF8C
:10103000394670431E9F721C27F81010C444039257
:101040009FE65C61079C049A9C61059E069C1D615D
:10105000C3F81CB01A625C629E6221B0BDE8F08FDA
:101060004480FFFFAFF3008000000000000000009C
:101070004B1C012B98BF70472DE9F003911C9B0876
:10108000B1F80480B1F802900A8831F802CC8044AB
:10109000814402448444D9F80070D8F8006015688F
:1010A000DCF80040C9F80060C8F80070CCF80050C7
:1010B0001460D9F80470D8F804605568DCF804406E
:1010C000C9F80460C8F80470CCF8045054600831C2
:1010D000013BD5D1BDE8F00370474B1C012B98BFF5
:1010E00070472DE9F003911C9B08B1F80480B1F81A
:1010F00002900A8831F802CC00EB580800EB59093D
:1011000000EB520200EB5C0CD9F80070D8F80060DC
:101110001568DCF80040C9F80060C8F80070CCF829
:10112000005014600831013BDFD1BDE8F003704787
:1011300081F0004102E000BF83F0004330B54FEA88
:1011400041044FEA430594EA050F08BF90EA020FF5
:101150001FBF54EA000C55EA020C7FEA645C7FEA88
:10116000655C00F0E2804FEA5454D4EB5555B8BFAB
:101170006D420CDD2C4480EA020281EA030382EA1C
:10118000000083EA010180EA020281EA0303362DAE
:1011900088BF30BD11F0004F4FEA01314FF4801C81
:1011A0004CEA113102D0404261EB410113F0004F93
:1011B0004FEA03334CEA133302D0524263EB43034A
:1011C00094EA050F00F0A780A4F10104D5F1200EE8
:1011D0000DDB02FA0EFC22FA05F2801841F1000143
:1011E00003FA0EF2801843FA05F359410EE0A5F117
:1011F00020050EF1200E012A03FA0EFC28BF4CF048
:10120000020C43FA05F3C01851EBE37101F00045FD
:1012100007D54FF0000EDCF1000C7EEB00006EEB0A
:101220000101B1F5801F1BD3B1F5001F0CD3490894
:101230005FEA30004FEA3C0C04F101044FEA4452EB
:1012400012F5800F80F09A80BCF1004F08BF5FEA72
:10125000500C50F1000041EB045141EA050130BD52
:101260005FEA4C0C404141EB010111F4801FA4F1F5
:101270000104E9D191F0000F04BF01460020B1FA4A
:1012800081F308BF2033A3F10B03B3F120020CDA82
:101290000C3208DD02F1140CC2F10C0201FA0CF060
:1012A00021FA02F10CE002F11402D8BFC2F1200CC5
:1012B00001FA02F120FA0CFCDCBF41EA0C0190407B
:1012C000E41AA2BF01EB0451294330BD6FEA0404C4
:1012D0001F3C1CDA0C340EDC04F11404C4F12002AF
:1012E00020FA04F001FA02F340EA030021FA04F3C1
:1012F00045EA030130BDC4F10C04C4F1200220FA18
:1013000002F001FA04F340EA0300294630BD21FA55
:1013100004F0294630BD94F0000F83F4801306BF1B
:1013200081F480110134013D4EE77FEA645C18BF0F
:101330007FEA655C29D094EA050F08BF90EA020FA6
:1013400005D054EA000C04BF1946104630BD91EA9E
:10135000030F1EBF0021002030BD5FEA545C05D1A1
:101360004000494128BF41F0004130BD14F58004E0
:101370003CBF01F5801130BD01F0004545F0FE4154
:1013800041F470014FF0000030BD7FEA645C1ABF89
:10139000194610467FEA655C1CBF0B46024650EAC0
:1013A000013406BF52EA033591EA030F41F40021EC
:1013B00030BD00BF90F0000F04BF0021704730B572
:1013C0004FF4806404F132044FF000054FF0000147
:1013D00050E700BF90F0000F04BF0021704730B508
:1013E0004FF4806404F1320410F0004548BF4042DD
:1013F0004FF000013EE700BF42004FEAE2014FEA32
:1014000031014FEA02701FBF12F07F4393F07F4F0C
:1014100081F06051704732F07F4208BF704793F00F
:101420007F4F04BF41F40021704730B54FF4607422
:1014300001F0004521F000411CE700BF50EA010225
:1014400008BF704730B54FF000050AE050EA0102CE
:1014500008BF704730B511F0004502D5404261EB3E
:1014600041014FF4806404F132045FEA915C3FF47F
:10147000D8AE4FF003025FEADC0C18BF03325FEA1C
:10148000DC0C18BF033202EBDC02C2F1200300FACD
:1014900003FC20FA02F001FA03FE40EA0E0021FAF2
:1014A00002F11444BDE600BF00000000000000008F
:1014B00070B54FF0FF0C4CF4E06C1CEA11541DBFEA
:1014C0001CEA135594EA0C0F95EA0C0F00F0DEF8B5
:1014D0002C4481EA030621EA4C5123EA4C5350EA9A
:1014E000013518BF52EA033541F4801143F48013EB
:1014F00038D0A0FB02CE4FF00005E1FB02E506F07C
:101500000042E0FB03E54FF00006E1FB03569CF0D0
:10151000000F18BF4EF0010EA4F1FF04B6F5007FD6
:1015200064F5407404D25FEA4E0E6D4146EB060648
:1015300042EAC62141EA55514FEAC52040EA5E50D1
:101540004FEACE2EB4F1FD0C88BFBCF5E06F1ED87B
:10155000BEF1004F08BF5FEA500E50F1000041EBB2
:10156000045170BD06F0004646EA010140EA02005F
:1015700081EA0301B4EB5C04C2BFD4EB0C0541EA81
:10158000045170BD41F480114FF0000E013C00F396
:10159000AB8014F1360FDEBF002001F0004170BDBA
:1015A000C4F10004203C35DA0C341BDC04F11404D3
:1015B000C4F1200500FA05F320FA04F001FA05F25F
:1015C00040EA020001F0004221F0004110EBD3702C
:1015D00021FA04F642EB06015EEA430E08BF20EA58
:1015E000D37070BDC4F10C04C4F1200500FA04F3FB
:1015F00020FA05F001FA04F240EA020001F000418D
:1016000010EBD37041F100015EEA430E08BF20EAFF
:10161000D37070BDC4F1200500FA05F24EEA020E47
:1016200020FA04F301FA05F243EA020321FA04F076
:1016300001F0004121FA04F220EA020000EBD3702D
:101640005EEA430E08BF20EAD37070BD94F0000F2D
:101650000FD101F00046400041EB010111F4801F61
:1016600008BF013CF7D041EA060195F0000F18BF12
:10167000704703F00046520043EB030313F4801F4E
:1016800008BF013DF7D043EA0603704794EA0C0F08
:101690000CEA135518BF95EA0C0F0CD050EA41061E
:1016A00018BF52EA4306D1D181EA030101F000419B
:1016B0004FF0000070BD50EA410606BF10461946C3
:1016C00052EA430619D094EA0C0F02D150EA0136CF
:1016D00013D195EA0C0F05D152EA03361CBF104610
:1016E00019460AD181EA030101F0004141F0FE41AF
:1016F00041F470014FF0000070BD41F0FE4141F433
:10170000780170BD70B54FF0FF0C4CF4E06C1CEA32
:1017100011541DBF1CEA135594EA0C0F95EA0C0FE7
:1017200000F0A7F8A4EB050481EA030E52EA0335A2
:101730004FEA013100F088804FEA03334FF08055C3
:1017400045EA131343EA12634FEA022245EA1115F0
:1017500045EA10654FEA00260EF000419D4208BFA1
:10176000964244F1FD0404F5407402D25B084FEA4E
:101770003202B61A65EB03055B084FEA32024FF4FA
:1017800080104FF4002CB6EB020E75EB030E22BF57
:10179000B61A754640EA0C005B084FEA3202B6EB17
:1017A000020E75EB030E22BFB61A754640EA5C00C6
:1017B0005B084FEA3202B6EB020E75EB030E22BF56
:1017C000B61A754640EA9C005B084FEA3202B6EB57
:1017D000020E75EB030E22BFB61A754640EADC0016
:1017E00055EA060E18D04FEA051545EA16754FEA78
:1017F00006164FEAC30343EA52734FEAC2025FEA96
:101800001C1CC0D111F4801F0BD141EA00014FF024
:1018100000004FF0004CB6E711F4801F04BF0143F5
:101820000020B4F1FD0C88BFBCF5E06F3FF6AFAE11
:10183000B5EB030C04BFB6EB020C5FEA500C50F1A1
:10184000000041EB045170BD0EF0004E4EEA113124
:1018500014EB5C04C2BFD4EB0C0541EA045170BD2B
:1018600041F480114FF0000E013C90E645EA060E6F
:101870008DE60CEA135594EA0C0F08BF95EA0C0F9D
:101880003FF43BAF94EA0C0F0AD150EA01347FF4E5
:1018900034AF95EA0C0F7FF425AF104619462CE7BC
:1018A00095EA0C0F06D152EA03353FF4FDAE10461F
:1018B000194622E750EA410618BF52EA43067FF470
:1018C000C5AE50EA41047FF40DAF52EA43057FF400
:1018D000EBAE12E700000000000000000000000076
:1018E0004FF0FF3C06E000BF4FF0010C02E000BFEC
:1018F0004FF0010C4DF804CD4FEA410C7FEA6C5CCF
:101900004FEA430C18BF7FEA6C5C1BD001B050EA71
:10191000410C0CBF52EA430C91EA030F02BF90EA5C
:10192000020F0020704710F1000F91EA030F58BF1B
:10193000994208BF90422CBFD8176FEAE37040F07D
:10194000010070474FEA410C7FEA6C5C02D150EA1B
:10195000013C07D14FEA430C7FEA6C5CD6D152EAD6
:10196000033CD3D05DF8040B704700BF844610469B
:1019700062468C461946634600E000BF01B5FFF79A
:10198000B7FF002848BF10F1000F01BD4DF808ED6A
:10199000FFF7F4FF0CBF012000205DF808FB00BF3B
:1019A0004DF808EDFFF7EAFF34BF012000205DF895
:1019B00008FB00BF4DF808EDFFF7E0FF94BF0120E2
:1019C00000205DF808FB00BF4DF808EDFFF7CEFFE3
:1019D00094BF012000205DF808FB00BF4DF808ED22
:1019E000FFF7C4FF34BF012000205DF808FB00BFF3
:1019F0004FEA410212F5001215D211D56FF4787337
:101A0000B3EB625212D94FEAC12343F0004343EAD9
:101A1000505311F0004F23FA02F018BF40427047B4
:101A20004FF00000704750EA013005D111F000403E
:101A300008BF6FF0004070474FF00000704700BFD4
:101A40004A0011D212F5001211D20DD56FF478733D
:101A5000B3EB62520ED44FEAC12343F0004343EA92
:101A6000505323FA02F070474FF00000704750EADD
:101A7000013002D14FF0FF3070474FF00000704747
:101A80004FEA4102B2F1E04324BFB3F5001CDCF1A0
:101A9000FE5C0DD901F0004C4FEAC0024CEA5070D8
:101AA000B2F1004F40EB830008BF20F00100704707
:101AB00011F0804F21D113F13872BCBF01F000400A
:101AC000704741F480114FEA5252C2F11802C2F13C
:101AD000200C10FA0CF320FA02F018BF40F00100BD
:101AE0004FEAC1234FEAD32303FA0CFC40EA0C006F
:101AF00023FA02F34FEA4303CCE77FEA625307D1AC
:101B000050EA01331EBF4FF0FE4040F440007047E2
:101B100001F0004040F0FE4040F40000704700BF7C
:101B200053B94AB9002908BF00281CBF4FF0FF3144
:101B30004FF0FF3000F074B9ADF1080C6DE904CE40
:101B400000F006F8DDF804E0DDE9022304B0704798
:101B50002DE9F047089E04468846002B4BD18A4267
:101B6000154667D9B2FA82F24AB1C2F1200701FAEA
:101B700002F320FA07F7954047EA030894404FEA3A
:101B8000154E230CB8FBFEF71FFA85FC0EFB1788D9
:101B900043EA084307FB0CF1994209D9EB1807F116
:101BA000FF3080F01B81994240F21881023F2B44A4
:101BB0005B1AA4B2B3FBFEF00EFB103344EA0344FD
:101BC00000FB0CFCA44509D92C1900F1FF3380F06F
:101BD0000781A44540F2048102382C4440EA0740C2
:101BE000A4EB0C0400271EB1D4400023C6E9004337
:101BF0003946BDE8F0878B4209D9002E00F0EB8012
:101C00000027C6E9000138463946BDE8F087B3FA37
:101C100083F7002F47D18B4202D3824200F2FA8031
:101C2000841A61EB030301209846002EE0D0C6E938
:101C30000048DDE702B9FFDEB2FA82F2002A40F086
:101C40008F80491B4FEA154E1FFA85F80127B1FB1B
:101C5000FEFC230C0EFB1C1143EA014308FB0CF1B4
:101C6000994207D9EB180CF1FF3002D2994200F2E9
:101C7000CD808446591AA3B2B1FBFEF00EFB1014BE
:101C800043EA044408FB00F8A04507D92C1900F1E9
:101C9000FF3302D2A04500F2B6801846A4EB080438
:101CA00040EA0C409FE7C7F1200CBB4022FA0CFE33
:101CB0004EEA030E01FA07F420FA0CF521FA0CF3B0
:101CC0004FEA1E482543B3FBF8F92C0C08FB1933E7
:101CD0001FFA8EFA44EA034309FB0AF49C4202FA13
:101CE00007F200FA07F10BD91EEB030309F1FF30ED
:101CF00080F087809C4240F28480A9F102097344FD
:101D00001B1BADB2B3FBF8F008FB103345EA0344EC
:101D100000FB0AFAA24508D91EEB040400F1FF33C8
:101D20006BD2A24569D90238744440EA0940A0FB4D
:101D30000289A4EB0A044C45C2464B4654D351D009
:101D4000002E69D0B1EB0A0564EB030404FA0CFC25
:101D5000FD40FC404CEA0505C6E90054002747E772
:101D6000C2F1200320FA03F7954001FA02F021FAAC
:101D700003F34FEA154E3843010CB3FBFEF71FFA8D
:101D800085F80EFB173341EA034107FB08F38B424A
:101D900004FA02F407D9691807F1FF3C2FD28B42ED
:101DA0002DD9023F2944CB1A81B2B3FBFEF00EFBC2
:101DB000103341EA034100FB08F38B4207D969184D
:101DC00000F1FF3C17D28B4215D902382944C91AB9
:101DD00040EA07473BE73746304609E70746E7E66C
:101DE0001846FBE64145ABD2B8EB020A69EB0E029E
:101DF00001381346A4E76046E9E7184695E76746C9
:101E0000D1E781467CE702382C4447E7ACF1020C6D
:101E10002B442FE7384608E73746E9E60000000084
:101E2000704700BF0000000000000000000000003C
:101E3000844641EA000313F003036DD1403A41D3D5
:101E400051F8043B40F8043B51F8043B40F8043B94
:101E500051F8043B40F8043B51F8043B40F8043B84
:101E600051F8043B40F8043B51F8043B40F8043B74
:101E700051F8043B40F8043B51F8043B40F8043B64
:101E800051F8043B40F8043B51F8043B40F8043B54
:101E900051F8043B40F8043B51F8043B40F8043B44
:101EA00051F8043B40F8043B51F8043B40F8043B34
:101EB00051F8043B40F8043B51F8043B40F8043B24
:101EC000403ABDD2303211D351F8043B40F8043BC4
:101ED00051F8043B40F8043B51F8043B40F8043B04
:101EE00051F8043B40F8043B103AEDD20C3205D3D4
:101EF00051F8043B40F8043B043AF9D2043208D0CC
:101F0000D2071CBF11F8013B00F8013B01D30B883D
:101F100003806046704700BF082A13D38B078DD01B
:101F200010F003038AD0C3F10403D21ADB071CBFED
:101F300011F8013B00F8013B80D331F8023B20F857
:101F4000023B7BE7043AD9D3013A11F8013B00F890
:101F5000013BF9D20B7803704B7843708B78837018
:101F60006046704700000000000000000000000014
:101F700090F800F06DE9024520F007016FF0000CC9
:101F800010F0070491F820F040F049804FF0000471
:101F90006FF00700D1E9002391F840F000F108004C
:101FA00082FA4CF2A4FA8CF283FA4CF3A2FA8CF384
:101FB0004BBBD1E9022382FA4CF200F10800A4FAEB
:101FC0008CF283FA4CF3A2FA8CF3E3B9D1E904233F
:101FD00082FA4CF200F10800A4FA8CF283FA4CF376
:101FE000A2FA8CF37BB9D1E9062301F1200182FA30
:101FF0004CF200F10800A4FA8CF283FA4CF3A2FA36
:102000008CF3002BC6D0002A04BF04301A4612BA43
:10201000B2FA82F2FDE8024500EBD2007047D1E946
:10202000002304F00305C4F100004FEAC50514F0D5
:10203000040F91F840F00CFA05F562EA05021CBFA6
:1020400063EA050362464FF00004A9E700000000C0
:1020500001F0FF01102A2BDB10F0070F08D010F859
:10206000013B013A8B422DD010F0070F42B3F6D15D
:10207000F0B441EA012141EA014122F007047FF076
:1020800000070023F0E80256083C85EA010586EACD
:10209000010685FA47F5A3FA87F586FA47F6A5FA09
:1020A00087F68EB9EED1F0BC01F0FF0102F0070215
:1020B00032B110F8013B013A83EA010313B1F8D1C0
:1020C0000020704701387047002D06BF35460338A1
:1020D000073815F0010F07D1013015F4807F02BFDA
:1020E000013015F4C03F0130F0BC0138704700BF2B
:1020F0004FEA410C7FEA6C5C02D150EA013C0AD104
:102100004FEA430C7FEA6C5C02D152EA033C02D1F5
:102110004FF0000070474FF00100704700000000D2
:1021200000B5184B184C1B6883B0019303F058FCA2
:1021300001F0AEFC01F034F814481549054604F0EE
:102140006FFE01F0DDFB1349134803F039FE12481E
:102150004FF6FF7103F0A4FE01F0FAFA0F4800F009
:1021600017FD00F02DF9062000F042F921464FF44A
:10217000806209F0A5FE4FF480622146284600F0F7
:1021800077F9EEE7000B0020741500206C10012099
:10219000040B002080070108DC0F012051220008F9
:1021A00000B5084B83B01A680192019A1B689A42E5
:1021B00005D1054803B05DF804EB01F0D1BCFFF791
:1021C000EFFF00BF000B00206007010800000000C7
:1021D00030B51B4D83B02B680193002301461A468E
:1021E00000EB8204D4ED007AB1EC017AB4EE677AA8
:1021F000F1EE10FA9CB203F10103C8BF2246B3F519
:10220000806FEDD1B2F5C87F0DD8002001F070FAD3
:10221000019A2B689A4208BF00200FD103B0BDE895
:10222000304001F07DBA4FF4167001F061FA019A66
:102230002B689A4208BF4FF41670EFD0FFF7B0FF3B
:10224000000B002000000000000000000000000063
:102250002DE9F04F4F4D504E2A883368DFF85481F6
:10226000DFF854E1DFF854C14C4F83B002F1A0090C
:10227000002401931FFA89F904E04A4500F108009F
:1022800000F08680B0F9023007EE903AD30019468C
:10229000043308EB030AF8EEE77A08EB010BCBED09
:1022A000007ACAF80040B0F900A007EE90AA0EEB41
:1022B000030AF8EEE77A0EEB010BCBED007ACAF8D1
:1022C0000040B0F904A007EE90AA0CEB030AF8EE68
:1022D000E77A0CEB010BCBED007ACAF80040B0F9BD
:1022E00006A007EE90AA0132F8EEE77A92B23B44DC
:1022F0003944B2F5806FC1ED007A1C60BDD3284C23
:102300002A8023780133DBB2092B237008D80023FD
:102310002B80019A33689A4238D103B0BDE8F08F20
:102320001E494FF4806000F0D3F84FF480621D49DD
:102330001A480AF0ADF9202383F3118802F078FCE3
:1023400001F0AEFC01F07CFD17488368002B1ADD1C
:1023500002F09EF801F0C4FC02F082FC134B1A68F4
:102360009A4204D0996993688A689A4207D30023F5
:1023700083F311880B482370FFF72AFFC7E70C4847
:1023800001F0EEFBF3E702F04BFDE1E7FFF708FF9A
:102390002A80BEE774250020000B0020785500201D
:1023A00078E5002078750020100B0020380201200D
:1023B000900701087885002078B500207825002056
:1023C00000B5084B83B01A680192019A1B689A42C3
:1023D00005D1054803B05DF804EB02F0E9BCFFF756
:1023E000DFFE00BF000B0020100B002000000000EB
:1023F00000B5164B83B01A68019288B1012817D036
:10240000022819D0032815D0042817D0052817D082
:10241000062817D00E4A07280CBF1046002000E0FF
:102420000C48019A1B689A420ED103B05DF804FB78
:102430000948F6E70948F4E70948F2E70948F0E7F0
:102440000948EEE70948ECE7FFF7AAFE000B002079
:10245000784500207885002078B500207825002078
:102460007855002078A5002078D5002078750020C8
:1024700070B5124D036884B00446ADF806202A6892
:102480001B6803920E4605220D49984723680222D5
:102490001B680DF10601204698472368BDF8062009
:1024A0001B689200314620469847039A2B689A424F
:1024B00001D104B070BDFFF773FE00BF000B002018
:1024C000A00701080000000000000000000000005C
:1024D00000B50D4B83B01A680192B0F5806F019A78
:1024E0001B6804D09A420CD103B05DF804FB9A42F9
:1024F00007D106480123002203B05DF804EB0AF07F
:1025000047B8FFF74DFE00BF000B0020B0070108E1
:1025100030B54368174D1A68296883B004460191A5
:1025200012B304220270DA681B68520811469847F9
:102530002378042B18D0202383F3118802F0A8FB02
:1025400001F0EEFB04F10800002102F0A1F901F016
:1025500007FC02F0B5FB002383F31188019A2B6876
:102560009A4204D103B030BD02232370E3E7FFF7A2
:1025700017FE00BF000B002000000000000000005C
:1025800070B5194D82B02B68019311F00C0F0C46F9
:10259000064622D114F0200109D0019A2B689A42F4
:1025A0001FD1304602B0BDE87040FFF7B1BFE3066F
:1025B0000DD57268136853B1019C2868844210D10C
:1025C000D2683046520802B0BDE870401847019A00
:1025D0002B689A4205D102B070BD044801F0C0FAE0
:1025E000D8E7FFF7DDFD00BF000B0020E007010882
:1025F00070B5194D82B02B68019311F00C0F0C4689
:10260000064622D114F0200109D0019A2B689A4283
:102610001FD1304602B0BDE87040FFF779BFE30636
:102620000DD57268136853B1019C2868844210D19B
:10263000D2683046520802B0BDE870401847019A8F
:102640002B689A4205D102B070BD044801F088FAA7
:10265000D8E7FFF7A5FD00BF000B0020E007010849
:1026600030B50F4D0F4C2A680F4B83B020460192B6
:102670004FF6FF721A8000F05BF90C4B01992A6843
:102680000B480C4D2562636203F1240591420A4B0D
:102690002363C4E90A5001D103B030BDFFF780FDC8
:1026A000000B002090E500207AE50020D8110108F9
:1026B0001E010100003C0040460001000000000037
:1026C00070B52C4D03782A6882B0012B0446019224
:1026D00024D06368E26A5989236B22F4F04223F420
:1026E000F043090544BF42F4205243F42053C4E9A7
:1026F0000B23236A00221A606268236A52891A60D7
:10270000236A03225A60226A136843F0400313606D
:10271000019A2B689A422BD102B070BD164EB0427E
:102720000AD0D4E9083212680C339360A26A236A93
:1027300012680C339360CCE70346104A406A0A21C2
:1027400005F0B6FE80B9B06A0B4B0D4A0A2105F0C0
:10275000AFFE28B90B4A136C43F400431364E0E75F
:10276000094801F0FDF9F5E7074801F0F9F9EAE752
:10277000FFF716FD000B002090E50020F125000872
:102780008125000800380240C00701080000000051
:1027900070B5456A174C2D68266882B00196EB60CB
:1027A000436A1B685960456AC36A2D6843F48063B5
:1027B0002B60836A1B68DA60836A1B685960826ACF
:1027C000036B126843F480631360436A1A681368EA
:1027D00043F001031360836A1A68136843F001032E
:1027E0001360019A23689A4201D102B070BDFFF7CD
:1027F000D7FC00BF000B002000000000000000001C
:1028000030B5104D81682B680F4A83B001930B6877
:1028100023F001030B608168946A03E0936A1B1B39
:10282000C72B09D8086810F00100F7D1019A2B686E
:102830009A4204D103B030BD4FF0FF30F6E7FFF706
:10284000AFFC00BF000B0020380201200000000098
:10285000F0B5284D83B02B68019302F0B1F901F077
:102860009FFA254B1E69F20715D55A69234C42F091
:1028700001025A612778BB1F012B2AD90522636800
:1028800022701B680BB120469847042F27D0022FD7
:1028900025D003232370B30710D5174A174C53696B
:1028A00043F0020353612378032B1DD063689B68B8
:1028B0000622227013B101211048984701F098FABE
:1028C000019A2B689A4213D103B0BDE8F04003F09F
:1028D00047B8019A2B689A420AD103B0F0BD02238F
:1028E0002370B307EAD5D8E72046FFF789FFDDE775
:1028F000FFF756FC000B0020000005507CE500208F
:1029000000B5074B83B01A680192019A1B689A427E
:1029100004D103B05DF804EBFFF7A2BEFFF740FC63
:10292000000B00200000000000000000000000007C
:1029300000B50A4B83B01A68019201220270019916
:102940001A6800239142C0E9013305D10C3003B06D
:102950005DF804EB02F0A4BAFFF722FC000B0020A4
:1029600070B51E4D82B02B6801930E46044670B3BD
:1029700069B3202383F3118802F05AF901F090F92A
:102980002378013B012B02D9154801F0E9F82046D4
:102990006660FFF795FE0223237001F0A1F902F0B3
:1029A0005FF9104B1A689A4204D0996993688A6853
:1029B0009A4208D3002383F31188019A2B689A4224
:1029C00009D102B070BD084801F0CAF8F2E7044826
:1029D00001F0C6F8CDE7FFF7E3FB00BF000B0020D6
:1029E0000008010838020120F0070108000000007B
:1029F0002DE9F041214D82B02C6801940E4690469D
:102A00001F46044600B171BB1D4801F0A9F8202300
:102A100083F3118802F00CF901F042F92378022BBC
:102A200002D0174801F09CF803203B46424631464D
:102A300020702046FFF7ACFE01F052F902F010F9C9
:102A4000104B1A689A4204D0996993688A689A422E
:102A50000ED3002383F31188019A2B689A420BD17D
:102A600002B0BDE8F081002BCED0002ACFD1CBE759
:102A7000054801F075F8ECE7FFF792FB000B00202A
:102A80001008010838020120F007010800000000CA
:102A90002DE9F04F394A3A4B126883B00124019274
:102AA0001C70002963D04FF00008364CC246C34664
:102AB000C1464746C446434647F6FF7E1DE0AB4548
:102AC000A8BFAB46024432F9026CB2F90450B442DA
:102AD000B8BF3446B645A8BFB6464D4545DCA84507
:102AE000A8BFA846B2F90220BA420EDC04339245D0
:102AF0009BB2A8BF924699420CD95D1C6A0030F97E
:102B000015506545DBDDAC46DCE704339BB29942EA
:102B10001746F2D8A4EB0E04ACEB0B0CA7EB0A079C
:102B2000A9EB0808A4B21FFA8CFCBFB21FFA88F800
:102B3000154A12491480019C0968144BA2F802C07E
:102B40009780B0F8F8C4B0F8FA64A2F80680B0F83C
:102B5000FC54B0F8FE24A3F800C08C425E809D8037
:102B6000DA8008D103B0BDE8F08FA946BAE78846FD
:102B70000F468C46DCE7FFF713FB00BF000B00207D
:102B8000C4E500200080FFFFD0E50020C8E500205C
:102B900070B53F4B3F4C1A78236882B0012A0193ED
:102BA00005D0019A23689A4270D102B070BD3A49AB
:102BB0003A4B4D6C45F480354D644E6A002546F421
:102BC00080364E624D621D61DD60196A21F001019F
:102BD0001962996921F003019961996941F0010134
:102BE0009961996921F0F0019961196A21F00A014E
:102BF0001962996921F00C019961996821F07001BD
:102C00009960996841F050019960996821F4803188
:102C100021F007019960996841F0070199601968EE
:102C200021F440711960DA629D625A61196A21F0DB
:102C300010011962996921F440719961996921F033
:102C4000807121F4E0419961996941F4C041996131
:102C5000196A21F0A00119629A639A6942F400622C
:102C60009A611A6A22F480621A621A6A42F01102A8
:102C70001A621A6842F001021A6020B10090684698
:102C800000F076F98DE7064B0093F8E7FFF788FA36
:102C9000740F0120000B002000380240004001406A
:102CA000912A000800000000000000000000000061
:102CB00070B5114C82B0236801930E46154620234F
:102CC00083F3118801F0E4FF01F02AF80B4B0C4864
:102CD000C3E9006502F0A4F801F042F801F0F0FF4A
:102CE000002383F31188019A23689A4201D102B02C
:102CF00070BDFFF755FA00BF000B0020E8FA002076
:102D0000D8E50020000000000000000000000000E6
:102D100070B5114C82B0236801930E4615462023EE
:102D200083F3118801F0B4FF00F0FAFF0B4B0C485D
:102D3000C3E9006502F074F801F012F801F0C0FF79
:102D4000002383F31188019A23689A4201D102B0CB
:102D500070BDFFF725FA00BF000B0020CCF8002063
:102D6000D8E5002000000000000000000000000086
:102D70002DE9F04F624B63499A69634B916185B0CD
:102D80001B6803935E4B9B6993F821305B0700F14E
:102D9000AD805E4802F00CF85C4802F009F8584B30
:102DA0009B6993F8212012F0040240F09F80584D57
:102DB00058482B6801680446406805EB830304EB20
:102DC000810103F50279430001F10808019343D022
:102DD000DFF850B1504BDFF85CA1012018F8125019
:102DE00018F8006019F8121019F8004005F0550C99
:102DF000770806F0550613F80CC09E5D01F0550EDD
:102E00004CEA061649084FEA540C01F0550104F04B
:102E100055040CF0550C6D0813F80EE0595C1C5D60
:102E200013F80CC00BF8126005F0550507F05507B4
:102E300041EA0C114EEA041E0AF812E05D5D0AF840
:102E40000010DF5D0199013245EA071591420BF848
:102E5000005000F10200C1D1304B31493148324DB0
:102E60000422FDF705FB314B314932480422FDF7BE
:102E7000FFFA314B314932480422FDF7F9FA314B60
:102E8000314932480422FDF7F3FADFF8D4C028684C
:102E90009CF80070224A264900EBC71302F1400655
:102EA00014881C8054885C804C889C80043231F8E3
:102EB000044BDC80964203F10803F1D1092F11D1B4
:102EC000234B00221B688CF800204FF42071984798
:102ED0002B68204A204993420B6006BF1F4B2B6092
:102EE0002A604FE701378CF800704BE7064B039AD6
:102EF0001B689A4202D105B0BDE8F08FFFF750F988
:102F00003802012030080108000B0020D8E500201D
:102F1000E8FA0020CCF800201C0B0020A4F60020CA
:102F200060EB0020A0EB00209C0B00200CF70020A1
:102F300074F70020B4F70020D8F6002062EB0020E0
:102F4000A1EB002040F7002076F70020B5F7002025
:102F5000B4F80020A0EC0020A00B0020A0F100207D
:102F6000A0F60020000000000000000000000000AB
:102F70002DE9F04F494A0168494B116085B00021A5
:102F80000E461B684748039301F0B2FE4FF4AF6151
:102F9000454B009641224548454DDFF84891454C48
:102FA000DFF844A1444F01F05BFB444B444A1860F6
:102FB000136BC5F804A043F480534FF002184FF48C
:102FC0007A5B13632846C5E90298A5F800B0FDF7BF
:102FD00097F92046C4E901A9C4F80C80A4F800B010
:102FE000FDF78EF905F13400C5E90EA9C5F840805A
:102FF000A5F834B0FDF784F9324DC4F8408004F1EF
:103000003400C4E90EA9A4F834B0FDF779F93146CB
:1030100040F20C4238460AF0D3F9DFF8D0902A4A41
:103020006E604FF400634FF080082E812A606B8140
:10303000264CC5F80C80C7F80894FFF761FC2946B8
:103040002348244DFFF78CFC07F5027307F10802B3
:103050004FF480711E48FFF7CBFC314620464FF4F9
:1030600003720AF0ADF91C4B1C4AC4F808920834EC
:103070001A611946C3E900641948C3E9028502F0E0
:10308000A7FF074B039A1B689A4205D1144805B065
:10309000BDE8F04F02F0E4BFFFF782F8B4F800207B
:1030A000000B0020D8E50020712D0008E8E5002085
:1030B000A4F600200CF70020E8FA0020E4E5002048
:1030C00000380240D8FA0020B12C0008CCF80020CB
:1030D00090E50020112D0008B8F800202C0308000E
:1030E000740F0120000020410000FA45EFBEADDE64
:1030F0002DE9F043254E83B034680194042A9DF8ED
:103100002890144605460F46984639D9B9F1000F64
:1031100014BF00224FF08052640002EB0863013CB0
:103120001C4405F00F0527F01F07202383F31188A7
:1031300001F07EFD3D4300F0B3FD154B1035DD6021
:103140001C6100F0CDFD01F08BFD124B1A689A4214
:1031500004D0996993688A689A420DD3002383F357
:103160001188BFF36F8FBFF34F8F019A33689A4274
:103170000AD103B0BDE8F083074800F0F1FCEDE7A9
:10318000064800F0EDFCC1E7FFF70AF8000B00204D
:1031900090ED00E038020120C0080108A0080108F5
:1031A00030B5224D224C2B68224A85B003936368C8
:1031B00043F004036360536A43F480335362202373
:1031C00083F3118801F034FD00F06AFD17221A4BD9
:1031D000E260236100F084FD01F042FD174B1A68A4
:1031E0009A4204D0996993688A689A4218D3002059
:1031F00080F31188BFF36F8FBFF34F8F03231D221E
:1032000000904FF00051FFF773FF094A536843F0F5
:1032100001035360039A2B689A4205D105B030BD73
:10322000074800F09DFCE2E7FEF7BAFF000B002024
:1032300090ED00E000ED00E00900001038020120F0
:10324000C0080108000000000000000000000000AD
:1032500070B51A4D1A4C1B4E0FCD0FC49EB02A6884
:10326000336822801D93EFF30981682203A8FEF7DB
:10327000DFFD154B9D6AAA0714D4EB0708D5124B46
:1032800008995B6B114A00910D4880210AF0E8F81B
:103290001D9A33689A420FD109481EB0BDE87040AC
:1032A00000F05EBC099A5B6B0092A4F11000084A22
:1032B00080210AF0D5F8E0E7FEF772FF84080108E4
:1032C000F4FE0020000B002000ED00E06008010883
:1032D000400801080000000000000000000000009D
:1032E00000B51F4B0278196883B00191E2B11D4A05
:1032F0004FF4005111834278EAB11A4A4FF48051D9
:1033000011838278F2B1174A4FF480411183C27859
:10331000FAB9144A4FF400415183019A1B689A424A
:103320001CD103B05DF804FB0E4A4FF400515183E9
:103330004278002AE1D10B4A4FF4805151838278C0
:10334000002AE0D1074A4FF480415183C278002A15
:10335000DFD0044A4FF400411183DEE7FEF720FF7F
:10336000000B0020001002400000000000000000E0
:1033700000B51F4B0278196883B00191E2B11D4A74
:103380004FF4007111834278EAB11A4A4FF4807108
:1033900011838278F2B1174A4FF400611183C27829
:1033A000FAB9144A4FF480615183019A1B689A421A
:1033B0001CD103B05DF804FB0E4A4FF40071518339
:1033C0004278002AE1D10B4A4FF480715183827810
:1033D000002AE0D1074A4FF400615183C278002AE5
:1033E000DFD0044A4FF480611183DEE7FEF7D8FE98
:1033F000000B002000100240000000000000000050
:1034000030B50C4A0C4B116883B04FF40055019154
:103410004FF480544FF400414FF480405D835C834F
:103420005883598301991368994201D103B030BD83
:10343000FEF7B6FE000B0020001002400000000066
:1034400030B50C4A0C4B116883B04FF400750191F4
:103450004FF480744FF480614FF400605D835C83AF
:103460005883598301991368994201D103B030BD43
:10347000FEF796FE000B0020001002400000000046
:1034800010B50B4C0B48236882B0992200210193A0
:1034900002F0F6FE019A23689A4206D105480021FF
:1034A00002B0BDE8104002F0D3BFFEF779FE00BFC6
:1034B000000B002018100120000000000000000098
:1034C00010B50B4C0B48236882B099220021019360
:1034D00002F0D6FE019A23689A4206D105480021DF
:1034E00002B0BDE8104002F0B3BFFEF759FE00BFC6
:1034F000000B00203410012000000000000000003C
:1035000000B5084B83B01A680192019A1B689A4271
:1035100006D10548002103B05DF804EB02F000BFBE
:10352000FEF73EFE000B00201810012000000000F6
:1035300000B5084B83B01A680192019A1B689A4241
:1035400006D10548002103B05DF804EB02F0E8BEA7
:10355000FEF726FE000B00203410012000000000C2
:1035600070B51A4C1A4E2378326882B0022B019241
:10357000A26811D165781748013505F0070500EB01
:103580008500904763686570013B6360019A33680A
:103590009A4219D102B070BD012B08D0019933684D
:1035A000994211D10C4802B0BDE8704010476578CF
:1035B0000848013D05F0070500EB8500904763686A
:1035C000657001336360E1E7FEF7EAFD8CFF0020E0
:1035D000000B0020600901085009010800000000EC
:1035E00070B51A4C1A4E2378326882B0012B0192C2
:1035F000A26811D165781748013505F0070500EB81
:10360000850090476368657001336360019A336891
:103610009A4219D102B070BD022B08D001993368CB
:10362000994211D10C4802B0BDE87040104765784E
:103630000848013D05F0070500EB850090476368E9
:103640006570013B6360E1E7FEF7AAFD74FF0020AF
:10365000000B00206009010850090108000000006B
:1036600030B51F4D85B02B68039340F24C4399420F
:10367000044626DCA3F69803994211DB4B00002B8D
:1036800029D10370036998474FF47A71039A2B6824
:103690009A421ED1606905B0BDE8304002F0A8BD75
:1036A000104B02225B42227040F2892293420E4963
:1036B00091FBF3F189B207DC0191E3689847019926
:1036C000E4E7012303702D210191236998470199B3
:1036D000DCE7FEF765FDE4DD01220270E4E700BFF0
:1036E000000B002068F7FFFFA0860100000000002B
:1036F00000B5084B83B01A680192019A1B689A4280
:1037000006D10146044803B05DF804EBFFF7A8BFFB
:10371000FEF746FD000B002074FF002000000000B3
:1037200000B5084B83B01A680192019A1B689A424F
:1037300006D10146044803B05DF804EBFFF790BFE3
:10374000FEF72EFD000B00208CFF00200000000083
:1037500070B51D4E1D4A1E4B30681E491E4C9160AF
:1037600082B00021D46001901C4C1D481D4D9D600D
:10377000117051705160106154611B481B4A1C4DFF
:10378000D8601C48197059705960C3E90425FFF7C7
:10379000A7FD1848FFF7ECFD1749204602F0D8FCBA
:1037A000204602F00DFE2846144902F0D1FC019A91
:1037B00033689A4205D1284602B0BDE8704002F055
:1037C000FFBDFEF7EDFC00BF000B00208CFF0020CA
:1037D00074FF0020E1320008813400081810012035
:1037E0000135000871330008C13400083135000884
:1037F000341001205009010810090108D0080108FF
:103800000A490B4B09680B4A82B0202001914021E4
:1038100058834FF4806559834FF400644FF480401F
:1038200004215D835C8358835183FEE7000B0020F5
:10383000000C0240000402400000000000000000F4
:1038400000B50F4B83B01868019002290CD00329F2
:103850000CD001290B4818BF0020019A1B689A421E
:103860000BD103B05DF804FB0748F6E7032A96BFC7
:103870000648002000EBC200EFE7FEF791FC00BF16
:10388000000B0020600A0108000A0108100B010863
:1038900070B5154C82B02368019302291CD10D46E6
:1038A0000646202383F3118801F0F2F900F038FA7C
:1038B00030460E4A012103F053FF29460C4A304698
:1038C00003F04EFF0B4803F04BFD00F049FA01F006
:1038D000F7F9002383F31188019A23689A4201D1F2
:1038E00002B070BDFEF75CFC000B002080090108EF
:1038F000B0090108A4FF0020000000000000000043
:1039000030B5134D134C2B68134883B0019303F06B
:103910009FFC1249104803F0CBFC226D936B23F4FB
:10392000002393634FF47A7000F0F2FE20460C49B6
:1039300003F0C6FE226D936B43F400239363019A58
:103940002B689A4201D103B030BDFEF729FC00BFBD
:10395000000B0020F80C0120A4FF0020E009010862
:10396000F009010800000000000000000000000055
:1039700000B5084B83B01A680192019A1B689A42FD
:1039800005D1054803B05DF804EB01F071BBFEF70B
:1039900007FC00BF000B0020A40B0020000000006B
:1039A00000B5084B83B01A680192019A1B689A42CD
:1039B00005D1054803B05DF804EB01F091BBFEF7BB
:1039C000EFFB00BF000B0020A40B00200000000054
:1039D00070B50D4C82B0236801930D1E06460DDDB7
:1039E000284601F035FF18B90C2333604FF0FF3043
:1039F000019A23689A4205D102B070BD034800F0D5
:103A0000AFF8EDE7FEF7CCFB000B0020300B010810
:103A100000B5064B83B01A680192019A1B689A425E
:103A200002D103B05DF804FBFEF7BAFB000B0020E7
:103A300000B5064B83B01A680192019A1B689A423E
:103A400002D103B05DF804FBFEF7AAFB000B0020D7
:103A5000024B82B01B680193FEE700BF000B002001
:103A600000B5044B04481B6883B0019300F078F85C
:103A7000FEE700BF000B0020400B01080000000023
:103A8000024B82B01B680193FEE700BF000B0020D1
:103A9000F0B5294E294B3268294885B0002403929D
:103AA0009C60D968274A4FF6FF0529400A43DA602F
:103AB000C2682549254D42F08072C2600A6842F012
:103AC00001020A6010202022D87783F8222000F01B
:103AD000DFFA00F045FA00F0FBFF01F091FE01F083
:103AE000FFFE01F04DF800F0FBF9402105F588607C
:103AF00000F01EFD0127164BC36180F82070A861FD
:103B000000F0A6F884F3118862B6AB69114A9A6195
:103B10004FF4C4713A46104B009405F59D6000F0D7
:103B20009FFD039A33680D4981619A4201D105B026
:103B3000F0BDFEF735FB00BF000B002000ED00E0FC
:103B4000F0ED00E00003FA05001000E0380201206B
:103B500000040020C00C0108813A0008600B010835
:103B600000B5054B83B01B680193044672B6FFF79E
:103B700047FE024BDC62FEE7000B0020380201200A
:103B80002DE9F047DFF890A0224DDAF8003082B03E
:103B9000019300F055F9AB6993F8232012B1013A73
:103BA00083F823205A6ADFF8748001325A6200F0E9
:103BB00047F9AB6AEA6901334245AB6220D09368AA
:103BC000013B9360EC69A668D6B94FF020092368E1
:103BD000E768E660C3F804802368EB6100F0C0F892
:103BE00001F06EF886F311882069B84789F31188CF
:103BF00001F04EF800F094F8EC69A368002BE6D0D1
:103C0000019ADAF800309A4202D102B0BDE8F0879A
:103C1000FEF7C6FA38020120000B002054020120F2
:103C200010B5094C094A236882B001935168536862
:103C30005B1A9842FBD8019A23689A4201D102B0DC
:103C400010BDFEF7ADFA00BF000B0020001000E031
:103C500000B50E4A0E4B116B186883B0019009B97C
:103C6000526B4AB1019A1B689A420CD1094803B0C1
:103C70005DF804EBFFF774BF019A1B689A4202D10A
:103C800003B05DF804FBFEF78BFA00BF3802012099
:103C9000000B0020700B0108000000000000000075
:103CA00030B50B4C0B4D236B2A6883B001920BB9D6
:103CB000636B13B10848FFF753FF019A2B6801218A
:103CC0009A42616301D103B030BDFEF769FA00BFCB
:103CD00038020120000B0020A00B010800000000AA
:103CE00030B50C4C0C4D236B2A6883B0019253B94C
:103CF000636B002B07DD019A2B6800219A426163F8
:103D000005D103B030BD0548FFF72AFFF3E7FEF702
:103D100047FA00BF38020120000B0020C00B010849
:103D200030B50B4C0B4D236B2A6883B0002B0192EE
:103D300001DD636B13B10848FFF712FF019A2B688E
:103D400001219A42616301D103B030BDFEF728FA28
:103D500038020120000B0020B00B01080000000019
:103D600030B50C4C0C4D236B2A6883B0002B0192AC
:103D70000ADD636B002B07DD019A2B6800219A4254
:103D8000616305D103B030BD0448FFF7E9FEF3E7F6
:103D9000FEF706FA38020120000B0020D00B0108C4
:103DA00030B50F4D83B02B680193202383F3118826
:103DB0000C4C236B002B01DB626B1AB10A48FFF736
:103DC000CFFE236B01332363002383F31188019A11
:103DD0002B689A4201D103B030BDFEF7E1F900BF74
:103DE000000B002038020120800B010800000000B9
:103DF00030B50F4D83B02B680193202383F31188D6
:103E00000C4C236B002B01DD626B1AB10A48FFF7E3
:103E1000A7FE236B013B2363002383F31188019AE0
:103E20002B689A4201D103B030BDFEF7B9F900BF4B
:103E3000000B002038020120900B01080000000058
:103E400000B50F4A0F4B116B186883B00029019021
:103E500009DB526B002A06DD019A1B689A420CD1DD
:103E600003B05DF804FB019A1B689A4205D106482D
:103E700003B05DF804EBFFF773BEFEF791F900BFE6
:103E800038020120000B0020E00B010800000000B8
:103E900000B50E4A0E4B116B186883B0019049B9FA
:103EA000526B002A06DD019A1B689A420CD103B0BE
:103EB0005DF804FB019A1B689A4205D1054803B0DE
:103EC0005DF804EBFFF74CBEFEF76AF938020120FB
:103ED000000B0020F00B01080000000000000000B3
:103EE00010B5084A084B116882B04024019101992D
:103EF000126818199142C3E90E4001D102B010BDF9
:103F0000FEF74EF9000B00203802012000000000EF
:103F100010B51149114B0A6882B00192DA6B9C6AA4
:103F20001460DA6B9C695460DA6B846A9460DA6BB3
:103F300090F820001073DA6B03F58860103282422B
:103F400028BF03F14002DA63019A0B689A4201D15B
:103F500002B010BDFEF724F9000B0020380201204A
:103F600010B50B4A0B4B116882B04FF0FF34019132
:103F700000219962019811685C6203F11C02884279
:103F8000C3E9072201D102B010BDFEF709F900BF55
:103F9000000B00203802012000000000000000009B
:103FA0002DE9F041184E82B00546306801900C466C
:103FB00017469846FFF744FF05B3FFB1F4B1C5E9D2
:103FC00003781248C3699A68944204D91B68A41AFA
:103FD0009A68A242FAD32B605A686A6015605D60E5
:103FE000AC609968019D3268091B95424FF0FF341F
:103FF0009960446206D102B0BDE8F0810448FFF741
:10400000AFFDDCE7FEF7CCF8000B00203802012002
:10401000000C01080000000000000000000000008B
:1040200030B5164D83B004462B680193FFF708FFA7
:10403000ECB1E368BBB12268A068936801990344BE
:104040009360D4E900231A6020682B680C4A6568E5
:10405000456099424FF000054FF0FF30E560506237
:1040600009D103B030BD0748FFF77AFDE3E7054803
:10407000FFF776FDDDE7FEF793F800BF000B0020A9
:1040800038020120100C01080000000000000000B0
:1040900000B50A4A0A4B11681B6083B000200191E9
:1040A000019912685B609142C3E90433986002D1C0
:1040B00003B05DF804FBFEF773F800BF000B0020AF
:1040C0003802012000000000000000000000000095
:1040D00030B5164D83B004462B680193FFF7B0FE50
:1040E000ECB194F82030B3B10F2B14D00022A168AA
:1040F0000F4B84F820201B689A688A42FBD2236009
:104100005A686260146001992A685C609142204696
:1041100009D103B030BD0748FFF722FDE6E70548A7
:10412000FFF71EFDDDE7FEF73BF800BF000B0020A8
:1041300038020120200C01080000000000000000EF
:1041400070B5204D82B02B6801930446202383F381
:10415000118800F09DFDFFF7E3FD94F82030072B58
:1041600011D8DFE803F0161010230A04100AA66A1B
:10417000FFF766FEB3680133B360D4E900231A6029
:10418000D4E900325A604FF0FF33A3622046FFF7B4
:104190009FFFFFF7E5FD00F093FD002383F31188F7
:1041A000019A2B689A420BD102B070BDA36A00221B
:1041B0001A604FF0FF33A3622046FFF789FFE8E75C
:1041C000FDF7EEFF000B00200000000000000000E3
:1041D000F0B5194E194C336883B007460193FFF7C9
:1041E00057FEA569236885F82070142285F82320DE
:1041F0001A68226001215460284683F82010A361C8
:10420000FFF786FE2946A06900F0F2FCEFF3098370
:10421000EA69643B9A4202D90948FFF7A1FC019A76
:1042200033689A4206D1A069294603B0BDE8F04040
:10423000FCF73EB8FDF7B4FF000B00203802012068
:10424000300C010800000000000000000000000029
:10425000F0B5154C87B0236805930E460746FFF767
:1042600017FE731C18D0114D114AAB6931466846D0
:10427000FFF796FE3846FFF7ABFFFFF7E1FD039B24
:1042800013B16846FFF7CCFE059A2368A9699A42E4
:10429000886A06D107B0F0BD3846FFF799FF034D95
:1042A000F2E7FDF77DFF00BF000B00203802012080
:1042B0004141000800000000000000000000000074
:1042C000F0B51E4D1E4E2B6883B0044601930F4679
:1042D000FFF7DEFDB069A7628368A2689A421DD924
:1042E000FFF7F6FE0123074684F82030B461FFF79C
:1042F0000FFE3946204600F07BFCEFF30983FA6994
:10430000643B9A4214D8019A2B689A4214D13946D8
:10431000204603B0BDE8F040FBF7CABF019A2B6806
:104320009A4209D1204603B0BDE8F040FFF7D0BE65
:104330000448FFF715FCE6E7FDF732FF000B00200D
:1043400038020120300C01080000000000000000CD
:1043500010B50E490E4B8A69086892F823101C6844
:104360008068926882B0019449B9904234BF0020BD
:104370000120019A1B689A4206D102B010BD9042FA
:1043800094BF00200120F4E7FDF70AFF3802012066
:10439000000B0020000000000000000000000000F2
:1043A00070B5184C184E2368A5691A6822605460CD
:1043B000012283F8202082B01422316885F823205E
:1043C0002846A3610191FFF783FE2846FFF7A0FD71
:1043D0002946A06900F00CFCEFF30983EA69643B0D
:1043E0009A4202D90948FFF7BBFB019A33689A4207
:1043F00006D1A069294602B0BDE87040FBF758BF5E
:10440000FDF7CEFE38020120000B0020300C010821
:1044100070B51C4D1C4E2A68AC6913682B600121D5
:1044200082B05D60002082F82010AA613268A16825
:1044300084F82000019200E01B689A688A42FBD849
:1044400023605A686260204614605C60FFF760FD7C
:104450002146A86900F0CCFBEFF30983E269643BD5
:104460009A4202D90948FFF77BFB019A33689A42C6
:1044700006D1A869214602B0BDE87040FBF718BF1D
:10448000FDF78EFE38020120000B0020300C0108E1
:1044900010B50F4C82B023680193FFF7F9FCFFF7CA
:1044A000CFFC0C4B1A689B6992689B689A42019AF0
:1044B000236803D89A4208D102B010BD9A4204D1B1
:1044C00002B0BDE81040FFF7A3BFFDF769FE00BFD3
:1044D000000B002038020120000000000000000056
:1044E00000B50E4A0E4B9269196892F8232083B0EA
:1044F000019142B1019A1B689A420DD103B05DF857
:1045000004EBFFF785BF019A1B689A4204D103B000
:104510005DF804EBFFF744BFFDF742FE38020120CF
:10452000000B002000000000000000000000000060
:10453000F0B51A4A1A4D02610446816083B0142313
:1045400050692E68616484F823300227002301211A
:10455000278484F82210C4E90F3304F16801A361B1
:10456000019604F12C07636204F1500604F1300354
:1045700060610461C4E90C33E1613046E762546173
:1045800000F03EFA304600F05BFA019A2B689A423E
:1045900002D1204603B0F0BDFDF702FE3802012033
:1045A000000B0020000000000000000000000000E0
:1045B00010B5094B82B01C680194884203D200F800
:1045C000012B8142FBD1019A1B689A4201D102B0B2
:1045D00010BDFDF7E5FD00BF000B0020000000004E
:1045E0002DE9F043184E83B0346801940546DDF898
:1045F00028900C4617469846FFF722FC15B1B4F5F3
:10460000BC7F19D21148FFF7ABFAA4F16401294429
:10461000E960C1F84080EB68019AC3F844903368C0
:10462000E9680B4808669A420CD13946284603B01F
:10463000BDE8F043FFF77CBF7F2FE3D8B8F1000F50
:10464000E3D1DFE7FDF7ACFD000B0020800C010893
:10465000C902000800000000000000000000000087
:104660002DE9F04FDFF8A48087B0D8F80040DDF8DE
:104670004090059407468A46934600F16806044632
:10468000FF2504F8015BA642FBD107EB0A05A54212
:1046900004D9552604F8016BA542FBD103932022CF
:1046A00082F3118800F0C4FAFFF7FAFA039BCDF801
:1046B00000905A4651463846FFF792FF00210446C3
:1046C000FFF7FEFDFFF70CFB00F0CAFA0D4B1A686E
:1046D0009A4204D0996993688A689A420BD300235E
:1046E00083F31188059AD8F800309A42204606D103
:1046F00007B0BDE8F08F0448FFF732FAEFE7FDF7A7
:104700004FFD00BF38020120400C0108000B0020C3
:1047100030B5184C83B0236801930546202383F3FA
:10472000118800F085FAFFF7BBFA15B91248FFF7B8
:1047300017FA29460820FFF78BFDFFF7D1FA00F0A2
:104740008FFA0E4B1A689A4204D0996993688A6866
:104750009A4208D3002383F31188019A23689A426E
:1047600005D103B030BD0648FFF7FAF9F2E7FDF7CF
:1047700017FD00BF000B0020500C0108380201207B
:10478000400C0108000000000000000000000000D4
:1047900070B5164B164E9C693268E36AA06282B00F
:1047A00004F12C05AB42019207D01A68E262184668
:1047B000FFF78EFCE36AAB42F7D194F821309B07F8
:1047C00005D1D4E904231A61D4E904325A610F20D7
:1047D000FFF7FEFC019A33689A4205D1054802B002
:1047E000BDE87040FFF7BCB9FDF7DAFC38020120E4
:1047F000000B0020900C01080000000000000000E9
:1048000030B50C4C83B0236801930546202383F315
:10481000118800F00DFAFFF743FA019A23689A42D3
:1048200005D1284603B0BDE83040FFF7B1BFFDF722
:10483000B7FC00BF000B00200000000000000000DB
:10484000F0B50D4D0D4E03682A68B76983B0044674
:10485000019213B10A48FFF783F927600320BC6275
:10486000FFF7B6FC019A2B68B1699A42886A01D1B8
:1048700003B0F0BDFDF794FC000B002038020120CE
:10488000A00C010800000000000000000000000073
:10489000F0B5124D04682B6883B00193B4B194F85D
:1048A0002030032B06460F460CD100233360019ABB
:1048B0002B68A7629A420FD1204603B0BDE8F040B2
:1048C000FFF706BC0648FFF74BF9EEE7019A2B68A5
:1048D0009A4201D103B0F0BDFDF762FC000B00204D
:1048E000B00C010800000000000000000000000003
:1048F00030B5104A83B01368019381B10E4B019D0E
:104900009B69186044685C6023601268436095424C
:104910000DD1042003B0BDE83040FFF799BC0199E8
:10492000136899424FF0FF3001D103B030BDFDF75D
:1049300037FC00BF000B00203802012000000000FF
:1049400070B5124D04682B6882B0A042019315D057
:1049500023680360586094F82030042B0E4602D080
:104960000B48FFF7FDF8019A2B68A6629A420BD11B
:10497000204602B0BDE87040FFF7AABB019A2B6841
:104980009A4201D102B070BDFDF70AFC000B002075
:10499000600C0108000000000000000000000000A2
:1049A0002DE9F041DFF850800468D8F8003082B07B
:1049B000A042019313D00F4F05460E4623682B608B
:1049C0005D6094F82030042B02D03846FFF7C8F819
:1049D000A6622046FFF77CFB2C68A542EED1019A27
:1049E000D8F800309A4202D102B0BDE8F081FDF75C
:1049F000D7FB00BF600C0108000B00200000000086
:104A000030B50B4B83B01A6801924FF0FF32026051
:104A100001991A680024002300259142C0E9044549
:104A2000C0E90133C36001D103B030BDFDF7B8FB6D
:104A3000000B00200000000000000000000000004B
:104A400000B5084B084A196883B001915168019A72
:104A50001B6881609A4202D103B05DF804FBFDF748
:104A60009FFB00BF000B0020001000E000000000D2
:104A7000F0B51449144B0A68846883B00192134A54
:104A80005B68D2F8A864C2681B1BD0E904450132F8
:104A90009B1BC26042688360E61845F100079342A1
:104AA000C0E9046709D80268934238BF0360019ADD
:104AB0000B689A4203D103B0F0BD4360F7E7FDF7FE
:104AC0006FFB00BF000B0020001000E03802012047
:104AD00030B5114D114C2B6889B04FF0FF31079361
:104AE000002300226846C4F8A834CDE901330393BB
:104AF0000023CDE904230091FFF7A2FF6846FFF7EA
:104B0000B7FF079A2B680299C4F8A8149A4201D1FA
:104B100009B030BDFDF744FB000B00203802012036
:104B20002DE97048134E144B326883B001925B68D4
:104B30008B60D0E902411B1BD0E90445426814EBAD
:104B4000030B45F1000C01319342C0E90231C0E989
:104B500004BC0AD80268934238BF0360019A3368E4
:104B60009A4204D103B0BDE870884360F6E7FDF7D0
:104B700017FB00BF000B0020001000E00000000049
:104B800030B50D4D0D4C2B6883B004F59760019343
:104B90000023C4F8B034C4F8B434FFF731FF019AED
:104BA0002B689A4206D104F59A6003B0BDE8304004
:104BB000FFF726BFFDF7F4FA000B002038020120B2
:104BC00000B50949094A0B6883B001930198D2F8EE
:104BD000B034096801338842C2F8B03402D103B05E
:104BE0005DF804FBFDF7DCFA000B00203802012021
:104BF00070B50D4C0D4A236882B00193019DD2F827
:104C0000B43424680133A542C2F8B43409D10E4645
:104C100000F1500106F1500002B0BDE87040FFF70E
:104C20007FBFFDF7BDFA00BF000B00203802012056
:104C300000B5084B83B01A680192019A1B689A422A
:104C400005D1054803B05DF804EBFFF7F9BEFDF7A9
:104C5000A7FA00BF000B0020F006012000000000B2
:104C600000B5084B83B01A680192019A1B689A42FA
:104C700005D1054803B05DF804EBFFF7F9BEFDF779
:104C80008FFA00BF000B0020F0060120000000009A
:104C900000B5084B83B01A680192019A1B689A42CA
:104CA00005D1054803B05DF804EBFFF7C9BEFDF779
:104CB00077FA00BF000B0020080701200000000069
:104CC00000B5084B83B01A680192019A1B689A429A
:104CD00005D1054803B05DF804EBFFF7C9BEFDF749
:104CE0005FFA00BF000B0020080701200000000051
:104CF00070B50C4D82B02B6801930E46044650B13E
:104D0000002908DB2460019A2B689A42C4E9014615
:104D100005D102B070BD0448FEF722FFF2E7FDF7AF
:104D20003FFA00BF000B0020F00C0108000000005B
:104D300070B51B4D82B004462B680193FFF7A8F8AD
:104D400044B3A3682268002B10DBA24203D01548AD
:104D5000FEF706FFA368013B002BA3600CDB0020DD
:104D6000019A2B689A4219D102B070BDA242EED0CE
:104D7000013B002BA360F2DA0B4EB3699C621C600E
:104D800062685A60052013606360FFF721FAB36917
:104D9000986AE5E70348FEF7E3FED2E7FDF700FA7D
:104DA000000B0020000D0108380201200000000067
:104DB00030B5164C83B0236801930546202383F356
:104DC0001188FFF735FFFEF76BFF2846FFF7B0FFAE
:104DD0000546FEF785FFFFF743FF0D4B1A689A4221
:104DE00004D0996993688A689A4209D3002383F3AF
:104DF0001188019A23689A42284605D103B030BD34
:104E00000448FEF7ADFEF1E7FDF7CAF9000B0020FC
:104E100038020120E00C0108000000000000000042
:104E200030B51C4D83B004462B680193FFF708F89A
:104E30004CB3A3682268002B0FDBA24203D01648B4
:104E4000FEF78EFEA3680133002BA3600BDD019AF1
:104E50002B689A421BD103B030BDA242EFD0013380
:104E6000002BA360F3DC20680199036823602A68A3
:104E70005C6091424FF00003836208D103B0BDE84B
:104E80003040FFF725B90448FEF76AFED1E7FDF789
:104E900087F900BF000B0020100D01080000000082
:104EA00030B50B4D83B02B680193044650B124609C
:104EB00001992A68646000239142A360236105D1AF
:104EC00003B030BD0348FEF74BFEF0E7FDF768F98D
:104ED000000B0020300D0108000000000000000061
:104EE000F0B55D4E5D4B32689D6983B0044601921A
:104EF000FEF7CEFF002C00F08480A0682369002814
:104F000043D0002B40F39780854276D0AA6883680F
:104F10009A4208D990F820308260062B40D0072BA7
:104F200073D0002B5DD02746234603E09968AA681A
:104F3000914233D31B689C42F8D12F607B686B6031
:104F400006201D607D60AC62FFF742F9A368AB42AA
:104F500002D04348FEF704FE2B6CA34202D0404827
:104F6000FEF7FEFD2369012B05D1019A33689A42B1
:104F70006FD103B0F0BD019A33689A4269D13848C5
:104F800003B0BDE8F040FEF7EBBD002B58D1013374
:104F9000A56023612B6CE3602C64E6E71F46CCE739
:104FA000D0E900231A60D0E900325A60876A3B4694
:104FB00003E099688268914247D31B689F42F8D109
:104FC00007607B68436018607860836AAA689868A5
:104FD00083689342A7D290F820308260062B9ED13E
:104FE000DEE7D0E90023012180F820101A60D0E923
:104FF00000325A60FFF76CF895E7236901332361AB
:10500000B3E71748FEF7ACFD77E7D0E900231A6055
:10501000D0E900325A60876A3B4603E099688268AB
:10502000914214D31B689F42F8D107607B684360AC
:105030001860786077E70A48FEF792FDA06863E79A
:105040000748FEF78DFD2369A1E71F46B8E71F4615
:10505000EBE7FDF7A5F800BF000B002038020120A8
:10506000400D0108000000000000000000000000EA
:1050700030B5154C83B0236801930546202383F394
:105080001188FFF7D5FDFEF70BFE2846FFF728FF36
:10509000FEF726FEFFF7E4FD0C4B1A689A4204D097
:1050A000996993688A689A4208D3002383F3118828
:1050B000019A23689A4205D103B030BD0448FEF737
:1050C0004FFDF2E7FDF76CF8000B002038020120DD
:1050D000200D01080000000000000000000000009A
:1050E0002DE9F043DFF800813C4FD8F80030BE696D
:1050F00083B005460193002864D0202383F31188F0
:10510000FFF796FDFEF7CCFD336C002B5ED09B685D
:10511000B34202D03248FEF723FD2B69002B49DD54
:10512000013B2B615BBB336CAB4202D02C48FEF7DA
:1051300017FDEB683364FEF7ABFE2B689D423ED053
:10514000D6E910495CB1FEF7A3FE23689C4203D068
:105150009B68994538BF9946E468002CF3D1C6F89E
:1051600008902B6801222A611A682A605560AB609A
:105170001A6CEA6018461D640021FFF7A1F8FEF7DB
:10518000AFFDFFF76DFD3B68BB4204D0BA699B6879
:1051900092689A420AD3002383F31188019AD8F8BF
:1051A00000309A4217D103B0BDE8F0830D48FEF7F6
:1051B000D7FCF0E70A48FEF7D3FC2B69B0E70023E1
:1051C000AB60DCE70648FEF7CBFC96E70448FEF749
:1051D000C7FC336C9BE7FCF7E3FF00BF38020120FC
:1051E000500D0108200D0108000B002000000000F8
:1051F00070B5184E82B00446336801930D46FEF731
:105200001FFE0CB3E16B94F8203029430A2BE163B5
:1052100016D00B2B05D0019A33689A4218D102B0F0
:1052200070BDA36A8B43F6D1019A336800219A427C
:10523000A1620DD1204602B0BDE87040FEF748BF24
:10524000A36A1942F0D1E6E70348FEF789FCD9E7E3
:10525000FCF7A6FF000B0020800D010800000000F5
:10526000F0B5134F83B006463B6801930D46FEF739
:10527000E7FDB6B13468A6420DD0E3682B43E36086
:1052800015B12269134203D0D4E90101FFF7B0FF41
:105290002468A642F1D1019A3B689A4205D103B035
:1052A000F0BD0448FEF75CFCE4E7FCF779FF00BFC3
:1052B000000B0020600D010800000000000000004D
:1052C00070B50C4CC16082B0266801960A4400603B
:1052D000019E02612268069D4060C0E90511964268
:1052E0004FF00001C3618160056201D102B070BD61
:1052F000FCF756FF000B002000000000000000003B
:1053000030B50D4D83B02B6801930446FEF798FD30
:1053100001992A68E368A36100209142A06063615B
:1053200007D120466FF0010103B0BDE83040FFF720
:1053300037BBFCF735FF00BF000B0020000000006A
:1053400070B5164D82B004462B6801930E46FEF7E9
:1053500077FDFEF775FDD4E905239A42A36816D0C0
:105360000133511CA36061611670D4E904329A4282
:105370000AD220460021FFF7E3FA0020019A2B68A9
:105380009A4209D102B070BDE3686361F1E7002B76
:10539000E6D06FF00300F1E7FCF702FF000B0020FE
:1053A000F0B5234F83B03B68019304460E4620239B
:1053B00083F31188FFF73CFCFEF772FCE36943B10D
:1053C0002046984705E031462046FFF791FA051E32
:1053D00010DBFEF735FDA368002BF4D0A16920692E
:1053E0004A1C013B8242A360A26128BFE3680D789A
:1053F00028BFA361FEF774FCFFF732FC0D4B1A685F
:105400009A4204D0996993688A689A4209D3002322
:1054100083F31188019A3B689A42284605D103B06C
:10542000F0BD0548FEF79CFBF1E7FCF7B9FE00BFB5
:10543000000B002038020120900D01080000000040
:105440002DE9F04FDFF8F490044685B0D9F800005C
:1054500003908A461D46D4F81C809346002A60D0EB
:10546000202383F311880193FFF7E2FBFEF718FC7A
:105470002F4E0027B8F1000F07D02046C04704E0A8
:1054800029462046FFF734FA60BBFEF7D9FCA36833
:10549000002BF5D0A269013B511CA161A3601378D8
:1054A0000AF8013B2369A2699A4224BFE368A36119
:1054B000FEF716FCFFF7D4FB3368B34204D0B269A1
:1054C0009B6892689A4228D3002383F3118801379E
:1054D000BB4519D0019B83F31188FFF7A9FBFEF7A9
:1054E000DFFBC7E7FEF7FCFBFFF7BAFB3368B3420D
:1054F00007D0B2699B6892689A4202D20D48FEF7C3
:105500002FFB002383F31188039AD9F800309A42C5
:1055100038460AD105B0BDE8F08F0648FEF720FBFB
:10552000D2E70548FEF71CFB9AE7FCF739FE00BFFF
:1055300038020120900D0108A00D0108000B002089
:1055400070B50B4D82602E68C16082B0C0E900006A
:1055500001960A44019E02612A68069C9642C0E9AF
:105560000511C0E9073401D102B070BDFCF718FE87
:10557000000B002000000000000000000000000000
:1055800030B50D4D83B004462B680193FEF758FCEF
:10559000D4E9032301982968A2619B1A88426261B9
:1055A000A36007D120466FF0010103B0BDE8304091
:1055B000FFF7F6B9FCF7F4FD000B00200000000037
:1055C0002DE9F0412E4F82B03B6801930446884696
:1055D0001646202383F31188FFF72AFBFEF760FBB2
:1055E00005E031462046FFF783F9051E2DDBFEF767
:1055F00027FCA368002BF4D06269013B511C616158
:10560000A36082F80080D4E904329A4224BFE368A0
:105610006361E3690BB120469847FEF761FBFFF732
:105620001FFB184B1A689A4204D0996993688A68DC
:105630009A421ED3002585F31188019A3B689A424D
:1056400028461AD102B0BDE8F081FEF749FBFFF70A
:1056500007FB0C4B1A689A4207D0996993688A68CD
:105660009A4202D20848FEF77BFA002383F311889E
:10567000E3E70548FEF774FADCE7FCF791FD00BFAD
:10568000000B002038020120900D010800000000EE
:1056900070B5154E82B0044633680193FEF7D0FB17
:1056A000FEF7CEFBD4E905329342A36815D02069FA
:1056B000511C0133A360A161814215780AD22046B2
:1056C0000021FFF73DF92846019A33689A4209D133
:1056D00002B070BDE368A361F1E7002BE7D06FF083
:1056E0000200F1E7FCF75CFD000B00200000000069
:1056F0002DE9F04F04463B48D4F81C90006885B073
:105700000D46039001931646002A61D04FF0200AFF
:105710008AF31188FFF78CFAFEF7C2FA4FF00008FF
:10572000314FC346FEF78CFBA368002B32D0626971
:10573000013B511C6161A3602B781370D4E90432E2
:105740009A4224BFE36863610135B9F1000F01D0CB
:105750002046C847FEF7C4FAFFF782FA3B68BB420F
:1057600007D0BA699B6892689A4202D21F48FEF736
:10577000F7F98BF31188013E08F101081FD08AF375
:105780001188FFF755FAFEF78BFAFEF759FBA3686D
:10579000002BCCD101992046FFF7AAF80028C1D0F0
:1057A000FEF79EFAFFF75CFA3B68BB4204D0BA6989
:1057B0009B6892689A420FD3002383F31188094BA8
:1057C000039A1B689A4240460AD105B0BDE8F08FA3
:1057D0000748FEF7C5F999E70448FEF7C1F9EBE77A
:1057E000FCF7DEFC000B002038020120900D0108C0
:1057F000B00D0108000000000000000000000000E3
:1058000030B50B490B4A0B680B4D0C4C83B022F0A2
:105810000702019301980A4B09682A6023F00703E5
:105820008842236001D103B030BDFCF7B9FC00BF52
:10583000000B00201F110120AC080120A808012046
:105840000000022000000000000000000000000036
:1058500070B51C4E82B0336801930446202383F355
:105860001188FFF7E5F9FEF71BFAFEF7E9FA164A89
:10587000164B15681B68E01D20F007005B1B984263
:105880009ABF401910600025FEF72AFAFFF7E8F9E1
:105890000F4B1A689A4204D0996993688A689A42B1
:1058A00009D3002383F31188019A33689A4228466A
:1058B00005D102B070BD0748FEF752F9F1E7FCF7D9
:1058C0006FFC00BF000B0020AC080120A8080120DD
:1058D00038020120D00D0108000000000000000087
:1058E00000B50B4B0B481A6883B0019201991A68F6
:1058F000094B036091424FF00003C0E9023305D128
:10590000103003B05DF804EBFFF7CABAFCF748FCAF
:10591000000B0020B00801205158000800000000D2
:1059200080B50D4A0D4982B000AF13687B604B68AB
:1059300023F001034B60EFF30983683383F3098895
:10594000002383F3118879681368994202D10837DC
:10595000BD4680BDFCF724FC000B002030EF00E0CA
:10596000B0B5194C82B000AF23687B60202383F36D
:105970001188164B5B6813F4006308D183F3118818
:105980007A6823689A421DD10837BD46B0BDF1EE52
:10599000103AEFF309854FF080720D4B45F84C2C0F
:1059A000DB6845F8083CA5F1680383F30988FEF736
:1059B000CFFC18B1074B45F8503CE1E7064B45F8E2
:1059C000503CDDE7FCF7ECFB000B002000ED00E0B5
:1059D00030EF00E0E1020008F402000800000000DF
:1059E00010B5184C82B02368019302F0C9FD164827
:1059F00004F0E6F800F0D4F800F00AF900F050F9ED
:105A000000F07EF900F0ACF900F082FA00F0B0FA94
:105A100000F06EFB01F0BCF901F0C2F801F0D0FD1E
:105A200001F016FE01F004FC06F0D2F9019A236899
:105A30009A4204D102B0BDE8104001F0F1BDFCF77C
:105A4000AFFB00BF000B0020D013010800000000D6
:105A5000F0B51A4D83B02B68019391420E4614465F
:105A6000074619D38B1A1F2B16D806F01F03581C94
:105A70006209012376098340B24203F1FF3304F047
:105A80001F0457F822000BD31840E040019A2B68FE
:105A90009A4210D103B0F0BD0948FEF761F8E4E77F
:105AA00057F82610C4F120020B4020FA04F403FA40
:105AB00002F02043EAE7FCF773FB00BF000B002075
:105AC000E00D0108000000000000000000000000E0
:105AD000F0B51D4E83B033680193054670B37E2246
